{"contracts/CitizenRegistry.sol":{"CitizenRegistry":{"abi":[{"inputs":[],"stateMutability":"nonpayable","type":"constructor"},{"inputs":[{"internalType":"address","name":"owner","type":"address"}],"name":"OwnableInvalidOwner","type":"error"},{"inputs":[{"internalType":"address","name":"account","type":"address"}],"name":"OwnableUnauthorizedAccount","type":"error"},{"inputs":[],"name":"ReentrancyGuardReentrantCall","type":"error"},{"anonymous":false,"inputs":[{"indexed":true,"internalType":"address","name":"citizenAddress","type":"address"},{"indexed":false,"internalType":"string","name":"name","type":"string"},{"indexed":false,"internalType":"uint256","name":"timestamp","type":"uint256"}],"name":"CitizenRegistered","type":"event"},{"anonymous":false,"inputs":[{"indexed":true,"internalType":"address","name":"citizenAddress","type":"address"},{"indexed":true,"internalType":"address","name":"verifier","type":"address"},{"indexed":false,"internalType":"uint256","name":"timestamp","type":"uint256"}],"name":"CitizenVerified","type":"event"},{"anonymous":false,"inputs":[{"indexed":true,"internalType":"address","name":"previousOwner","type":"address"},{"indexed":true,"internalType":"address","name":"newOwner","type":"address"}],"name":"OwnershipTransferred","type":"event"},{"anonymous":false,"inputs":[{"indexed":true,"internalType":"address","name":"verifier","type":"address"},{"indexed":false,"internalType":"uint256","name":"timestamp","type":"uint256"}],"name":"VerifierAdded","type":"event"},{"anonymous":false,"inputs":[{"indexed":true,"internalType":"address","name":"verifier","type":"address"},{"indexed":false,"internalType":"uint256","name":"timestamp","type":"uint256"}],"name":"VerifierRemoved","type":"event"},{"inputs":[{"internalType":"address","name":"_verifier","type":"address"}],"name":"addVerifier","outputs":[],"stateMutability":"nonpayable","type":"function"},{"inputs":[{"internalType":"uint256","name":"","type":"uint256"}],"name":"citizenAddresses","outputs":[{"internalType":"address","name":"","type":"address"}],"stateMutability":"view","type":"function"},{"inputs":[{"internalType":"address","name":"","type":"address"}],"name":"citizens","outputs":[{"internalType":"string","name":"aadharHash","type":"string"},{"internalType":"string","name":"name","type":"string"},{"internalType":"string","name":"email","type":"string"},{"internalType":"string","name":"phone","type":"string"},{"internalType":"bool","name":"isVerified","type":"bool"},{"internalType":"uint256","name":"registrationDate","type":"uint256"},{"internalType":"address","name":"walletAddress","type":"address"}],"stateMutability":"view","type":"function"},{"inputs":[{"internalType":"address","name":"_citizenAddress","type":"address"}],"name":"getCitizen","outputs":[{"components":[{"internalType":"string","name":"aadharHash","type":"string"},{"internalType":"string","name":"name","type":"string"},{"internalType":"string","name":"email","type":"string"},{"internalType":"string","name":"phone","type":"string"},{"internalType":"bool","name":"isVerified","type":"bool"},{"internalType":"uint256","name":"registrationDate","type":"uint256"},{"internalType":"address","name":"walletAddress","type":"address"}],"internalType":"struct CitizenRegistry.Citizen","name":"","type":"tuple"}],"stateMutability":"view","type":"function"},{"inputs":[{"internalType":"string","name":"_aadharHash","type":"string"}],"name":"getCitizenByAadhar","outputs":[{"internalType":"address","name":"","type":"address"}],"stateMutability":"view","type":"function"},{"inputs":[],"name":"getTotalCitizens","outputs":[{"internalType":"uint256","name":"","type":"uint256"}],"stateMutability":"view","type":"function"},{"inputs":[{"internalType":"address","name":"_citizenAddress","type":"address"}],"name":"isCitizenRegistered","outputs":[{"internalType":"bool","name":"","type":"bool"}],"stateMutability":"view","type":"function"},{"inputs":[],"name":"owner","outputs":[{"internalType":"address","name":"","type":"address"}],"stateMutability":"view","type":"function"},{"inputs":[{"internalType":"string","name":"_aadharHash","type":"string"},{"internalType":"string","name":"_name","type":"string"},{"internalType":"string","name":"_email","type":"string"},{"internalType":"string","name":"_phone","type":"string"}],"name":"registerCitizen","outputs":[],"stateMutability":"nonpayable","type":"function"},{"inputs":[{"internalType":"address","name":"_verifier","type":"address"}],"name":"removeVerifier","outputs":[],"stateMutability":"nonpayable","type":"function"},{"inputs":[],"name":"renounceOwnership","outputs":[],"stateMutability":"nonpayable","type":"function"},{"inputs":[{"internalType":"address","name":"newOwner","type":"address"}],"name":"transferOwnership","outputs":[],"stateMutability":"nonpayable","type":"function"},{"inputs":[{"internalType":"string","name":"_name","type":"string"},{"internalType":"string","name":"_email","type":"string"},{"internalType":"string","name":"_phone","type":"string"}],"name":"updateProfile","outputs":[],"stateMutability":"nonpayable","type":"function"},{"inputs":[{"internalType":"address","name":"","type":"address"}],"name":"verifiers","outputs":[{"internalType":"bool","name":"","type":"bool"}],"stateMutability":"view","type":"function"},{"inputs":[{"internalType":"address","name":"_citizenAddress","type":"address"}],"name":"verifyCitizen","outputs":[],"stateMutability":"nonpayable","type":"function"}],"evm":{"bytecode":{"linkReferences":{},"object":"608060405234801561001057600080fd5b50338061003757604051631e4fbdf760e01b81526000600482015260240160405180910390fd5b61004081610065565b506001808055336000908152600460205260409020805460ff191690911790556100b5565b600080546001600160a01b038381166001600160a01b0319831681178455604051919092169283917f8be0079c531659141344cd1fd0a4f28419497f9722a3daafe3b4186f6b6457e09190a35050565b6116cd806100c46000396000f3fe608060405234801561001057600080fd5b50600436106100f55760003560e01c80637af33f2e11610097578063c2411dab11610066578063c2411dab146101fb578063ca2dfd0a1461021b578063d4f910a71461022e578063f2fde38b1461025457600080fd5b80637af33f2e146101995780638da5cb5b146101c45780639000b3d6146101d55780639db51d82146101e857600080fd5b8063308cdc39116100d3578063308cdc391461014857806364f0a39f1461015b5780636c8244871461016e578063715018a61461019157600080fd5b80631105a5eb146100fa5780631e4c93581461010f5780632e3b326814610125575b600080fd5b61010d6101083660046111b8565b610267565b005b6005546040519081526020015b60405180910390f35b610138610133366004611240565b61032d565b604051901515815260200161011c565b61010d610156366004611240565b61035d565b61010d610169366004611270565b6104ea565b61013861017c366004611240565b60046020526000908152604090205460ff1681565b61010d610804565b6101ac6101a736600461131d565b610818565b6040516001600160a01b03909116815260200161011c565b6000546001600160a01b03166101ac565b61010d6101e3366004611240565b610842565b6101ac6101f6366004611336565b610950565b61020e610209366004611240565b610981565b60405161011c91906113c3565b61010d610229366004611240565b610cb2565b61024161023c366004611240565b610dc7565b60405161011c9796959493929190611474565b61010d610262366004611240565b611030565b3360008181526002602052604081208054610281906114ea565b9050116102a95760405162461bcd60e51b81526004016102a09061151e565b60405180910390fd5b60008451116102ea5760405162461bcd60e51b815260206004820152600d60248201526c13985b59481c995c5d5a5c9959609a1b60448201526064016102a0565b336000908152600260205260409020600181016103078682611599565b50600281016103168582611599565b50600381016103258482611599565b505050505050565b6001600160a01b03811660009081526002602052604081208054829190610353906114ea565b9050119050919050565b3360009081526004602052604090205460ff168061038557506000546001600160a01b031633145b6103d15760405162461bcd60e51b815260206004820152601760248201527f4e6f7420617574686f72697a656420766572696669657200000000000000000060448201526064016102a0565b6001600160a01b03811660009081526002602052604081208054839291906103f8906114ea565b9050116104175760405162461bcd60e51b81526004016102a09061151e565b6001600160a01b03821660009081526002602052604090206004015460ff16156104835760405162461bcd60e51b815260206004820152601860248201527f436974697a656e20616c7265616479207665726966696564000000000000000060448201526064016102a0565b6001600160a01b03821660008181526002602052604090819020600401805460ff19166001179055513391907f444796c7f0646b3525d67b6a35126418a5d4ed3f672dbeb2f815a18a88253a2c906104de9042815260200190565b60405180910390a35050565b6104f261106e565b600084511161053a5760405162461bcd60e51b81526020600482015260146024820152731058591a185c881a185cda081c995c5d5a5c995960621b60448201526064016102a0565b600083511161057b5760405162461bcd60e51b815260206004820152600d60248201526c13985b59481c995c5d5a5c9959609a1b60448201526064016102a0565b3360009081526002602052604090208054610595906114ea565b1590506105e45760405162461bcd60e51b815260206004820152601a60248201527f436974697a656e20616c7265616479207265676973746572656400000000000060448201526064016102a0565b60006001600160a01b03166003856040516105ff9190611659565b908152604051908190036020019020546001600160a01b0316146106655760405162461bcd60e51b815260206004820152601960248201527f41616468617220616c726561647920726567697374657265640000000000000060448201526064016102a0565b6040805160e0810182528581526020808201869052818301859052606082018490526000608083018190524260a08401523360c084018190528152600290915291909120815181906106b79082611599565b50602082015160018201906106cc9082611599565b50604082015160028201906106e19082611599565b50606082015160038201906106f69082611599565b50608082015160048201805460ff191691151591909117905560a0820151600582015560c090910151600690910180546001600160a01b0319166001600160a01b039092169190911790556040513390600390610754908790611659565b90815260405190819003602001812080546001600160a01b03939093166001600160a01b0319938416179055600580546001810182556000919091527f036b6384b5eca791c62761152d0c79bb0604c104a5fb6f4eb0703f3154bb3db0018054909216339081179092557f754530224c6d5f086f90f1ddc12ad49176b37c5ec426819ac61035f9427fd2df906107ed9086904290611675565b60405180910390a26107fe60018055565b50505050565b61080c611098565b61081660006110c5565b565b6005818154811061082857600080fd5b6000918252602090912001546001600160a01b0316905081565b61084a611098565b6001600160a01b0381166108925760405162461bcd60e51b815260206004820152600f60248201526e496e76616c6964206164647265737360881b60448201526064016102a0565b6001600160a01b03811660009081526004602052604090205460ff16156108f05760405162461bcd60e51b815260206004820152601260248201527120b63932b0b23c9030903b32b934b334b2b960711b60448201526064016102a0565b6001600160a01b03811660008181526004602052604090819020805460ff19166001179055517fe0af945fa32f33b1ac2e98b37cf8768d434dec2f25accd97306a26ef6a777750906109459042815260200190565b60405180910390a250565b60006003826040516109629190611659565b908152604051908190036020019020546001600160a01b031692915050565b6109cc6040518060e00160405280606081526020016060815260200160608152602001606081526020016000151581526020016000815260200160006001600160a01b031681525090565b6001600160a01b03821660009081526002602052604081208054849291906109f3906114ea565b905011610a125760405162461bcd60e51b81526004016102a09061151e565b6001600160a01b03831660009081526002602052604090819020815160e08101909252805482908290610a44906114ea565b80601f0160208091040260200160405190810160405280929190818152602001828054610a70906114ea565b8015610abd5780601f10610a9257610100808354040283529160200191610abd565b820191906000526020600020905b815481529060010190602001808311610aa057829003601f168201915b50505050508152602001600182018054610ad6906114ea565b80601f0160208091040260200160405190810160405280929190818152602001828054610b02906114ea565b8015610b4f5780601f10610b2457610100808354040283529160200191610b4f565b820191906000526020600020905b815481529060010190602001808311610b3257829003601f168201915b50505050508152602001600282018054610b68906114ea565b80601f0160208091040260200160405190810160405280929190818152602001828054610b94906114ea565b8015610be15780601f10610bb657610100808354040283529160200191610be1565b820191906000526020600020905b815481529060010190602001808311610bc457829003601f168201915b50505050508152602001600382018054610bfa906114ea565b80601f0160208091040260200160405190810160405280929190818152602001828054610c26906114ea565b8015610c735780601f10610c4857610100808354040283529160200191610c73565b820191906000526020600020905b815481529060010190602001808311610c5657829003601f168201915b5050509183525050600482015460ff1615156020820152600582015460408201526006909101546001600160a01b031660609091015291505b50919050565b610cba611098565b6001600160a01b03811660009081526004602052604090205460ff16610d135760405162461bcd60e51b815260206004820152600e60248201526d2737ba1030903b32b934b334b2b960911b60448201526064016102a0565b6000546001600160a01b03166001600160a01b0316816001600160a01b031603610d755760405162461bcd60e51b815260206004820152601360248201527221b0b73737ba103932b6b7bb329037bbb732b960691b60448201526064016102a0565b6001600160a01b03811660008181526004602052604090819020805460ff19169055517f577461bde9fd030eb8b2941145223af9676a2dfae0f7c7d2456d7be21573a118906109459042815260200190565b600260205260009081526040902080548190610de2906114ea565b80601f0160208091040260200160405190810160405280929190818152602001828054610e0e906114ea565b8015610e5b5780601f10610e3057610100808354040283529160200191610e5b565b820191906000526020600020905b815481529060010190602001808311610e3e57829003601f168201915b505050505090806001018054610e70906114ea565b80601f0160208091040260200160405190810160405280929190818152602001828054610e9c906114ea565b8015610ee95780601f10610ebe57610100808354040283529160200191610ee9565b820191906000526020600020905b815481529060010190602001808311610ecc57829003601f168201915b505050505090806002018054610efe906114ea565b80601f0160208091040260200160405190810160405280929190818152602001828054610f2a906114ea565b8015610f775780601f10610f4c57610100808354040283529160200191610f77565b820191906000526020600020905b815481529060010190602001808311610f5a57829003601f168201915b505050505090806003018054610f8c906114ea565b80601f0160208091040260200160405190810160405280929190818152602001828054610fb8906114ea565b80156110055780601f10610fda57610100808354040283529160200191611005565b820191906000526020600020905b815481529060010190602001808311610fe857829003601f168201915b5050505060048301546005840154600690940154929360ff909116929091506001600160a01b031687565b611038611098565b6001600160a01b03811661106257604051631e4fbdf760e01b8152600060048201526024016102a0565b61106b816110c5565b50565b60026001540361109157604051633ee5aeb560e01b815260040160405180910390fd5b6002600155565b6000546001600160a01b031633146108165760405163118cdaa760e01b81523360048201526024016102a0565b600080546001600160a01b038381166001600160a01b0319831681178455604051919092169283917f8be0079c531659141344cd1fd0a4f28419497f9722a3daafe3b4186f6b6457e09190a35050565b634e487b7160e01b600052604160045260246000fd5b600082601f83011261113c57600080fd5b813567ffffffffffffffff8082111561115757611157611115565b604051601f8301601f19908116603f0116810190828211818310171561117f5761117f611115565b8160405283815286602085880101111561119857600080fd5b836020870160208301376000602085830101528094505050505092915050565b6000806000606084860312156111cd57600080fd5b833567ffffffffffffffff808211156111e557600080fd5b6111f18783880161112b565b9450602086013591508082111561120757600080fd5b6112138783880161112b565b9350604086013591508082111561122957600080fd5b506112368682870161112b565b9150509250925092565b60006020828403121561125257600080fd5b81356001600160a01b038116811461126957600080fd5b9392505050565b6000806000806080858703121561128657600080fd5b843567ffffffffffffffff8082111561129e57600080fd5b6112aa8883890161112b565b955060208701359150808211156112c057600080fd5b6112cc8883890161112b565b945060408701359150808211156112e257600080fd5b6112ee8883890161112b565b9350606087013591508082111561130457600080fd5b506113118782880161112b565b91505092959194509250565b60006020828403121561132f57600080fd5b5035919050565b60006020828403121561134857600080fd5b813567ffffffffffffffff81111561135f57600080fd5b61136b8482850161112b565b949350505050565b60005b8381101561138e578181015183820152602001611376565b50506000910152565b600081518084526113af816020860160208601611373565b601f01601f19169290920160200192915050565b602081526000825160e060208401526113e0610100840182611397565b90506020840151601f19808584030160408601526113fe8383611397565b9250604086015191508085840301606086015261141b8383611397565b92506060860151915080858403016080860152506114398282611397565b9150506080840151151560a084015260a084015160c084015260c084015161146c60e08501826001600160a01b03169052565b509392505050565b60e08152600061148760e083018a611397565b8281036020840152611499818a611397565b905082810360408401526114ad8189611397565b905082810360608401526114c18188611397565b9515156080840152505060a08101929092526001600160a01b031660c090910152949350505050565b600181811c908216806114fe57607f821691505b602082108103610cac57634e487b7160e01b600052602260045260246000fd5b60208082526016908201527510da5d1a5e995b881b9bdd081c9959da5cdd195c995960521b604082015260600190565b601f82111561159457600081815260208120601f850160051c810160208610156115755750805b601f850160051c820191505b8181101561032557828155600101611581565b505050565b815167ffffffffffffffff8111156115b3576115b3611115565b6115c7816115c184546114ea565b8461154e565b602080601f8311600181146115fc57600084156115e45750858301515b600019600386901b1c1916600185901b178555610325565b600085815260208120601f198616915b8281101561162b5788860151825594840194600190910190840161160c565b50858210156116495787850151600019600388901b60f8161c191681555b5050505050600190811b01905550565b6000825161166b818460208701611373565b9190910192915050565b6040815260006116886040830185611397565b9050826020830152939250505056fea2646970667358221220c01ae76f5aa5d32e1e17158f71d5e83ce4e09312a22e7889d53ca65ffb5790f764736f6c63430008140033","opcodes":"PUSH1 0x80 PUSH1 0x40 MSTORE CALLVALUE DUP1 ISZERO PUSH2 0x10 JUMPI PUSH1 0x0 DUP1 REVERT JUMPDEST POP CALLER DUP1 PUSH2 0x37 JUMPI PUSH1 0x40 MLOAD PUSH4 0x1E4FBDF7 PUSH1 0xE0 SHL DUP2 MSTORE PUSH1 0x0 PUSH1 0x4 DUP3 ADD MSTORE PUSH1 0x24 ADD PUSH1 0x40 MLOAD DUP1 SWAP2 SUB SWAP1 REVERT JUMPDEST PUSH2 0x40 DUP2 PUSH2 0x65 JUMP JUMPDEST POP PUSH1 0x1 DUP1 DUP1 SSTORE CALLER PUSH1 0x0 SWAP1 DUP2 MSTORE PUSH1 0x4 PUSH1 0x20 MSTORE PUSH1 0x40 SWAP1 KECCAK256 DUP1 SLOAD PUSH1 0xFF NOT AND SWAP1 SWAP2 OR SWAP1 SSTORE PUSH2 0xB5 JUMP JUMPDEST PUSH1 0x0 DUP1 SLOAD PUSH1 0x1 PUSH1 0x1 PUSH1 0xA0 SHL SUB DUP4 DUP2 AND PUSH1 0x1 PUSH1 0x1 PUSH1 0xA0 SHL SUB NOT DUP4 AND DUP2 OR DUP5 SSTORE PUSH1 0x40 MLOAD SWAP2 SWAP1 SWAP3 AND SWAP3 DUP4 SWAP2 PUSH32 0x8BE0079C531659141344CD1FD0A4F28419497F9722A3DAAFE3B4186F6B6457E0 SWAP2 SWAP1 LOG3 POP POP JUMP JUMPDEST PUSH2 0x16CD DUP1 PUSH2 0xC4 PUSH1 0x0 CODECOPY PUSH1 0x0 RETURN INVALID PUSH1 0x80 PUSH1 0x40 MSTORE CALLVALUE DUP1 ISZERO PUSH2 0x10 JUMPI PUSH1 0x0 DUP1 REVERT JUMPDEST POP PUSH1 0x4 CALLDATASIZE LT PUSH2 0xF5 JUMPI PUSH1 0x0 CALLDATALOAD PUSH1 0xE0 SHR DUP1 PUSH4 0x7AF33F2E GT PUSH2 0x97 JUMPI DUP1 PUSH4 0xC2411DAB GT PUSH2 0x66 JUMPI DUP1 PUSH4 0xC2411DAB EQ PUSH2 0x1FB JUMPI DUP1 PUSH4 0xCA2DFD0A EQ PUSH2 0x21B JUMPI DUP1 PUSH4 0xD4F910A7 EQ PUSH2 0x22E JUMPI DUP1 PUSH4 0xF2FDE38B EQ PUSH2 0x254 JUMPI PUSH1 0x0 DUP1 REVERT JUMPDEST DUP1 PUSH4 0x7AF33F2E EQ PUSH2 0x199 JUMPI DUP1 PUSH4 0x8DA5CB5B EQ PUSH2 0x1C4 JUMPI DUP1 PUSH4 0x9000B3D6 EQ PUSH2 0x1D5 JUMPI DUP1 PUSH4 0x9DB51D82 EQ PUSH2 0x1E8 JUMPI PUSH1 0x0 DUP1 REVERT JUMPDEST DUP1 PUSH4 0x308CDC39 GT PUSH2 0xD3 JUMPI DUP1 PUSH4 0x308CDC39 EQ PUSH2 0x148 JUMPI DUP1 PUSH4 0x64F0A39F EQ PUSH2 0x15B JUMPI DUP1 PUSH4 0x6C824487 EQ PUSH2 0x16E JUMPI DUP1 PUSH4 0x715018A6 EQ PUSH2 0x191 JUMPI PUSH1 0x0 DUP1 REVERT JUMPDEST DUP1 PUSH4 0x1105A5EB EQ PUSH2 0xFA JUMPI DUP1 PUSH4 0x1E4C9358 EQ PUSH2 0x10F JUMPI DUP1 PUSH4 0x2E3B3268 EQ PUSH2 0x125 JUMPI JUMPDEST PUSH1 0x0 DUP1 REVERT JUMPDEST PUSH2 0x10D PUSH2 0x108 CALLDATASIZE PUSH1 0x4 PUSH2 0x11B8 JUMP JUMPDEST PUSH2 0x267 JUMP JUMPDEST STOP JUMPDEST PUSH1 0x5 SLOAD PUSH1 0x40 MLOAD SWAP1 DUP2 MSTORE PUSH1 0x20 ADD JUMPDEST PUSH1 0x40 MLOAD DUP1 SWAP2 SUB SWAP1 RETURN JUMPDEST PUSH2 0x138 PUSH2 0x133 CALLDATASIZE PUSH1 0x4 PUSH2 0x1240 JUMP JUMPDEST PUSH2 0x32D JUMP JUMPDEST PUSH1 0x40 MLOAD SWAP1 ISZERO ISZERO DUP2 MSTORE PUSH1 0x20 ADD PUSH2 0x11C JUMP JUMPDEST PUSH2 0x10D PUSH2 0x156 CALLDATASIZE PUSH1 0x4 PUSH2 0x1240 JUMP JUMPDEST PUSH2 0x35D JUMP JUMPDEST PUSH2 0x10D PUSH2 0x169 CALLDATASIZE PUSH1 0x4 PUSH2 0x1270 JUMP JUMPDEST PUSH2 0x4EA JUMP JUMPDEST PUSH2 0x138 PUSH2 0x17C CALLDATASIZE PUSH1 0x4 PUSH2 0x1240 JUMP JUMPDEST PUSH1 0x4 PUSH1 0x20 MSTORE PUSH1 0x0 SWAP1 DUP2 MSTORE PUSH1 0x40 SWAP1 KECCAK256 SLOAD PUSH1 0xFF AND DUP2 JUMP JUMPDEST PUSH2 0x10D PUSH2 0x804 JUMP JUMPDEST PUSH2 0x1AC PUSH2 0x1A7 CALLDATASIZE PUSH1 0x4 PUSH2 0x131D JUMP JUMPDEST PUSH2 0x818 JUMP JUMPDEST PUSH1 0x40 MLOAD PUSH1 0x1 PUSH1 0x1 PUSH1 0xA0 SHL SUB SWAP1 SWAP2 AND DUP2 MSTORE PUSH1 0x20 ADD PUSH2 0x11C JUMP JUMPDEST PUSH1 0x0 SLOAD PUSH1 0x1 PUSH1 0x1 PUSH1 0xA0 SHL SUB AND PUSH2 0x1AC JUMP JUMPDEST PUSH2 0x10D PUSH2 0x1E3 CALLDATASIZE PUSH1 0x4 PUSH2 0x1240 JUMP JUMPDEST PUSH2 0x842 JUMP JUMPDEST PUSH2 0x1AC PUSH2 0x1F6 CALLDATASIZE PUSH1 0x4 PUSH2 0x1336 JUMP JUMPDEST PUSH2 0x950 JUMP JUMPDEST PUSH2 0x20E PUSH2 0x209 CALLDATASIZE PUSH1 0x4 PUSH2 0x1240 JUMP JUMPDEST PUSH2 0x981 JUMP JUMPDEST PUSH1 0x40 MLOAD PUSH2 0x11C SWAP2 SWAP1 PUSH2 0x13C3 JUMP JUMPDEST PUSH2 0x10D PUSH2 0x229 CALLDATASIZE PUSH1 0x4 PUSH2 0x1240 JUMP JUMPDEST PUSH2 0xCB2 JUMP JUMPDEST PUSH2 0x241 PUSH2 0x23C CALLDATASIZE PUSH1 0x4 PUSH2 0x1240 JUMP JUMPDEST PUSH2 0xDC7 JUMP JUMPDEST PUSH1 0x40 MLOAD PUSH2 0x11C SWAP8 SWAP7 SWAP6 SWAP5 SWAP4 SWAP3 SWAP2 SWAP1 PUSH2 0x1474 JUMP JUMPDEST PUSH2 0x10D PUSH2 0x262 CALLDATASIZE PUSH1 0x4 PUSH2 0x1240 JUMP JUMPDEST PUSH2 0x1030 JUMP JUMPDEST CALLER PUSH1 0x0 DUP2 DUP2 MSTORE PUSH1 0x2 PUSH1 0x20 MSTORE PUSH1 0x40 DUP2 KECCAK256 DUP1 SLOAD PUSH2 0x281 SWAP1 PUSH2 0x14EA JUMP JUMPDEST SWAP1 POP GT PUSH2 0x2A9 JUMPI PUSH1 0x40 MLOAD PUSH3 0x461BCD PUSH1 0xE5 SHL DUP2 MSTORE PUSH1 0x4 ADD PUSH2 0x2A0 SWAP1 PUSH2 0x151E JUMP JUMPDEST PUSH1 0x40 MLOAD DUP1 SWAP2 SUB SWAP1 REVERT JUMPDEST PUSH1 0x0 DUP5 MLOAD GT PUSH2 0x2EA JUMPI PUSH1 0x40 MLOAD PUSH3 0x461BCD PUSH1 0xE5 SHL DUP2 MSTORE PUSH1 0x20 PUSH1 0x4 DUP3 ADD MSTORE PUSH1 0xD PUSH1 0x24 DUP3 ADD MSTORE PUSH13 0x13985B59481C995C5D5A5C9959 PUSH1 0x9A SHL PUSH1 0x44 DUP3 ADD MSTORE PUSH1 0x64 ADD PUSH2 0x2A0 JUMP JUMPDEST CALLER PUSH1 0x0 SWAP1 DUP2 MSTORE PUSH1 0x2 PUSH1 0x20 MSTORE PUSH1 0x40 SWAP1 KECCAK256 PUSH1 0x1 DUP2 ADD PUSH2 0x307 DUP7 DUP3 PUSH2 0x1599 JUMP JUMPDEST POP PUSH1 0x2 DUP2 ADD PUSH2 0x316 DUP6 DUP3 PUSH2 0x1599 JUMP JUMPDEST POP PUSH1 0x3 DUP2 ADD PUSH2 0x325 DUP5 DUP3 PUSH2 0x1599 JUMP JUMPDEST POP POP POP POP POP POP JUMP JUMPDEST PUSH1 0x1 PUSH1 0x1 PUSH1 0xA0 SHL SUB DUP2 AND PUSH1 0x0 SWAP1 DUP2 MSTORE PUSH1 0x2 PUSH1 0x20 MSTORE PUSH1 0x40 DUP2 KECCAK256 DUP1 SLOAD DUP3 SWAP2 SWAP1 PUSH2 0x353 SWAP1 PUSH2 0x14EA JUMP JUMPDEST SWAP1 POP GT SWAP1 POP SWAP2 SWAP1 POP JUMP JUMPDEST CALLER PUSH1 0x0 SWAP1 DUP2 MSTORE PUSH1 0x4 PUSH1 0x20 MSTORE PUSH1 0x40 SWAP1 KECCAK256 SLOAD PUSH1 0xFF AND DUP1 PUSH2 0x385 JUMPI POP PUSH1 0x0 SLOAD PUSH1 0x1 PUSH1 0x1 PUSH1 0xA0 SHL SUB AND CALLER EQ JUMPDEST PUSH2 0x3D1 JUMPI PUSH1 0x40 MLOAD PUSH3 0x461BCD PUSH1 0xE5 SHL DUP2 MSTORE PUSH1 0x20 PUSH1 0x4 DUP3 ADD MSTORE PUSH1 0x17 PUSH1 0x24 DUP3 ADD MSTORE PUSH32 0x4E6F7420617574686F72697A6564207665726966696572000000000000000000 PUSH1 0x44 DUP3 ADD MSTORE PUSH1 0x64 ADD PUSH2 0x2A0 JUMP JUMPDEST PUSH1 0x1 PUSH1 0x1 PUSH1 0xA0 SHL SUB DUP2 AND PUSH1 0x0 SWAP1 DUP2 MSTORE PUSH1 0x2 PUSH1 0x20 MSTORE PUSH1 0x40 DUP2 KECCAK256 DUP1 SLOAD DUP4 SWAP3 SWAP2 SWAP1 PUSH2 0x3F8 SWAP1 PUSH2 0x14EA JUMP JUMPDEST SWAP1 POP GT PUSH2 0x417 JUMPI PUSH1 0x40 MLOAD PUSH3 0x461BCD PUSH1 0xE5 SHL DUP2 MSTORE PUSH1 0x4 ADD PUSH2 0x2A0 SWAP1 PUSH2 0x151E JUMP JUMPDEST PUSH1 0x1 PUSH1 0x1 PUSH1 0xA0 SHL SUB DUP3 AND PUSH1 0x0 SWAP1 DUP2 MSTORE PUSH1 0x2 PUSH1 0x20 MSTORE PUSH1 0x40 SWAP1 KECCAK256 PUSH1 0x4 ADD SLOAD PUSH1 0xFF AND ISZERO PUSH2 0x483 JUMPI PUSH1 0x40 MLOAD PUSH3 0x461BCD PUSH1 0xE5 SHL DUP2 MSTORE PUSH1 0x20 PUSH1 0x4 DUP3 ADD MSTORE PUSH1 0x18 PUSH1 0x24 DUP3 ADD MSTORE PUSH32 0x436974697A656E20616C72656164792076657269666965640000000000000000 PUSH1 0x44 DUP3 ADD MSTORE PUSH1 0x64 ADD PUSH2 0x2A0 JUMP JUMPDEST PUSH1 0x1 PUSH1 0x1 PUSH1 0xA0 SHL SUB DUP3 AND PUSH1 0x0 DUP2 DUP2 MSTORE PUSH1 0x2 PUSH1 0x20 MSTORE PUSH1 0x40 SWAP1 DUP2 SWAP1 KECCAK256 PUSH1 0x4 ADD DUP1 SLOAD PUSH1 0xFF NOT AND PUSH1 0x1 OR SWAP1 SSTORE MLOAD CALLER SWAP2 SWAP1 PUSH32 0x444796C7F0646B3525D67B6A35126418A5D4ED3F672DBEB2F815A18A88253A2C SWAP1 PUSH2 0x4DE SWAP1 TIMESTAMP DUP2 MSTORE PUSH1 0x20 ADD SWAP1 JUMP JUMPDEST PUSH1 0x40 MLOAD DUP1 SWAP2 SUB SWAP1 LOG3 POP POP JUMP JUMPDEST PUSH2 0x4F2 PUSH2 0x106E JUMP JUMPDEST PUSH1 0x0 DUP5 MLOAD GT PUSH2 0x53A JUMPI PUSH1 0x40 MLOAD PUSH3 0x461BCD PUSH1 0xE5 SHL DUP2 MSTORE PUSH1 0x20 PUSH1 0x4 DUP3 ADD MSTORE PUSH1 0x14 PUSH1 0x24 DUP3 ADD MSTORE PUSH20 0x1058591A185C881A185CDA081C995C5D5A5C9959 PUSH1 0x62 SHL PUSH1 0x44 DUP3 ADD MSTORE PUSH1 0x64 ADD PUSH2 0x2A0 JUMP JUMPDEST PUSH1 0x0 DUP4 MLOAD GT PUSH2 0x57B JUMPI PUSH1 0x40 MLOAD PUSH3 0x461BCD PUSH1 0xE5 SHL DUP2 MSTORE PUSH1 0x20 PUSH1 0x4 DUP3 ADD MSTORE PUSH1 0xD PUSH1 0x24 DUP3 ADD MSTORE PUSH13 0x13985B59481C995C5D5A5C9959 PUSH1 0x9A SHL PUSH1 0x44 DUP3 ADD MSTORE PUSH1 0x64 ADD PUSH2 0x2A0 JUMP JUMPDEST CALLER PUSH1 0x0 SWAP1 DUP2 MSTORE PUSH1 0x2 PUSH1 0x20 MSTORE PUSH1 0x40 SWAP1 KECCAK256 DUP1 SLOAD PUSH2 0x595 SWAP1 PUSH2 0x14EA JUMP JUMPDEST ISZERO SWAP1 POP PUSH2 0x5E4 JUMPI PUSH1 0x40 MLOAD PUSH3 0x461BCD PUSH1 0xE5 SHL DUP2 MSTORE PUSH1 0x20 PUSH1 0x4 DUP3 ADD MSTORE PUSH1 0x1A PUSH1 0x24 DUP3 ADD MSTORE PUSH32 0x436974697A656E20616C72656164792072656769737465726564000000000000 PUSH1 0x44 DUP3 ADD MSTORE PUSH1 0x64 ADD PUSH2 0x2A0 JUMP JUMPDEST PUSH1 0x0 PUSH1 0x1 PUSH1 0x1 PUSH1 0xA0 SHL SUB AND PUSH1 0x3 DUP6 PUSH1 0x40 MLOAD PUSH2 0x5FF SWAP2 SWAP1 PUSH2 0x1659 JUMP JUMPDEST SWAP1 DUP2 MSTORE PUSH1 0x40 MLOAD SWAP1 DUP2 SWAP1 SUB PUSH1 0x20 ADD SWAP1 KECCAK256 SLOAD PUSH1 0x1 PUSH1 0x1 PUSH1 0xA0 SHL SUB AND EQ PUSH2 0x665 JUMPI PUSH1 0x40 MLOAD PUSH3 0x461BCD PUSH1 0xE5 SHL DUP2 MSTORE PUSH1 0x20 PUSH1 0x4 DUP3 ADD MSTORE PUSH1 0x19 PUSH1 0x24 DUP3 ADD MSTORE PUSH32 0x41616468617220616C7265616479207265676973746572656400000000000000 PUSH1 0x44 DUP3 ADD MSTORE PUSH1 0x64 ADD PUSH2 0x2A0 JUMP JUMPDEST PUSH1 0x40 DUP1 MLOAD PUSH1 0xE0 DUP2 ADD DUP3 MSTORE DUP6 DUP2 MSTORE PUSH1 0x20 DUP1 DUP3 ADD DUP7 SWAP1 MSTORE DUP2 DUP4 ADD DUP6 SWAP1 MSTORE PUSH1 0x60 DUP3 ADD DUP5 SWAP1 MSTORE PUSH1 0x0 PUSH1 0x80 DUP4 ADD DUP2 SWAP1 MSTORE TIMESTAMP PUSH1 0xA0 DUP5 ADD MSTORE CALLER PUSH1 0xC0 DUP5 ADD DUP2 SWAP1 MSTORE DUP2 MSTORE PUSH1 0x2 SWAP1 SWAP2 MSTORE SWAP2 SWAP1 SWAP2 KECCAK256 DUP2 MLOAD DUP2 SWAP1 PUSH2 0x6B7 SWAP1 DUP3 PUSH2 0x1599 JUMP JUMPDEST POP PUSH1 0x20 DUP3 ADD MLOAD PUSH1 0x1 DUP3 ADD SWAP1 PUSH2 0x6CC SWAP1 DUP3 PUSH2 0x1599 JUMP JUMPDEST POP PUSH1 0x40 DUP3 ADD MLOAD PUSH1 0x2 DUP3 ADD SWAP1 PUSH2 0x6E1 SWAP1 DUP3 PUSH2 0x1599 JUMP JUMPDEST POP PUSH1 0x60 DUP3 ADD MLOAD PUSH1 0x3 DUP3 ADD SWAP1 PUSH2 0x6F6 SWAP1 DUP3 PUSH2 0x1599 JUMP JUMPDEST POP PUSH1 0x80 DUP3 ADD MLOAD PUSH1 0x4 DUP3 ADD DUP1 SLOAD PUSH1 0xFF NOT AND SWAP2 ISZERO ISZERO SWAP2 SWAP1 SWAP2 OR SWAP1 SSTORE PUSH1 0xA0 DUP3 ADD MLOAD PUSH1 0x5 DUP3 ADD SSTORE PUSH1 0xC0 SWAP1 SWAP2 ADD MLOAD PUSH1 0x6 SWAP1 SWAP2 ADD DUP1 SLOAD PUSH1 0x1 PUSH1 0x1 PUSH1 0xA0 SHL SUB NOT AND PUSH1 0x1 PUSH1 0x1 PUSH1 0xA0 SHL SUB SWAP1 SWAP3 AND SWAP2 SWAP1 SWAP2 OR SWAP1 SSTORE PUSH1 0x40 MLOAD CALLER SWAP1 PUSH1 0x3 SWAP1 PUSH2 0x754 SWAP1 DUP8 SWAP1 PUSH2 0x1659 JUMP JUMPDEST SWAP1 DUP2 MSTORE PUSH1 0x40 MLOAD SWAP1 DUP2 SWAP1 SUB PUSH1 0x20 ADD DUP2 KECCAK256 DUP1 SLOAD PUSH1 0x1 PUSH1 0x1 PUSH1 0xA0 SHL SUB SWAP4 SWAP1 SWAP4 AND PUSH1 0x1 PUSH1 0x1 PUSH1 0xA0 SHL SUB NOT SWAP4 DUP5 AND OR SWAP1 SSTORE PUSH1 0x5 DUP1 SLOAD PUSH1 0x1 DUP2 ADD DUP3 SSTORE PUSH1 0x0 SWAP2 SWAP1 SWAP2 MSTORE PUSH32 0x36B6384B5ECA791C62761152D0C79BB0604C104A5FB6F4EB0703F3154BB3DB0 ADD DUP1 SLOAD SWAP1 SWAP3 AND CALLER SWAP1 DUP2 OR SWAP1 SWAP3 SSTORE PUSH32 0x754530224C6D5F086F90F1DDC12AD49176B37C5EC426819AC61035F9427FD2DF SWAP1 PUSH2 0x7ED SWAP1 DUP7 SWAP1 TIMESTAMP SWAP1 PUSH2 0x1675 JUMP JUMPDEST PUSH1 0x40 MLOAD DUP1 SWAP2 SUB SWAP1 LOG2 PUSH2 0x7FE PUSH1 0x1 DUP1 SSTORE JUMP JUMPDEST POP POP POP POP JUMP JUMPDEST PUSH2 0x80C PUSH2 0x1098 JUMP JUMPDEST PUSH2 0x816 PUSH1 0x0 PUSH2 0x10C5 JUMP JUMPDEST JUMP JUMPDEST PUSH1 0x5 DUP2 DUP2 SLOAD DUP2 LT PUSH2 0x828 JUMPI PUSH1 0x0 DUP1 REVERT JUMPDEST PUSH1 0x0 SWAP2 DUP3 MSTORE PUSH1 0x20 SWAP1 SWAP2 KECCAK256 ADD SLOAD PUSH1 0x1 PUSH1 0x1 PUSH1 0xA0 SHL SUB AND SWAP1 POP DUP2 JUMP JUMPDEST PUSH2 0x84A PUSH2 0x1098 JUMP JUMPDEST PUSH1 0x1 PUSH1 0x1 PUSH1 0xA0 SHL SUB DUP2 AND PUSH2 0x892 JUMPI PUSH1 0x40 MLOAD PUSH3 0x461BCD PUSH1 0xE5 SHL DUP2 MSTORE PUSH1 0x20 PUSH1 0x4 DUP3 ADD MSTORE PUSH1 0xF PUSH1 0x24 DUP3 ADD MSTORE PUSH15 0x496E76616C69642061646472657373 PUSH1 0x88 SHL PUSH1 0x44 DUP3 ADD MSTORE PUSH1 0x64 ADD PUSH2 0x2A0 JUMP JUMPDEST PUSH1 0x1 PUSH1 0x1 PUSH1 0xA0 SHL SUB DUP2 AND PUSH1 0x0 SWAP1 DUP2 MSTORE PUSH1 0x4 PUSH1 0x20 MSTORE PUSH1 0x40 SWAP1 KECCAK256 SLOAD PUSH1 0xFF AND ISZERO PUSH2 0x8F0 JUMPI PUSH1 0x40 MLOAD PUSH3 0x461BCD PUSH1 0xE5 SHL DUP2 MSTORE PUSH1 0x20 PUSH1 0x4 DUP3 ADD MSTORE PUSH1 0x12 PUSH1 0x24 DUP3 ADD MSTORE PUSH18 0x20B63932B0B23C9030903B32B934B334B2B9 PUSH1 0x71 SHL PUSH1 0x44 DUP3 ADD MSTORE PUSH1 0x64 ADD PUSH2 0x2A0 JUMP JUMPDEST PUSH1 0x1 PUSH1 0x1 PUSH1 0xA0 SHL SUB DUP2 AND PUSH1 0x0 DUP2 DUP2 MSTORE PUSH1 0x4 PUSH1 0x20 MSTORE PUSH1 0x40 SWAP1 DUP2 SWAP1 KECCAK256 DUP1 SLOAD PUSH1 0xFF NOT AND PUSH1 0x1 OR SWAP1 SSTORE MLOAD PUSH32 0xE0AF945FA32F33B1AC2E98B37CF8768D434DEC2F25ACCD97306A26EF6A777750 SWAP1 PUSH2 0x945 SWAP1 TIMESTAMP DUP2 MSTORE PUSH1 0x20 ADD SWAP1 JUMP JUMPDEST PUSH1 0x40 MLOAD DUP1 SWAP2 SUB SWAP1 LOG2 POP JUMP JUMPDEST PUSH1 0x0 PUSH1 0x3 DUP3 PUSH1 0x40 MLOAD PUSH2 0x962 SWAP2 SWAP1 PUSH2 0x1659 JUMP JUMPDEST SWAP1 DUP2 MSTORE PUSH1 0x40 MLOAD SWAP1 DUP2 SWAP1 SUB PUSH1 0x20 ADD SWAP1 KECCAK256 SLOAD PUSH1 0x1 PUSH1 0x1 PUSH1 0xA0 SHL SUB AND SWAP3 SWAP2 POP POP JUMP JUMPDEST PUSH2 0x9CC PUSH1 0x40 MLOAD DUP1 PUSH1 0xE0 ADD PUSH1 0x40 MSTORE DUP1 PUSH1 0x60 DUP2 MSTORE PUSH1 0x20 ADD PUSH1 0x60 DUP2 MSTORE PUSH1 0x20 ADD PUSH1 0x60 DUP2 MSTORE PUSH1 0x20 ADD PUSH1 0x60 DUP2 MSTORE PUSH1 0x20 ADD PUSH1 0x0 ISZERO ISZERO DUP2 MSTORE PUSH1 0x20 ADD PUSH1 0x0 DUP2 MSTORE PUSH1 0x20 ADD PUSH1 0x0 PUSH1 0x1 PUSH1 0x1 PUSH1 0xA0 SHL SUB AND DUP2 MSTORE POP SWAP1 JUMP JUMPDEST PUSH1 0x1 PUSH1 0x1 PUSH1 0xA0 SHL SUB DUP3 AND PUSH1 0x0 SWAP1 DUP2 MSTORE PUSH1 0x2 PUSH1 0x20 MSTORE PUSH1 0x40 DUP2 KECCAK256 DUP1 SLOAD DUP5 SWAP3 SWAP2 SWAP1 PUSH2 0x9F3 SWAP1 PUSH2 0x14EA JUMP JUMPDEST SWAP1 POP GT PUSH2 0xA12 JUMPI PUSH1 0x40 MLOAD PUSH3 0x461BCD PUSH1 0xE5 SHL DUP2 MSTORE PUSH1 0x4 ADD PUSH2 0x2A0 SWAP1 PUSH2 0x151E JUMP JUMPDEST PUSH1 0x1 PUSH1 0x1 PUSH1 0xA0 SHL SUB DUP4 AND PUSH1 0x0 SWAP1 DUP2 MSTORE PUSH1 0x2 PUSH1 0x20 MSTORE PUSH1 0x40 SWAP1 DUP2 SWAP1 KECCAK256 DUP2 MLOAD PUSH1 0xE0 DUP2 ADD SWAP1 SWAP3 MSTORE DUP1 SLOAD DUP3 SWAP1 DUP3 SWAP1 PUSH2 0xA44 SWAP1 PUSH2 0x14EA JUMP JUMPDEST DUP1 PUSH1 0x1F ADD PUSH1 0x20 DUP1 SWAP2 DIV MUL PUSH1 0x20 ADD PUSH1 0x40 MLOAD SWAP1 DUP2 ADD PUSH1 0x40 MSTORE DUP1 SWAP3 SWAP2 SWAP1 DUP2 DUP2 MSTORE PUSH1 0x20 ADD DUP3 DUP1 SLOAD PUSH2 0xA70 SWAP1 PUSH2 0x14EA JUMP JUMPDEST DUP1 ISZERO PUSH2 0xABD JUMPI DUP1 PUSH1 0x1F LT PUSH2 0xA92 JUMPI PUSH2 0x100 DUP1 DUP4 SLOAD DIV MUL DUP4 MSTORE SWAP2 PUSH1 0x20 ADD SWAP2 PUSH2 0xABD JUMP JUMPDEST DUP3 ADD SWAP2 SWAP1 PUSH1 0x0 MSTORE PUSH1 0x20 PUSH1 0x0 KECCAK256 SWAP1 JUMPDEST DUP2 SLOAD DUP2 MSTORE SWAP1 PUSH1 0x1 ADD SWAP1 PUSH1 0x20 ADD DUP1 DUP4 GT PUSH2 0xAA0 JUMPI DUP3 SWAP1 SUB PUSH1 0x1F AND DUP3 ADD SWAP2 JUMPDEST POP POP POP POP POP DUP2 MSTORE PUSH1 0x20 ADD PUSH1 0x1 DUP3 ADD DUP1 SLOAD PUSH2 0xAD6 SWAP1 PUSH2 0x14EA JUMP JUMPDEST DUP1 PUSH1 0x1F ADD PUSH1 0x20 DUP1 SWAP2 DIV MUL PUSH1 0x20 ADD PUSH1 0x40 MLOAD SWAP1 DUP2 ADD PUSH1 0x40 MSTORE DUP1 SWAP3 SWAP2 SWAP1 DUP2 DUP2 MSTORE PUSH1 0x20 ADD DUP3 DUP1 SLOAD PUSH2 0xB02 SWAP1 PUSH2 0x14EA JUMP JUMPDEST DUP1 ISZERO PUSH2 0xB4F JUMPI DUP1 PUSH1 0x1F LT PUSH2 0xB24 JUMPI PUSH2 0x100 DUP1 DUP4 SLOAD DIV MUL DUP4 MSTORE SWAP2 PUSH1 0x20 ADD SWAP2 PUSH2 0xB4F JUMP JUMPDEST DUP3 ADD SWAP2 SWAP1 PUSH1 0x0 MSTORE PUSH1 0x20 PUSH1 0x0 KECCAK256 SWAP1 JUMPDEST DUP2 SLOAD DUP2 MSTORE SWAP1 PUSH1 0x1 ADD SWAP1 PUSH1 0x20 ADD DUP1 DUP4 GT PUSH2 0xB32 JUMPI DUP3 SWAP1 SUB PUSH1 0x1F AND DUP3 ADD SWAP2 JUMPDEST POP POP POP POP POP DUP2 MSTORE PUSH1 0x20 ADD PUSH1 0x2 DUP3 ADD DUP1 SLOAD PUSH2 0xB68 SWAP1 PUSH2 0x14EA JUMP JUMPDEST DUP1 PUSH1 0x1F ADD PUSH1 0x20 DUP1 SWAP2 DIV MUL PUSH1 0x20 ADD PUSH1 0x40 MLOAD SWAP1 DUP2 ADD PUSH1 0x40 MSTORE DUP1 SWAP3 SWAP2 SWAP1 DUP2 DUP2 MSTORE PUSH1 0x20 ADD DUP3 DUP1 SLOAD PUSH2 0xB94 SWAP1 PUSH2 0x14EA JUMP JUMPDEST DUP1 ISZERO PUSH2 0xBE1 JUMPI DUP1 PUSH1 0x1F LT PUSH2 0xBB6 JUMPI PUSH2 0x100 DUP1 DUP4 SLOAD DIV MUL DUP4 MSTORE SWAP2 PUSH1 0x20 ADD SWAP2 PUSH2 0xBE1 JUMP JUMPDEST DUP3 ADD SWAP2 SWAP1 PUSH1 0x0 MSTORE PUSH1 0x20 PUSH1 0x0 KECCAK256 SWAP1 JUMPDEST DUP2 SLOAD DUP2 MSTORE SWAP1 PUSH1 0x1 ADD SWAP1 PUSH1 0x20 ADD DUP1 DUP4 GT PUSH2 0xBC4 JUMPI DUP3 SWAP1 SUB PUSH1 0x1F AND DUP3 ADD SWAP2 JUMPDEST POP POP POP POP POP DUP2 MSTORE PUSH1 0x20 ADD PUSH1 0x3 DUP3 ADD DUP1 SLOAD PUSH2 0xBFA SWAP1 PUSH2 0x14EA JUMP JUMPDEST DUP1 PUSH1 0x1F ADD PUSH1 0x20 DUP1 SWAP2 DIV MUL PUSH1 0x20 ADD PUSH1 0x40 MLOAD SWAP1 DUP2 ADD PUSH1 0x40 MSTORE DUP1 SWAP3 SWAP2 SWAP1 DUP2 DUP2 MSTORE PUSH1 0x20 ADD DUP3 DUP1 SLOAD PUSH2 0xC26 SWAP1 PUSH2 0x14EA JUMP JUMPDEST DUP1 ISZERO PUSH2 0xC73 JUMPI DUP1 PUSH1 0x1F LT PUSH2 0xC48 JUMPI PUSH2 0x100 DUP1 DUP4 SLOAD DIV MUL DUP4 MSTORE SWAP2 PUSH1 0x20 ADD SWAP2 PUSH2 0xC73 JUMP JUMPDEST DUP3 ADD SWAP2 SWAP1 PUSH1 0x0 MSTORE PUSH1 0x20 PUSH1 0x0 KECCAK256 SWAP1 JUMPDEST DUP2 SLOAD DUP2 MSTORE SWAP1 PUSH1 0x1 ADD SWAP1 PUSH1 0x20 ADD DUP1 DUP4 GT PUSH2 0xC56 JUMPI DUP3 SWAP1 SUB PUSH1 0x1F AND DUP3 ADD SWAP2 JUMPDEST POP POP POP SWAP2 DUP4 MSTORE POP POP PUSH1 0x4 DUP3 ADD SLOAD PUSH1 0xFF AND ISZERO ISZERO PUSH1 0x20 DUP3 ADD MSTORE PUSH1 0x5 DUP3 ADD SLOAD PUSH1 0x40 DUP3 ADD MSTORE PUSH1 0x6 SWAP1 SWAP2 ADD SLOAD PUSH1 0x1 PUSH1 0x1 PUSH1 0xA0 SHL SUB AND PUSH1 0x60 SWAP1 SWAP2 ADD MSTORE SWAP2 POP JUMPDEST POP SWAP2 SWAP1 POP JUMP JUMPDEST PUSH2 0xCBA PUSH2 0x1098 JUMP JUMPDEST PUSH1 0x1 PUSH1 0x1 PUSH1 0xA0 SHL SUB DUP2 AND PUSH1 0x0 SWAP1 DUP2 MSTORE PUSH1 0x4 PUSH1 0x20 MSTORE PUSH1 0x40 SWAP1 KECCAK256 SLOAD PUSH1 0xFF AND PUSH2 0xD13 JUMPI PUSH1 0x40 MLOAD PUSH3 0x461BCD PUSH1 0xE5 SHL DUP2 MSTORE PUSH1 0x20 PUSH1 0x4 DUP3 ADD MSTORE PUSH1 0xE PUSH1 0x24 DUP3 ADD MSTORE PUSH14 0x2737BA1030903B32B934B334B2B9 PUSH1 0x91 SHL PUSH1 0x44 DUP3 ADD MSTORE PUSH1 0x64 ADD PUSH2 0x2A0 JUMP JUMPDEST PUSH1 0x0 SLOAD PUSH1 0x1 PUSH1 0x1 PUSH1 0xA0 SHL SUB AND PUSH1 0x1 PUSH1 0x1 PUSH1 0xA0 SHL SUB AND DUP2 PUSH1 0x1 PUSH1 0x1 PUSH1 0xA0 SHL SUB AND SUB PUSH2 0xD75 JUMPI PUSH1 0x40 MLOAD PUSH3 0x461BCD PUSH1 0xE5 SHL DUP2 MSTORE PUSH1 0x20 PUSH1 0x4 DUP3 ADD MSTORE PUSH1 0x13 PUSH1 0x24 DUP3 ADD MSTORE PUSH19 0x21B0B73737BA103932B6B7BB329037BBB732B9 PUSH1 0x69 SHL PUSH1 0x44 DUP3 ADD MSTORE PUSH1 0x64 ADD PUSH2 0x2A0 JUMP JUMPDEST PUSH1 0x1 PUSH1 0x1 PUSH1 0xA0 SHL SUB DUP2 AND PUSH1 0x0 DUP2 DUP2 MSTORE PUSH1 0x4 PUSH1 0x20 MSTORE PUSH1 0x40 SWAP1 DUP2 SWAP1 KECCAK256 DUP1 SLOAD PUSH1 0xFF NOT AND SWAP1 SSTORE MLOAD PUSH32 0x577461BDE9FD030EB8B2941145223AF9676A2DFAE0F7C7D2456D7BE21573A118 SWAP1 PUSH2 0x945 SWAP1 TIMESTAMP DUP2 MSTORE PUSH1 0x20 ADD SWAP1 JUMP JUMPDEST PUSH1 0x2 PUSH1 0x20 MSTORE PUSH1 0x0 SWAP1 DUP2 MSTORE PUSH1 0x40 SWAP1 KECCAK256 DUP1 SLOAD DUP2 SWAP1 PUSH2 0xDE2 SWAP1 PUSH2 0x14EA JUMP JUMPDEST DUP1 PUSH1 0x1F ADD PUSH1 0x20 DUP1 SWAP2 DIV MUL PUSH1 0x20 ADD PUSH1 0x40 MLOAD SWAP1 DUP2 ADD PUSH1 0x40 MSTORE DUP1 SWAP3 SWAP2 SWAP1 DUP2 DUP2 MSTORE PUSH1 0x20 ADD DUP3 DUP1 SLOAD PUSH2 0xE0E SWAP1 PUSH2 0x14EA JUMP JUMPDEST DUP1 ISZERO PUSH2 0xE5B JUMPI DUP1 PUSH1 0x1F LT PUSH2 0xE30 JUMPI PUSH2 0x100 DUP1 DUP4 SLOAD DIV MUL DUP4 MSTORE SWAP2 PUSH1 0x20 ADD SWAP2 PUSH2 0xE5B JUMP JUMPDEST DUP3 ADD SWAP2 SWAP1 PUSH1 0x0 MSTORE PUSH1 0x20 PUSH1 0x0 KECCAK256 SWAP1 JUMPDEST DUP2 SLOAD DUP2 MSTORE SWAP1 PUSH1 0x1 ADD SWAP1 PUSH1 0x20 ADD DUP1 DUP4 GT PUSH2 0xE3E JUMPI DUP3 SWAP1 SUB PUSH1 0x1F AND DUP3 ADD SWAP2 JUMPDEST POP POP POP POP POP SWAP1 DUP1 PUSH1 0x1 ADD DUP1 SLOAD PUSH2 0xE70 SWAP1 PUSH2 0x14EA JUMP JUMPDEST DUP1 PUSH1 0x1F ADD PUSH1 0x20 DUP1 SWAP2 DIV MUL PUSH1 0x20 ADD PUSH1 0x40 MLOAD SWAP1 DUP2 ADD PUSH1 0x40 MSTORE DUP1 SWAP3 SWAP2 SWAP1 DUP2 DUP2 MSTORE PUSH1 0x20 ADD DUP3 DUP1 SLOAD PUSH2 0xE9C SWAP1 PUSH2 0x14EA JUMP JUMPDEST DUP1 ISZERO PUSH2 0xEE9 JUMPI DUP1 PUSH1 0x1F LT PUSH2 0xEBE JUMPI PUSH2 0x100 DUP1 DUP4 SLOAD DIV MUL DUP4 MSTORE SWAP2 PUSH1 0x20 ADD SWAP2 PUSH2 0xEE9 JUMP JUMPDEST DUP3 ADD SWAP2 SWAP1 PUSH1 0x0 MSTORE PUSH1 0x20 PUSH1 0x0 KECCAK256 SWAP1 JUMPDEST DUP2 SLOAD DUP2 MSTORE SWAP1 PUSH1 0x1 ADD SWAP1 PUSH1 0x20 ADD DUP1 DUP4 GT PUSH2 0xECC JUMPI DUP3 SWAP1 SUB PUSH1 0x1F AND DUP3 ADD SWAP2 JUMPDEST POP POP POP POP POP SWAP1 DUP1 PUSH1 0x2 ADD DUP1 SLOAD PUSH2 0xEFE SWAP1 PUSH2 0x14EA JUMP JUMPDEST DUP1 PUSH1 0x1F ADD PUSH1 0x20 DUP1 SWAP2 DIV MUL PUSH1 0x20 ADD PUSH1 0x40 MLOAD SWAP1 DUP2 ADD PUSH1 0x40 MSTORE DUP1 SWAP3 SWAP2 SWAP1 DUP2 DUP2 MSTORE PUSH1 0x20 ADD DUP3 DUP1 SLOAD PUSH2 0xF2A SWAP1 PUSH2 0x14EA JUMP JUMPDEST DUP1 ISZERO PUSH2 0xF77 JUMPI DUP1 PUSH1 0x1F LT PUSH2 0xF4C JUMPI PUSH2 0x100 DUP1 DUP4 SLOAD DIV MUL DUP4 MSTORE SWAP2 PUSH1 0x20 ADD SWAP2 PUSH2 0xF77 JUMP JUMPDEST DUP3 ADD SWAP2 SWAP1 PUSH1 0x0 MSTORE PUSH1 0x20 PUSH1 0x0 KECCAK256 SWAP1 JUMPDEST DUP2 SLOAD DUP2 MSTORE SWAP1 PUSH1 0x1 ADD SWAP1 PUSH1 0x20 ADD DUP1 DUP4 GT PUSH2 0xF5A JUMPI DUP3 SWAP1 SUB PUSH1 0x1F AND DUP3 ADD SWAP2 JUMPDEST POP POP POP POP POP SWAP1 DUP1 PUSH1 0x3 ADD DUP1 SLOAD PUSH2 0xF8C SWAP1 PUSH2 0x14EA JUMP JUMPDEST DUP1 PUSH1 0x1F ADD PUSH1 0x20 DUP1 SWAP2 DIV MUL PUSH1 0x20 ADD PUSH1 0x40 MLOAD SWAP1 DUP2 ADD PUSH1 0x40 MSTORE DUP1 SWAP3 SWAP2 SWAP1 DUP2 DUP2 MSTORE PUSH1 0x20 ADD DUP3 DUP1 SLOAD PUSH2 0xFB8 SWAP1 PUSH2 0x14EA JUMP JUMPDEST DUP1 ISZERO PUSH2 0x1005 JUMPI DUP1 PUSH1 0x1F LT PUSH2 0xFDA JUMPI PUSH2 0x100 DUP1 DUP4 SLOAD DIV MUL DUP4 MSTORE SWAP2 PUSH1 0x20 ADD SWAP2 PUSH2 0x1005 JUMP JUMPDEST DUP3 ADD SWAP2 SWAP1 PUSH1 0x0 MSTORE PUSH1 0x20 PUSH1 0x0 KECCAK256 SWAP1 JUMPDEST DUP2 SLOAD DUP2 MSTORE SWAP1 PUSH1 0x1 ADD SWAP1 PUSH1 0x20 ADD DUP1 DUP4 GT PUSH2 0xFE8 JUMPI DUP3 SWAP1 SUB PUSH1 0x1F AND DUP3 ADD SWAP2 JUMPDEST POP POP POP POP PUSH1 0x4 DUP4 ADD SLOAD PUSH1 0x5 DUP5 ADD SLOAD PUSH1 0x6 SWAP1 SWAP5 ADD SLOAD SWAP3 SWAP4 PUSH1 0xFF SWAP1 SWAP2 AND SWAP3 SWAP1 SWAP2 POP PUSH1 0x1 PUSH1 0x1 PUSH1 0xA0 SHL SUB AND DUP8 JUMP JUMPDEST PUSH2 0x1038 PUSH2 0x1098 JUMP JUMPDEST PUSH1 0x1 PUSH1 0x1 PUSH1 0xA0 SHL SUB DUP2 AND PUSH2 0x1062 JUMPI PUSH1 0x40 MLOAD PUSH4 0x1E4FBDF7 PUSH1 0xE0 SHL DUP2 MSTORE PUSH1 0x0 PUSH1 0x4 DUP3 ADD MSTORE PUSH1 0x24 ADD PUSH2 0x2A0 JUMP JUMPDEST PUSH2 0x106B DUP2 PUSH2 0x10C5 JUMP JUMPDEST POP JUMP JUMPDEST PUSH1 0x2 PUSH1 0x1 SLOAD SUB PUSH2 0x1091 JUMPI PUSH1 0x40 MLOAD PUSH4 0x3EE5AEB5 PUSH1 0xE0 SHL DUP2 MSTORE PUSH1 0x4 ADD PUSH1 0x40 MLOAD DUP1 SWAP2 SUB SWAP1 REVERT JUMPDEST PUSH1 0x2 PUSH1 0x1 SSTORE JUMP JUMPDEST PUSH1 0x0 SLOAD PUSH1 0x1 PUSH1 0x1 PUSH1 0xA0 SHL SUB AND CALLER EQ PUSH2 0x816 JUMPI PUSH1 0x40 MLOAD PUSH4 0x118CDAA7 PUSH1 0xE0 SHL DUP2 MSTORE CALLER PUSH1 0x4 DUP3 ADD MSTORE PUSH1 0x24 ADD PUSH2 0x2A0 JUMP JUMPDEST PUSH1 0x0 DUP1 SLOAD PUSH1 0x1 PUSH1 0x1 PUSH1 0xA0 SHL SUB DUP4 DUP2 AND PUSH1 0x1 PUSH1 0x1 PUSH1 0xA0 SHL SUB NOT DUP4 AND DUP2 OR DUP5 SSTORE PUSH1 0x40 MLOAD SWAP2 SWAP1 SWAP3 AND SWAP3 DUP4 SWAP2 PUSH32 0x8BE0079C531659141344CD1FD0A4F28419497F9722A3DAAFE3B4186F6B6457E0 SWAP2 SWAP1 LOG3 POP POP JUMP JUMPDEST PUSH4 0x4E487B71 PUSH1 0xE0 SHL PUSH1 0x0 MSTORE PUSH1 0x41 PUSH1 0x4 MSTORE PUSH1 0x24 PUSH1 0x0 REVERT JUMPDEST PUSH1 0x0 DUP3 PUSH1 0x1F DUP4 ADD SLT PUSH2 0x113C JUMPI PUSH1 0x0 DUP1 REVERT JUMPDEST DUP2 CALLDATALOAD PUSH8 0xFFFFFFFFFFFFFFFF DUP1 DUP3 GT ISZERO PUSH2 0x1157 JUMPI PUSH2 0x1157 PUSH2 0x1115 JUMP JUMPDEST PUSH1 0x40 MLOAD PUSH1 0x1F DUP4 ADD PUSH1 0x1F NOT SWAP1 DUP2 AND PUSH1 0x3F ADD AND DUP2 ADD SWAP1 DUP3 DUP3 GT DUP2 DUP4 LT OR ISZERO PUSH2 0x117F JUMPI PUSH2 0x117F PUSH2 0x1115 JUMP JUMPDEST DUP2 PUSH1 0x40 MSTORE DUP4 DUP2 MSTORE DUP7 PUSH1 0x20 DUP6 DUP9 ADD ADD GT ISZERO PUSH2 0x1198 JUMPI PUSH1 0x0 DUP1 REVERT JUMPDEST DUP4 PUSH1 0x20 DUP8 ADD PUSH1 0x20 DUP4 ADD CALLDATACOPY PUSH1 0x0 PUSH1 0x20 DUP6 DUP4 ADD ADD MSTORE DUP1 SWAP5 POP POP POP POP POP SWAP3 SWAP2 POP POP JUMP JUMPDEST PUSH1 0x0 DUP1 PUSH1 0x0 PUSH1 0x60 DUP5 DUP7 SUB SLT ISZERO PUSH2 0x11CD JUMPI PUSH1 0x0 DUP1 REVERT JUMPDEST DUP4 CALLDATALOAD PUSH8 0xFFFFFFFFFFFFFFFF DUP1 DUP3 GT ISZERO PUSH2 0x11E5 JUMPI PUSH1 0x0 DUP1 REVERT JUMPDEST PUSH2 0x11F1 DUP8 DUP4 DUP9 ADD PUSH2 0x112B JUMP JUMPDEST SWAP5 POP PUSH1 0x20 DUP7 ADD CALLDATALOAD SWAP2 POP DUP1 DUP3 GT ISZERO PUSH2 0x1207 JUMPI PUSH1 0x0 DUP1 REVERT JUMPDEST PUSH2 0x1213 DUP8 DUP4 DUP9 ADD PUSH2 0x112B JUMP JUMPDEST SWAP4 POP PUSH1 0x40 DUP7 ADD CALLDATALOAD SWAP2 POP DUP1 DUP3 GT ISZERO PUSH2 0x1229 JUMPI PUSH1 0x0 DUP1 REVERT JUMPDEST POP PUSH2 0x1236 DUP7 DUP3 DUP8 ADD PUSH2 0x112B JUMP JUMPDEST SWAP2 POP POP SWAP3 POP SWAP3 POP SWAP3 JUMP JUMPDEST PUSH1 0x0 PUSH1 0x20 DUP3 DUP5 SUB SLT ISZERO PUSH2 0x1252 JUMPI PUSH1 0x0 DUP1 REVERT JUMPDEST DUP2 CALLDATALOAD PUSH1 0x1 PUSH1 0x1 PUSH1 0xA0 SHL SUB DUP2 AND DUP2 EQ PUSH2 0x1269 JUMPI PUSH1 0x0 DUP1 REVERT JUMPDEST SWAP4 SWAP3 POP POP POP JUMP JUMPDEST PUSH1 0x0 DUP1 PUSH1 0x0 DUP1 PUSH1 0x80 DUP6 DUP8 SUB SLT ISZERO PUSH2 0x1286 JUMPI PUSH1 0x0 DUP1 REVERT JUMPDEST DUP5 CALLDATALOAD PUSH8 0xFFFFFFFFFFFFFFFF DUP1 DUP3 GT ISZERO PUSH2 0x129E JUMPI PUSH1 0x0 DUP1 REVERT JUMPDEST PUSH2 0x12AA DUP9 DUP4 DUP10 ADD PUSH2 0x112B JUMP JUMPDEST SWAP6 POP PUSH1 0x20 DUP8 ADD CALLDATALOAD SWAP2 POP DUP1 DUP3 GT ISZERO PUSH2 0x12C0 JUMPI PUSH1 0x0 DUP1 REVERT JUMPDEST PUSH2 0x12CC DUP9 DUP4 DUP10 ADD PUSH2 0x112B JUMP JUMPDEST SWAP5 POP PUSH1 0x40 DUP8 ADD CALLDATALOAD SWAP2 POP DUP1 DUP3 GT ISZERO PUSH2 0x12E2 JUMPI PUSH1 0x0 DUP1 REVERT JUMPDEST PUSH2 0x12EE DUP9 DUP4 DUP10 ADD PUSH2 0x112B JUMP JUMPDEST SWAP4 POP PUSH1 0x60 DUP8 ADD CALLDATALOAD SWAP2 POP DUP1 DUP3 GT ISZERO PUSH2 0x1304 JUMPI PUSH1 0x0 DUP1 REVERT JUMPDEST POP PUSH2 0x1311 DUP8 DUP3 DUP9 ADD PUSH2 0x112B JUMP JUMPDEST SWAP2 POP POP SWAP3 SWAP6 SWAP2 SWAP5 POP SWAP3 POP JUMP JUMPDEST PUSH1 0x0 PUSH1 0x20 DUP3 DUP5 SUB SLT ISZERO PUSH2 0x132F JUMPI PUSH1 0x0 DUP1 REVERT JUMPDEST POP CALLDATALOAD SWAP2 SWAP1 POP JUMP JUMPDEST PUSH1 0x0 PUSH1 0x20 DUP3 DUP5 SUB SLT ISZERO PUSH2 0x1348 JUMPI PUSH1 0x0 DUP1 REVERT JUMPDEST DUP2 CALLDATALOAD PUSH8 0xFFFFFFFFFFFFFFFF DUP2 GT ISZERO PUSH2 0x135F JUMPI PUSH1 0x0 DUP1 REVERT JUMPDEST PUSH2 0x136B DUP5 DUP3 DUP6 ADD PUSH2 0x112B JUMP JUMPDEST SWAP5 SWAP4 POP POP POP POP JUMP JUMPDEST PUSH1 0x0 JUMPDEST DUP4 DUP2 LT ISZERO PUSH2 0x138E JUMPI DUP2 DUP2 ADD MLOAD DUP4 DUP3 ADD MSTORE PUSH1 0x20 ADD PUSH2 0x1376 JUMP JUMPDEST POP POP PUSH1 0x0 SWAP2 ADD MSTORE JUMP JUMPDEST PUSH1 0x0 DUP2 MLOAD DUP1 DUP5 MSTORE PUSH2 0x13AF DUP2 PUSH1 0x20 DUP7 ADD PUSH1 0x20 DUP7 ADD PUSH2 0x1373 JUMP JUMPDEST PUSH1 0x1F ADD PUSH1 0x1F NOT AND SWAP3 SWAP1 SWAP3 ADD PUSH1 0x20 ADD SWAP3 SWAP2 POP POP JUMP JUMPDEST PUSH1 0x20 DUP2 MSTORE PUSH1 0x0 DUP3 MLOAD PUSH1 0xE0 PUSH1 0x20 DUP5 ADD MSTORE PUSH2 0x13E0 PUSH2 0x100 DUP5 ADD DUP3 PUSH2 0x1397 JUMP JUMPDEST SWAP1 POP PUSH1 0x20 DUP5 ADD MLOAD PUSH1 0x1F NOT DUP1 DUP6 DUP5 SUB ADD PUSH1 0x40 DUP7 ADD MSTORE PUSH2 0x13FE DUP4 DUP4 PUSH2 0x1397 JUMP JUMPDEST SWAP3 POP PUSH1 0x40 DUP7 ADD MLOAD SWAP2 POP DUP1 DUP6 DUP5 SUB ADD PUSH1 0x60 DUP7 ADD MSTORE PUSH2 0x141B DUP4 DUP4 PUSH2 0x1397 JUMP JUMPDEST SWAP3 POP PUSH1 0x60 DUP7 ADD MLOAD SWAP2 POP DUP1 DUP6 DUP5 SUB ADD PUSH1 0x80 DUP7 ADD MSTORE POP PUSH2 0x1439 DUP3 DUP3 PUSH2 0x1397 JUMP JUMPDEST SWAP2 POP POP PUSH1 0x80 DUP5 ADD MLOAD ISZERO ISZERO PUSH1 0xA0 DUP5 ADD MSTORE PUSH1 0xA0 DUP5 ADD MLOAD PUSH1 0xC0 DUP5 ADD MSTORE PUSH1 0xC0 DUP5 ADD MLOAD PUSH2 0x146C PUSH1 0xE0 DUP6 ADD DUP3 PUSH1 0x1 PUSH1 0x1 PUSH1 0xA0 SHL SUB AND SWAP1 MSTORE JUMP JUMPDEST POP SWAP4 SWAP3 POP POP POP JUMP JUMPDEST PUSH1 0xE0 DUP2 MSTORE PUSH1 0x0 PUSH2 0x1487 PUSH1 0xE0 DUP4 ADD DUP11 PUSH2 0x1397 JUMP JUMPDEST DUP3 DUP2 SUB PUSH1 0x20 DUP5 ADD MSTORE PUSH2 0x1499 DUP2 DUP11 PUSH2 0x1397 JUMP JUMPDEST SWAP1 POP DUP3 DUP2 SUB PUSH1 0x40 DUP5 ADD MSTORE PUSH2 0x14AD DUP2 DUP10 PUSH2 0x1397 JUMP JUMPDEST SWAP1 POP DUP3 DUP2 SUB PUSH1 0x60 DUP5 ADD MSTORE PUSH2 0x14C1 DUP2 DUP9 PUSH2 0x1397 JUMP JUMPDEST SWAP6 ISZERO ISZERO PUSH1 0x80 DUP5 ADD MSTORE POP POP PUSH1 0xA0 DUP2 ADD SWAP3 SWAP1 SWAP3 MSTORE PUSH1 0x1 PUSH1 0x1 PUSH1 0xA0 SHL SUB AND PUSH1 0xC0 SWAP1 SWAP2 ADD MSTORE SWAP5 SWAP4 POP POP POP POP JUMP JUMPDEST PUSH1 0x1 DUP2 DUP2 SHR SWAP1 DUP3 AND DUP1 PUSH2 0x14FE JUMPI PUSH1 0x7F DUP3 AND SWAP2 POP JUMPDEST PUSH1 0x20 DUP3 LT DUP2 SUB PUSH2 0xCAC JUMPI PUSH4 0x4E487B71 PUSH1 0xE0 SHL PUSH1 0x0 MSTORE PUSH1 0x22 PUSH1 0x4 MSTORE PUSH1 0x24 PUSH1 0x0 REVERT JUMPDEST PUSH1 0x20 DUP1 DUP3 MSTORE PUSH1 0x16 SWAP1 DUP3 ADD MSTORE PUSH22 0x10DA5D1A5E995B881B9BDD081C9959DA5CDD195C9959 PUSH1 0x52 SHL PUSH1 0x40 DUP3 ADD MSTORE PUSH1 0x60 ADD SWAP1 JUMP JUMPDEST PUSH1 0x1F DUP3 GT ISZERO PUSH2 0x1594 JUMPI PUSH1 0x0 DUP2 DUP2 MSTORE PUSH1 0x20 DUP2 KECCAK256 PUSH1 0x1F DUP6 ADD PUSH1 0x5 SHR DUP2 ADD PUSH1 0x20 DUP7 LT ISZERO PUSH2 0x1575 JUMPI POP DUP1 JUMPDEST PUSH1 0x1F DUP6 ADD PUSH1 0x5 SHR DUP3 ADD SWAP2 POP JUMPDEST DUP2 DUP2 LT ISZERO PUSH2 0x325 JUMPI DUP3 DUP2 SSTORE PUSH1 0x1 ADD PUSH2 0x1581 JUMP JUMPDEST POP POP POP JUMP JUMPDEST DUP2 MLOAD PUSH8 0xFFFFFFFFFFFFFFFF DUP2 GT ISZERO PUSH2 0x15B3 JUMPI PUSH2 0x15B3 PUSH2 0x1115 JUMP JUMPDEST PUSH2 0x15C7 DUP2 PUSH2 0x15C1 DUP5 SLOAD PUSH2 0x14EA JUMP JUMPDEST DUP5 PUSH2 0x154E JUMP JUMPDEST PUSH1 0x20 DUP1 PUSH1 0x1F DUP4 GT PUSH1 0x1 DUP2 EQ PUSH2 0x15FC JUMPI PUSH1 0x0 DUP5 ISZERO PUSH2 0x15E4 JUMPI POP DUP6 DUP4 ADD MLOAD JUMPDEST PUSH1 0x0 NOT PUSH1 0x3 DUP7 SWAP1 SHL SHR NOT AND PUSH1 0x1 DUP6 SWAP1 SHL OR DUP6 SSTORE PUSH2 0x325 JUMP JUMPDEST PUSH1 0x0 DUP6 DUP2 MSTORE PUSH1 0x20 DUP2 KECCAK256 PUSH1 0x1F NOT DUP7 AND SWAP2 JUMPDEST DUP3 DUP2 LT ISZERO PUSH2 0x162B JUMPI DUP9 DUP7 ADD MLOAD DUP3 SSTORE SWAP5 DUP5 ADD SWAP5 PUSH1 0x1 SWAP1 SWAP2 ADD SWAP1 DUP5 ADD PUSH2 0x160C JUMP JUMPDEST POP DUP6 DUP3 LT ISZERO PUSH2 0x1649 JUMPI DUP8 DUP6 ADD MLOAD PUSH1 0x0 NOT PUSH1 0x3 DUP9 SWAP1 SHL PUSH1 0xF8 AND SHR NOT AND DUP2 SSTORE JUMPDEST POP POP POP POP POP PUSH1 0x1 SWAP1 DUP2 SHL ADD SWAP1 SSTORE POP JUMP JUMPDEST PUSH1 0x0 DUP3 MLOAD PUSH2 0x166B DUP2 DUP5 PUSH1 0x20 DUP8 ADD PUSH2 0x1373 JUMP JUMPDEST SWAP2 SWAP1 SWAP2 ADD SWAP3 SWAP2 POP POP JUMP JUMPDEST PUSH1 0x40 DUP2 MSTORE PUSH1 0x0 PUSH2 0x1688 PUSH1 0x40 DUP4 ADD DUP6 PUSH2 0x1397 JUMP JUMPDEST SWAP1 POP DUP3 PUSH1 0x20 DUP4 ADD MSTORE SWAP4 SWAP3 POP POP POP JUMP INVALID LOG2 PUSH5 0x6970667358 0x22 SLT KECCAK256 0xC0 BYTE 0xE7 PUSH16 0x5AA5D32E1E17158F71D5E83CE4E09312 LOG2 0x2E PUSH25 0x89D53CA65FFB5790F764736F6C634300081400330000000000 "},"methodIdentifiers":{"addVerifier(address)":"9000b3d6","citizenAddresses(uint256)":"7af33f2e","citizens(address)":"d4f910a7","getCitizen(address)":"c2411dab","getCitizenByAadhar(string)":"9db51d82","getTotalCitizens()":"1e4c9358","isCitizenRegistered(address)":"2e3b3268","owner()":"8da5cb5b","registerCitizen(string,string,string,string)":"64f0a39f","removeVerifier(address)":"ca2dfd0a","renounceOwnership()":"715018a6","transferOwnership(address)":"f2fde38b","updateProfile(string,string,string)":"1105a5eb","verifiers(address)":"6c824487","verifyCitizen(address)":"308cdc39"}}}}}