{"contracts/GrievanceSystem.sol":{"GrievanceSystem":{"abi":[{"inputs":[{"internalType":"address","name":"_citizenRegistryAddress","type":"address"}],"stateMutability":"nonpayable","type":"constructor"},{"anonymous":false,"inputs":[{"indexed":true,"internalType":"uint256","name":"grievanceId","type":"uint256"},{"indexed":true,"internalType":"address","name":"officer","type":"address"},{"indexed":false,"internalType":"uint256","name":"timestamp","type":"uint256"}],"name":"GrievanceAssigned","type":"event"},{"anonymous":false,"inputs":[{"indexed":true,"internalType":"uint256","name":"grievanceId","type":"uint256"},{"indexed":false,"internalType":"string","name":"resolution","type":"string"},{"indexed":false,"internalType":"uint256","name":"timestamp","type":"uint256"}],"name":"GrievanceResolved","type":"event"},{"anonymous":false,"inputs":[{"indexed":true,"internalType":"uint256","name":"grievanceId","type":"uint256"},{"indexed":false,"internalType":"enum GrievanceSystem.GrievanceStatus","name":"status","type":"uint8"},{"indexed":false,"internalType":"uint256","name":"timestamp","type":"uint256"}],"name":"GrievanceStatusUpdated","type":"event"},{"anonymous":false,"inputs":[{"indexed":true,"internalType":"uint256","name":"grievanceId","type":"uint256"},{"indexed":true,"internalType":"address","name":"citizen","type":"address"},{"indexed":false,"internalType":"string","name":"title","type":"string"},{"indexed":false,"internalType":"uint256","name":"timestamp","type":"uint256"}],"name":"GrievanceSubmitted","type":"event"},{"anonymous":false,"inputs":[{"indexed":true,"internalType":"address","name":"officer","type":"address"},{"indexed":false,"internalType":"string","name":"department","type":"string"}],"name":"OfficerAuthorized","type":"event"},{"inputs":[{"internalType":"uint256","name":"_grievanceId","type":"uint256"},{"internalType":"address","name":"_officer","type":"address"}],"name":"assignGrievance","outputs":[],"stateMutability":"nonpayable","type":"function"},{"inputs":[{"internalType":"address","name":"_officer","type":"address"},{"internalType":"string","name":"_department","type":"string"}],"name":"authorizeOfficer","outputs":[],"stateMutability":"nonpayable","type":"function"},{"inputs":[{"internalType":"address","name":"","type":"address"}],"name":"authorizedOfficers","outputs":[{"internalType":"bool","name":"","type":"bool"}],"stateMutability":"view","type":"function"},{"inputs":[{"internalType":"address","name":"","type":"address"},{"internalType":"uint256","name":"","type":"uint256"}],"name":"citizenGrievances","outputs":[{"internalType":"uint256","name":"","type":"uint256"}],"stateMutability":"view","type":"function"},{"inputs":[],"name":"citizenRegistry","outputs":[{"internalType":"contract CitizenRegistry","name":"","type":"address"}],"stateMutability":"view","type":"function"},{"inputs":[{"internalType":"address","name":"_citizen","type":"address"}],"name":"getCitizenGrievances","outputs":[{"internalType":"uint256[]","name":"","type":"uint256[]"}],"stateMutability":"view","type":"function"},{"inputs":[{"internalType":"address","name":"_officer","type":"address"}],"name":"getOfficerGrievances","outputs":[{"internalType":"uint256[]","name":"","type":"uint256[]"}],"stateMutability":"view","type":"function"},{"inputs":[{"internalType":"uint256","name":"","type":"uint256"}],"name":"grievances","outputs":[{"internalType":"uint256","name":"grievanceId","type":"uint256"},{"internalType":"address","name":"citizen","type":"address"},{"internalType":"string","name":"title","type":"string"},{"internalType":"string","name":"description","type":"string"},{"internalType":"string","name":"category","type":"string"},{"internalType":"enum GrievanceSystem.Priority","name":"priority","type":"uint8"},{"internalType":"enum GrievanceSystem.GrievanceStatus","name":"status","type":"uint8"},{"internalType":"address","name":"assignedOfficer","type":"address"},{"internalType":"string","name":"resolution","type":"string"},{"internalType":"uint256","name":"createdDate","type":"uint256"},{"internalType":"uint256","name":"updatedDate","type":"uint256"},{"internalType":"uint256","name":"resolvedDate","type":"uint256"},{"internalType":"int8","name":"sentimentScore","type":"int8"},{"internalType":"bool","name":"isActive","type":"bool"}],"stateMutability":"view","type":"function"},{"inputs":[],"name":"nextGrievanceId","outputs":[{"internalType":"uint256","name":"","type":"uint256"}],"stateMutability":"view","type":"function"},{"inputs":[{"internalType":"address","name":"","type":"address"},{"internalType":"uint256","name":"","type":"uint256"}],"name":"officerGrievances","outputs":[{"internalType":"uint256","name":"","type":"uint256"}],"stateMutability":"view","type":"function"},{"inputs":[{"internalType":"uint256","name":"_grievanceId","type":"uint256"},{"internalType":"string","name":"_resolution","type":"string"}],"name":"resolveGrievance","outputs":[],"stateMutability":"nonpayable","type":"function"},{"inputs":[{"internalType":"string","name":"_title","type":"string"},{"internalType":"string","name":"_description","type":"string"},{"internalType":"string","name":"_category","type":"string"},{"internalType":"enum GrievanceSystem.Priority","name":"_priority","type":"uint8"},{"internalType":"int8","name":"_sentimentScore","type":"int8"}],"name":"submitGrievance","outputs":[{"internalType":"uint256","name":"","type":"uint256"}],"stateMutability":"nonpayable","type":"function"},{"inputs":[{"internalType":"uint256","name":"_grievanceId","type":"uint256"},{"internalType":"enum GrievanceSystem.GrievanceStatus","name":"_status","type":"uint8"}],"name":"updateGrievanceStatus","outputs":[],"stateMutability":"nonpayable","type":"function"}],"evm":{"bytecode":{"linkReferences":{},"object":"6080604052600160065534801561001557600080fd5b506040516117ad3803806117ad8339810160408190526100349161005e565b6001600081905580546001600160a01b0319166001600160a01b039290921691909117905561008e565b60006020828403121561007057600080fd5b81516001600160a01b038116811461008757600080fd5b9392505050565b6117108061009d6000396000f3fe608060405234801561001057600080fd5b50600436106100cf5760003560e01c80633d014b6d1161008c578063651a39dd11610066578063651a39dd146101e9578063a59612ab146101fc578063be4d78531461020f578063e9a8735e1461022257600080fd5b80633d014b6d14610183578063493c95ab146101965780634a7b7677146101b657600080fd5b80630963e583146100d4578063356f1d75146100f057806336734f811461011d57806337ce555e14610132578063386ca89d146101455780633aa49ed914610170575b600080fd5b6100dd60065481565b6040519081526020015b60405180910390f35b6101036100fe366004611046565b610235565b6040516100e79e9d9c9b9a999897969594939291906110df565b61013061012b366004611254565b6104e5565b005b6100dd6101403660046112b7565b61069c565b600154610158906001600160a01b031681565b6040516001600160a01b0390911681526020016100e7565b61013061017e3660046112e1565b6106cd565b6100dd6101913660046112b7565b610782565b6101a96101a4366004611319565b61079e565b6040516100e7919061133b565b6101d96101c4366004611319565b60056020526000908152604090205460ff1681565b60405190151581526020016100e7565b6100dd6101f736600461137f565b61080a565b61013061020a36600461143a565b610c26565b61013061021d36600461146e565b610d78565b6101a9610230366004611319565b610f83565b600260208190526000918252604090912080546001820154928201805491936001600160a01b031692916102689061149a565b80601f01602080910402602001604051908101604052809291908181526020018280546102949061149a565b80156102e15780601f106102b6576101008083540402835291602001916102e1565b820191906000526020600020905b8154815290600101906020018083116102c457829003601f168201915b5050505050908060030180546102f69061149a565b80601f01602080910402602001604051908101604052809291908181526020018280546103229061149a565b801561036f5780601f106103445761010080835404028352916020019161036f565b820191906000526020600020905b81548152906001019060200180831161035257829003601f168201915b5050505050908060040180546103849061149a565b80601f01602080910402602001604051908101604052809291908181526020018280546103b09061149a565b80156103fd5780601f106103d2576101008083540402835291602001916103fd565b820191906000526020600020905b8154815290600101906020018083116103e057829003601f168201915b505050506005830154600684018054939460ff8084169561010085049091169450620100009093046001600160a01b03169290919061043b9061149a565b80601f01602080910402602001604051908101604052809291908181526020018280546104679061149a565b80156104b45780601f10610489576101008083540402835291602001916104b4565b820191906000526020600020905b81548152906001019060200180831161049757829003601f168201915b50505050600783015460088401546009850154600a9095015493949193909250600081900b90610100900460ff168e565b3360009081526005602052604090205460ff1661051d5760405162461bcd60e51b8152600401610514906114d4565b60405180910390fd5b610525610fed565b6000828152600260205260409020600a0154610100900460ff1661055b5760405162461bcd60e51b815260040161051490611504565b6000828152600260205260409020600501546201000090046001600160a01b031633146105c15760405162461bcd60e51b81526020600482015260146024820152732737ba1030b9b9b4b3b732b21037b33334b1b2b960611b6044820152606401610514565b60008151116106085760405162461bcd60e51b815260206004820152601360248201527214995cdbdb1d5d1a5bdb881c995c5d5a5c9959606a1b6044820152606401610514565b600082815260026020526040902060058101805461ff0019166102001790556006016106348282611581565b506000828152600260205260409081902042600982018190556008909101819055905183917f76c59c73a140fe9f07996bd6c05f6b162bad088056ec206bc6ee98b95159831f91610686918591611641565b60405180910390a26106986001600055565b5050565b600360205281600052604060002081815481106106b857600080fd5b90600052602060002001600091509150505481565b6001600160a01b0382166107235760405162461bcd60e51b815260206004820152601760248201527f496e76616c6964206f66666963657220616464726573730000000000000000006044820152606401610514565b6001600160a01b03821660008181526005602052604090819020805460ff19166001179055517f7437a81cf4ffac2ccc9be07d0945880c32261f99ce10459a09c9506a4d9503cc90610776908490611663565b60405180910390a25050565b600460205281600052604060002081815481106106b857600080fd5b6001600160a01b0381166000908152600460209081526040918290208054835181840281018401909452808452606093928301828280156107fe57602002820191906000526020600020905b8154815260200190600101908083116107ea575b50505050509050919050565b60015460405163c3c5a54760e01b81523360048201526000916001600160a01b03169063c3c5a54790602401602060405180830381865afa158015610853573d6000803e3d6000fd5b505050506040513d601f19601f820116820180604052508101906108779190611676565b6108bc5760405162461bcd60e51b81526020600482015260166024820152752737ba103932b3b4b9ba32b932b21031b4ba34bd32b760511b6044820152606401610514565b6108c4610fed565b60008651116109065760405162461bcd60e51b815260206004820152600e60248201526d151a5d1b19481c995c5d5a5c995960921b6044820152606401610514565b600085511161094e5760405162461bcd60e51b815260206004820152601460248201527311195cd8dc9a5c1d1a5bdb881c995c5d5a5c995960621b6044820152606401610514565b6063198260000b12158015610967575060648260000b13155b6109b35760405162461bcd60e51b815260206004820152601760248201527f496e76616c69642073656e74696d656e742073636f72650000000000000000006044820152606401610514565b60068054600091826109c483611698565b919050559050604051806101c00160405280828152602001336001600160a01b03168152602001888152602001878152602001868152602001856003811115610a0f57610a0f6110a5565b81526020016000815260006020808301829052604080518083018252838152818501524260608501819052608085015260a0840183905287830b60c0850152600160e0909401849052858352600280835292819020855181559185015193820180546001600160a01b0319166001600160a01b03909516949094179093559183015190820190610a9f9082611581565b5060608201516003820190610ab49082611581565b5060808201516004820190610ac99082611581565b5060a082015160058201805460ff19166001836003811115610aed57610aed6110a5565b021790555060c082015160058201805461ff001916610100836004811115610b1757610b176110a5565b021790555060e08201516005820180546001600160a01b03909216620100000262010000600160b01b03199092169190911790556101008201516006820190610b609082611581565b50610120820151600782015561014082015160088201556101608201516009820155610180820151600a90910180546101a09093015115156101000261ffff1990931660ff90921691909117919091179055336000818152600360209081526040808320805460018101825590845291909220018390555182907f647af056b4d98b84e2632934af1a3335014c0ada2144e944aafa26a6c3255c6790610c09908b904290611641565b60405180910390a39050610c1d6001600055565b95945050505050565b3360009081526005602052604090205460ff16610c555760405162461bcd60e51b8152600401610514906114d4565b610c5d610fed565b6000828152600260205260409020600a0154610100900460ff16610c935760405162461bcd60e51b815260040161051490611504565b6000828152600260205260409020600501546201000090046001600160a01b03163314610cf95760405162461bcd60e51b81526020600482015260146024820152732737ba1030b9b9b4b3b732b21037b33334b1b2b960611b6044820152606401610514565b6000828152600260205260409020600501805482919061ff001916610100836004811115610d2957610d296110a5565b021790555060008281526002602052604090819020426008909101819055905183917f7f6d45b6ea45f6b312e3ed660d7370a2e6ae87eb63da70b4a9570ff468d87d19916106869185916116bf565b3360009081526005602052604090205460ff16610da75760405162461bcd60e51b8152600401610514906114d4565b610daf610fed565b6000828152600260205260409020600a0154610100900460ff16610de55760405162461bcd60e51b815260040161051490611504565b60008083815260026020526040902060050154610100900460ff166004811115610e1157610e116110a5565b14610e535760405162461bcd60e51b815260206004820152601260248201527123b934b2bb30b731b2903737ba1037b832b760711b6044820152606401610514565b6001600160a01b03811660009081526005602052604090205460ff16610eb45760405162461bcd60e51b815260206004820152601660248201527513d9999a58d95c881b9bdd08185d5d1a1bdc9a5e995960521b6044820152606401610514565b6000828152600260209081526040808320600581018054610100600160b01b031916620100006001600160a01b03881690810261ff0019169190911761010017909155426008909201829055808552600484528285208054600181018255908652948490209094018690558151908152905185927f4279819884f1b203dcff5e39dd54f6e2935d200acf1ffcc57838428264cd7e27928290030190a3817f7f6d45b6ea45f6b312e3ed660d7370a2e6ae87eb63da70b4a9570ff468d87d196001426040516106869291906116bf565b6001600160a01b0381166000908152600360209081526040918290208054835181840281018401909452808452606093928301828280156107fe57602002820191906000526020600020908154815260200190600101908083116107ea5750505050509050919050565b60026000540361103f5760405162461bcd60e51b815260206004820152601f60248201527f5265656e7472616e637947756172643a207265656e7472616e742063616c6c006044820152606401610514565b6002600055565b60006020828403121561105857600080fd5b5035919050565b6000815180845260005b8181101561108557602081850181015186830182015201611069565b506000602082860101526020601f19601f83011685010191505092915050565b634e487b7160e01b600052602160045260246000fd5b600481106110cb576110cb6110a5565b9052565b600581106110cb576110cb6110a5565b8e81526001600160a01b038e1660208201526101c0604082015260006111096101c083018f61105f565b828103606084015261111b818f61105f565b9050828103608084015261112f818e61105f565b905061113e60a084018d6110bb565b61114b60c084018c6110cf565b6001600160a01b038a1660e084015282810361010084015261116d818a61105f565b91505086610120830152856101408301528461016083015261119561018083018560000b9052565b8215156101a08301529f9e505050505050505050505050505050565b634e487b7160e01b600052604160045260246000fd5b600082601f8301126111d857600080fd5b813567ffffffffffffffff808211156111f3576111f36111b1565b604051601f8301601f19908116603f0116810190828211818310171561121b5761121b6111b1565b8160405283815286602085880101111561123457600080fd5b836020870160208301376000602085830101528094505050505092915050565b6000806040838503121561126757600080fd5b82359150602083013567ffffffffffffffff81111561128557600080fd5b611291858286016111c7565b9150509250929050565b80356001600160a01b03811681146112b257600080fd5b919050565b600080604083850312156112ca57600080fd5b6112d38361129b565b946020939093013593505050565b600080604083850312156112f457600080fd5b6112fd8361129b565b9150602083013567ffffffffffffffff81111561128557600080fd5b60006020828403121561132b57600080fd5b6113348261129b565b9392505050565b6020808252825182820181905260009190848201906040850190845b8181101561137357835183529284019291840191600101611357565b50909695505050505050565b600080600080600060a0868803121561139757600080fd5b853567ffffffffffffffff808211156113af57600080fd5b6113bb89838a016111c7565b965060208801359150808211156113d157600080fd5b6113dd89838a016111c7565b955060408801359150808211156113f357600080fd5b50611400888289016111c7565b93505060608601356004811061141557600080fd5b91506080860135600081900b811461142c57600080fd5b809150509295509295909350565b6000806040838503121561144d57600080fd5b8235915060208301356005811061146357600080fd5b809150509250929050565b6000806040838503121561148157600080fd5b823591506114916020840161129b565b90509250929050565b600181811c908216806114ae57607f821691505b6020821081036114ce57634e487b7160e01b600052602260045260246000fd5b50919050565b6020808252601690820152752737ba1030baba3437b934bd32b21037b33334b1b2b960511b604082015260600190565b6020808252601490820152734772696576616e6365206e6f742061637469766560601b604082015260600190565b601f82111561157c57600081815260208120601f850160051c810160208610156115595750805b601f850160051c820191505b8181101561157857828155600101611565565b5050505b505050565b815167ffffffffffffffff81111561159b5761159b6111b1565b6115af816115a9845461149a565b84611532565b602080601f8311600181146115e457600084156115cc5750858301515b600019600386901b1c1916600185901b178555611578565b600085815260208120601f198616915b82811015611613578886015182559484019460019091019084016115f4565b50858210156116315787850151600019600388901b60f8161c191681555b5050505050600190811b01905550565b604081526000611654604083018561105f565b90508260208301529392505050565b602081526000611334602083018461105f565b60006020828403121561168857600080fd5b8151801515811461133457600080fd5b6000600182016116b857634e487b7160e01b600052601160045260246000fd5b5060010190565b604081016116cd82856110cf565b826020830152939250505056fea26469706673582212206a202e869c2290b37da9703ed5d4477aade92495c02e8a895a783e5433c0627264736f6c63430008130033","opcodes":"PUSH1 0x80 PUSH1 0x40 MSTORE PUSH1 0x1 PUSH1 0x6 SSTORE CALLVALUE DUP1 ISZERO PUSH2 0x15 JUMPI PUSH1 0x0 DUP1 REVERT JUMPDEST POP PUSH1 0x40 MLOAD PUSH2 0x17AD CODESIZE SUB DUP1 PUSH2 0x17AD DUP4 CODECOPY DUP2 ADD PUSH1 0x40 DUP2 SWAP1 MSTORE PUSH2 0x34 SWAP2 PUSH2 0x5E JUMP JUMPDEST PUSH1 0x1 PUSH1 0x0 DUP2 SWAP1 SSTORE DUP1 SLOAD PUSH1 0x1 PUSH1 0x1 PUSH1 0xA0 SHL SUB NOT AND PUSH1 0x1 PUSH1 0x1 PUSH1 0xA0 SHL SUB SWAP3 SWAP1 SWAP3 AND SWAP2 SWAP1 SWAP2 OR SWAP1 SSTORE PUSH2 0x8E JUMP JUMPDEST PUSH1 0x0 PUSH1 0x20 DUP3 DUP5 SUB SLT ISZERO PUSH2 0x70 JUMPI PUSH1 0x0 DUP1 REVERT JUMPDEST DUP2 MLOAD PUSH1 0x1 PUSH1 0x1 PUSH1 0xA0 SHL SUB DUP2 AND DUP2 EQ PUSH2 0x87 JUMPI PUSH1 0x0 DUP1 REVERT JUMPDEST SWAP4 SWAP3 POP POP POP JUMP JUMPDEST PUSH2 0x1710 DUP1 PUSH2 0x9D PUSH1 0x0 CODECOPY PUSH1 0x0 RETURN INVALID PUSH1 0x80 PUSH1 0x40 MSTORE CALLVALUE DUP1 ISZERO PUSH2 0x10 JUMPI PUSH1 0x0 DUP1 REVERT JUMPDEST POP PUSH1 0x4 CALLDATASIZE LT PUSH2 0xCF JUMPI PUSH1 0x0 CALLDATALOAD PUSH1 0xE0 SHR DUP1 PUSH4 0x3D014B6D GT PUSH2 0x8C JUMPI DUP1 PUSH4 0x651A39DD GT PUSH2 0x66 JUMPI DUP1 PUSH4 0x651A39DD EQ PUSH2 0x1E9 JUMPI DUP1 PUSH4 0xA59612AB EQ PUSH2 0x1FC JUMPI DUP1 PUSH4 0xBE4D7853 EQ PUSH2 0x20F JUMPI DUP1 PUSH4 0xE9A8735E EQ PUSH2 0x222 JUMPI PUSH1 0x0 DUP1 REVERT JUMPDEST DUP1 PUSH4 0x3D014B6D EQ PUSH2 0x183 JUMPI DUP1 PUSH4 0x493C95AB EQ PUSH2 0x196 JUMPI DUP1 PUSH4 0x4A7B7677 EQ PUSH2 0x1B6 JUMPI PUSH1 0x0 DUP1 REVERT JUMPDEST DUP1 PUSH4 0x963E583 EQ PUSH2 0xD4 JUMPI DUP1 PUSH4 0x356F1D75 EQ PUSH2 0xF0 JUMPI DUP1 PUSH4 0x36734F81 EQ PUSH2 0x11D JUMPI DUP1 PUSH4 0x37CE555E EQ PUSH2 0x132 JUMPI DUP1 PUSH4 0x386CA89D EQ PUSH2 0x145 JUMPI DUP1 PUSH4 0x3AA49ED9 EQ PUSH2 0x170 JUMPI JUMPDEST PUSH1 0x0 DUP1 REVERT JUMPDEST PUSH2 0xDD PUSH1 0x6 SLOAD DUP2 JUMP JUMPDEST PUSH1 0x40 MLOAD SWAP1 DUP2 MSTORE PUSH1 0x20 ADD JUMPDEST PUSH1 0x40 MLOAD DUP1 SWAP2 SUB SWAP1 RETURN JUMPDEST PUSH2 0x103 PUSH2 0xFE CALLDATASIZE PUSH1 0x4 PUSH2 0x1046 JUMP JUMPDEST PUSH2 0x235 JUMP JUMPDEST PUSH1 0x40 MLOAD PUSH2 0xE7 SWAP15 SWAP14 SWAP13 SWAP12 SWAP11 SWAP10 SWAP9 SWAP8 SWAP7 SWAP6 SWAP5 SWAP4 SWAP3 SWAP2 SWAP1 PUSH2 0x10DF JUMP JUMPDEST PUSH2 0x130 PUSH2 0x12B CALLDATASIZE PUSH1 0x4 PUSH2 0x1254 JUMP JUMPDEST PUSH2 0x4E5 JUMP JUMPDEST STOP JUMPDEST PUSH2 0xDD PUSH2 0x140 CALLDATASIZE PUSH1 0x4 PUSH2 0x12B7 JUMP JUMPDEST PUSH2 0x69C JUMP JUMPDEST PUSH1 0x1 SLOAD PUSH2 0x158 SWAP1 PUSH1 0x1 PUSH1 0x1 PUSH1 0xA0 SHL SUB AND DUP2 JUMP JUMPDEST PUSH1 0x40 MLOAD PUSH1 0x1 PUSH1 0x1 PUSH1 0xA0 SHL SUB SWAP1 SWAP2 AND DUP2 MSTORE PUSH1 0x20 ADD PUSH2 0xE7 JUMP JUMPDEST PUSH2 0x130 PUSH2 0x17E CALLDATASIZE PUSH1 0x4 PUSH2 0x12E1 JUMP JUMPDEST PUSH2 0x6CD JUMP JUMPDEST PUSH2 0xDD PUSH2 0x191 CALLDATASIZE PUSH1 0x4 PUSH2 0x12B7 JUMP JUMPDEST PUSH2 0x782 JUMP JUMPDEST PUSH2 0x1A9 PUSH2 0x1A4 CALLDATASIZE PUSH1 0x4 PUSH2 0x1319 JUMP JUMPDEST PUSH2 0x79E JUMP JUMPDEST PUSH1 0x40 MLOAD PUSH2 0xE7 SWAP2 SWAP1 PUSH2 0x133B JUMP JUMPDEST PUSH2 0x1D9 PUSH2 0x1C4 CALLDATASIZE PUSH1 0x4 PUSH2 0x1319 JUMP JUMPDEST PUSH1 0x5 PUSH1 0x20 MSTORE PUSH1 0x0 SWAP1 DUP2 MSTORE PUSH1 0x40 SWAP1 KECCAK256 SLOAD PUSH1 0xFF AND DUP2 JUMP JUMPDEST PUSH1 0x40 MLOAD SWAP1 ISZERO ISZERO DUP2 MSTORE PUSH1 0x20 ADD PUSH2 0xE7 JUMP JUMPDEST PUSH2 0xDD PUSH2 0x1F7 CALLDATASIZE PUSH1 0x4 PUSH2 0x137F JUMP JUMPDEST PUSH2 0x80A JUMP JUMPDEST PUSH2 0x130 PUSH2 0x20A CALLDATASIZE PUSH1 0x4 PUSH2 0x143A JUMP JUMPDEST PUSH2 0xC26 JUMP JUMPDEST PUSH2 0x130 PUSH2 0x21D CALLDATASIZE PUSH1 0x4 PUSH2 0x146E JUMP JUMPDEST PUSH2 0xD78 JUMP JUMPDEST PUSH2 0x1A9 PUSH2 0x230 CALLDATASIZE PUSH1 0x4 PUSH2 0x1319 JUMP JUMPDEST PUSH2 0xF83 JUMP JUMPDEST PUSH1 0x2 PUSH1 0x20 DUP2 SWAP1 MSTORE PUSH1 0x0 SWAP2 DUP3 MSTORE PUSH1 0x40 SWAP1 SWAP2 KECCAK256 DUP1 SLOAD PUSH1 0x1 DUP3 ADD SLOAD SWAP3 DUP3 ADD DUP1 SLOAD SWAP2 SWAP4 PUSH1 0x1 PUSH1 0x1 PUSH1 0xA0 SHL SUB AND SWAP3 SWAP2 PUSH2 0x268 SWAP1 PUSH2 0x149A JUMP JUMPDEST DUP1 PUSH1 0x1F ADD PUSH1 0x20 DUP1 SWAP2 DIV MUL PUSH1 0x20 ADD PUSH1 0x40 MLOAD SWAP1 DUP2 ADD PUSH1 0x40 MSTORE DUP1 SWAP3 SWAP2 SWAP1 DUP2 DUP2 MSTORE PUSH1 0x20 ADD DUP3 DUP1 SLOAD PUSH2 0x294 SWAP1 PUSH2 0x149A JUMP JUMPDEST DUP1 ISZERO PUSH2 0x2E1 JUMPI DUP1 PUSH1 0x1F LT PUSH2 0x2B6 JUMPI PUSH2 0x100 DUP1 DUP4 SLOAD DIV MUL DUP4 MSTORE SWAP2 PUSH1 0x20 ADD SWAP2 PUSH2 0x2E1 JUMP JUMPDEST DUP3 ADD SWAP2 SWAP1 PUSH1 0x0 MSTORE PUSH1 0x20 PUSH1 0x0 KECCAK256 SWAP1 JUMPDEST DUP2 SLOAD DUP2 MSTORE SWAP1 PUSH1 0x1 ADD SWAP1 PUSH1 0x20 ADD DUP1 DUP4 GT PUSH2 0x2C4 JUMPI DUP3 SWAP1 SUB PUSH1 0x1F AND DUP3 ADD SWAP2 JUMPDEST POP POP POP POP POP SWAP1 DUP1 PUSH1 0x3 ADD DUP1 SLOAD PUSH2 0x2F6 SWAP1 PUSH2 0x149A JUMP JUMPDEST DUP1 PUSH1 0x1F ADD PUSH1 0x20 DUP1 SWAP2 DIV MUL PUSH1 0x20 ADD PUSH1 0x40 MLOAD SWAP1 DUP2 ADD PUSH1 0x40 MSTORE DUP1 SWAP3 SWAP2 SWAP1 DUP2 DUP2 MSTORE PUSH1 0x20 ADD DUP3 DUP1 SLOAD PUSH2 0x322 SWAP1 PUSH2 0x149A JUMP JUMPDEST DUP1 ISZERO PUSH2 0x36F JUMPI DUP1 PUSH1 0x1F LT PUSH2 0x344 JUMPI PUSH2 0x100 DUP1 DUP4 SLOAD DIV MUL DUP4 MSTORE SWAP2 PUSH1 0x20 ADD SWAP2 PUSH2 0x36F JUMP JUMPDEST DUP3 ADD SWAP2 SWAP1 PUSH1 0x0 MSTORE PUSH1 0x20 PUSH1 0x0 KECCAK256 SWAP1 JUMPDEST DUP2 SLOAD DUP2 MSTORE SWAP1 PUSH1 0x1 ADD SWAP1 PUSH1 0x20 ADD DUP1 DUP4 GT PUSH2 0x352 JUMPI DUP3 SWAP1 SUB PUSH1 0x1F AND DUP3 ADD SWAP2 JUMPDEST POP POP POP POP POP SWAP1 DUP1 PUSH1 0x4 ADD DUP1 SLOAD PUSH2 0x384 SWAP1 PUSH2 0x149A JUMP JUMPDEST DUP1 PUSH1 0x1F ADD PUSH1 0x20 DUP1 SWAP2 DIV MUL PUSH1 0x20 ADD PUSH1 0x40 MLOAD SWAP1 DUP2 ADD PUSH1 0x40 MSTORE DUP1 SWAP3 SWAP2 SWAP1 DUP2 DUP2 MSTORE PUSH1 0x20 ADD DUP3 DUP1 SLOAD PUSH2 0x3B0 SWAP1 PUSH2 0x149A JUMP JUMPDEST DUP1 ISZERO PUSH2 0x3FD JUMPI DUP1 PUSH1 0x1F LT PUSH2 0x3D2 JUMPI PUSH2 0x100 DUP1 DUP4 SLOAD DIV MUL DUP4 MSTORE SWAP2 PUSH1 0x20 ADD SWAP2 PUSH2 0x3FD JUMP JUMPDEST DUP3 ADD SWAP2 SWAP1 PUSH1 0x0 MSTORE PUSH1 0x20 PUSH1 0x0 KECCAK256 SWAP1 JUMPDEST DUP2 SLOAD DUP2 MSTORE SWAP1 PUSH1 0x1 ADD SWAP1 PUSH1 0x20 ADD DUP1 DUP4 GT PUSH2 0x3E0 JUMPI DUP3 SWAP1 SUB PUSH1 0x1F AND DUP3 ADD SWAP2 JUMPDEST POP POP POP POP PUSH1 0x5 DUP4 ADD SLOAD PUSH1 0x6 DUP5 ADD DUP1 SLOAD SWAP4 SWAP5 PUSH1 0xFF DUP1 DUP5 AND SWAP6 PUSH2 0x100 DUP6 DIV SWAP1 SWAP2 AND SWAP5 POP PUSH3 0x10000 SWAP1 SWAP4 DIV PUSH1 0x1 PUSH1 0x1 PUSH1 0xA0 SHL SUB AND SWAP3 SWAP1 SWAP2 SWAP1 PUSH2 0x43B SWAP1 PUSH2 0x149A JUMP JUMPDEST DUP1 PUSH1 0x1F ADD PUSH1 0x20 DUP1 SWAP2 DIV MUL PUSH1 0x20 ADD PUSH1 0x40 MLOAD SWAP1 DUP2 ADD PUSH1 0x40 MSTORE DUP1 SWAP3 SWAP2 SWAP1 DUP2 DUP2 MSTORE PUSH1 0x20 ADD DUP3 DUP1 SLOAD PUSH2 0x467 SWAP1 PUSH2 0x149A JUMP JUMPDEST DUP1 ISZERO PUSH2 0x4B4 JUMPI DUP1 PUSH1 0x1F LT PUSH2 0x489 JUMPI PUSH2 0x100 DUP1 DUP4 SLOAD DIV MUL DUP4 MSTORE SWAP2 PUSH1 0x20 ADD SWAP2 PUSH2 0x4B4 JUMP JUMPDEST DUP3 ADD SWAP2 SWAP1 PUSH1 0x0 MSTORE PUSH1 0x20 PUSH1 0x0 KECCAK256 SWAP1 JUMPDEST DUP2 SLOAD DUP2 MSTORE SWAP1 PUSH1 0x1 ADD SWAP1 PUSH1 0x20 ADD DUP1 DUP4 GT PUSH2 0x497 JUMPI DUP3 SWAP1 SUB PUSH1 0x1F AND DUP3 ADD SWAP2 JUMPDEST POP POP POP POP PUSH1 0x7 DUP4 ADD SLOAD PUSH1 0x8 DUP5 ADD SLOAD PUSH1 0x9 DUP6 ADD SLOAD PUSH1 0xA SWAP1 SWAP6 ADD SLOAD SWAP4 SWAP5 SWAP2 SWAP4 SWAP1 SWAP3 POP PUSH1 0x0 DUP2 SWAP1 SIGNEXTEND SWAP1 PUSH2 0x100 SWAP1 DIV PUSH1 0xFF AND DUP15 JUMP JUMPDEST CALLER PUSH1 0x0 SWAP1 DUP2 MSTORE PUSH1 0x5 PUSH1 0x20 MSTORE PUSH1 0x40 SWAP1 KECCAK256 SLOAD PUSH1 0xFF AND PUSH2 0x51D JUMPI PUSH1 0x40 MLOAD PUSH3 0x461BCD PUSH1 0xE5 SHL DUP2 MSTORE PUSH1 0x4 ADD PUSH2 0x514 SWAP1 PUSH2 0x14D4 JUMP JUMPDEST PUSH1 0x40 MLOAD DUP1 SWAP2 SUB SWAP1 REVERT JUMPDEST PUSH2 0x525 PUSH2 0xFED JUMP JUMPDEST PUSH1 0x0 DUP3 DUP2 MSTORE PUSH1 0x2 PUSH1 0x20 MSTORE PUSH1 0x40 SWAP1 KECCAK256 PUSH1 0xA ADD SLOAD PUSH2 0x100 SWAP1 DIV PUSH1 0xFF AND PUSH2 0x55B JUMPI PUSH1 0x40 MLOAD PUSH3 0x461BCD PUSH1 0xE5 SHL DUP2 MSTORE PUSH1 0x4 ADD PUSH2 0x514 SWAP1 PUSH2 0x1504 JUMP JUMPDEST PUSH1 0x0 DUP3 DUP2 MSTORE PUSH1 0x2 PUSH1 0x20 MSTORE PUSH1 0x40 SWAP1 KECCAK256 PUSH1 0x5 ADD SLOAD PUSH3 0x10000 SWAP1 DIV PUSH1 0x1 PUSH1 0x1 PUSH1 0xA0 SHL SUB AND CALLER EQ PUSH2 0x5C1 JUMPI PUSH1 0x40 MLOAD PUSH3 0x461BCD PUSH1 0xE5 SHL DUP2 MSTORE PUSH1 0x20 PUSH1 0x4 DUP3 ADD MSTORE PUSH1 0x14 PUSH1 0x24 DUP3 ADD MSTORE PUSH20 0x2737BA1030B9B9B4B3B732B21037B33334B1B2B9 PUSH1 0x61 SHL PUSH1 0x44 DUP3 ADD MSTORE PUSH1 0x64 ADD PUSH2 0x514 JUMP JUMPDEST PUSH1 0x0 DUP2 MLOAD GT PUSH2 0x608 JUMPI PUSH1 0x40 MLOAD PUSH3 0x461BCD PUSH1 0xE5 SHL DUP2 MSTORE PUSH1 0x20 PUSH1 0x4 DUP3 ADD MSTORE PUSH1 0x13 PUSH1 0x24 DUP3 ADD MSTORE PUSH19 0x14995CDBDB1D5D1A5BDB881C995C5D5A5C9959 PUSH1 0x6A SHL PUSH1 0x44 DUP3 ADD MSTORE PUSH1 0x64 ADD PUSH2 0x514 JUMP JUMPDEST PUSH1 0x0 DUP3 DUP2 MSTORE PUSH1 0x2 PUSH1 0x20 MSTORE PUSH1 0x40 SWAP1 KECCAK256 PUSH1 0x5 DUP2 ADD DUP1 SLOAD PUSH2 0xFF00 NOT AND PUSH2 0x200 OR SWAP1 SSTORE PUSH1 0x6 ADD PUSH2 0x634 DUP3 DUP3 PUSH2 0x1581 JUMP JUMPDEST POP PUSH1 0x0 DUP3 DUP2 MSTORE PUSH1 0x2 PUSH1 0x20 MSTORE PUSH1 0x40 SWAP1 DUP2 SWAP1 KECCAK256 TIMESTAMP PUSH1 0x9 DUP3 ADD DUP2 SWAP1 SSTORE PUSH1 0x8 SWAP1 SWAP2 ADD DUP2 SWAP1 SSTORE SWAP1 MLOAD DUP4 SWAP2 PUSH32 0x76C59C73A140FE9F07996BD6C05F6B162BAD088056EC206BC6EE98B95159831F SWAP2 PUSH2 0x686 SWAP2 DUP6 SWAP2 PUSH2 0x1641 JUMP JUMPDEST PUSH1 0x40 MLOAD DUP1 SWAP2 SUB SWAP1 LOG2 PUSH2 0x698 PUSH1 0x1 PUSH1 0x0 SSTORE JUMP JUMPDEST POP POP JUMP JUMPDEST PUSH1 0x3 PUSH1 0x20 MSTORE DUP2 PUSH1 0x0 MSTORE PUSH1 0x40 PUSH1 0x0 KECCAK256 DUP2 DUP2 SLOAD DUP2 LT PUSH2 0x6B8 JUMPI PUSH1 0x0 DUP1 REVERT JUMPDEST SWAP1 PUSH1 0x0 MSTORE PUSH1 0x20 PUSH1 0x0 KECCAK256 ADD PUSH1 0x0 SWAP2 POP SWAP2 POP POP SLOAD DUP2 JUMP JUMPDEST PUSH1 0x1 PUSH1 0x1 PUSH1 0xA0 SHL SUB DUP3 AND PUSH2 0x723 JUMPI PUSH1 0x40 MLOAD PUSH3 0x461BCD PUSH1 0xE5 SHL DUP2 MSTORE PUSH1 0x20 PUSH1 0x4 DUP3 ADD MSTORE PUSH1 0x17 PUSH1 0x24 DUP3 ADD MSTORE PUSH32 0x496E76616C6964206F6666696365722061646472657373000000000000000000 PUSH1 0x44 DUP3 ADD MSTORE PUSH1 0x64 ADD PUSH2 0x514 JUMP JUMPDEST PUSH1 0x1 PUSH1 0x1 PUSH1 0xA0 SHL SUB DUP3 AND PUSH1 0x0 DUP2 DUP2 MSTORE PUSH1 0x5 PUSH1 0x20 MSTORE PUSH1 0x40 SWAP1 DUP2 SWAP1 KECCAK256 DUP1 SLOAD PUSH1 0xFF NOT AND PUSH1 0x1 OR SWAP1 SSTORE MLOAD PUSH32 0x7437A81CF4FFAC2CCC9BE07D0945880C32261F99CE10459A09C9506A4D9503CC SWAP1 PUSH2 0x776 SWAP1 DUP5 SWAP1 PUSH2 0x1663 JUMP JUMPDEST PUSH1 0x40 MLOAD DUP1 SWAP2 SUB SWAP1 LOG2 POP POP JUMP JUMPDEST PUSH1 0x4 PUSH1 0x20 MSTORE DUP2 PUSH1 0x0 MSTORE PUSH1 0x40 PUSH1 0x0 KECCAK256 DUP2 DUP2 SLOAD DUP2 LT PUSH2 0x6B8 JUMPI PUSH1 0x0 DUP1 REVERT JUMPDEST PUSH1 0x1 PUSH1 0x1 PUSH1 0xA0 SHL SUB DUP2 AND PUSH1 0x0 SWAP1 DUP2 MSTORE PUSH1 0x4 PUSH1 0x20 SWAP1 DUP2 MSTORE PUSH1 0x40 SWAP2 DUP3 SWAP1 KECCAK256 DUP1 SLOAD DUP4 MLOAD DUP2 DUP5 MUL DUP2 ADD DUP5 ADD SWAP1 SWAP5 MSTORE DUP1 DUP5 MSTORE PUSH1 0x60 SWAP4 SWAP3 DUP4 ADD DUP3 DUP3 DUP1 ISZERO PUSH2 0x7FE JUMPI PUSH1 0x20 MUL DUP3 ADD SWAP2 SWAP1 PUSH1 0x0 MSTORE PUSH1 0x20 PUSH1 0x0 KECCAK256 SWAP1 JUMPDEST DUP2 SLOAD DUP2 MSTORE PUSH1 0x20 ADD SWAP1 PUSH1 0x1 ADD SWAP1 DUP1 DUP4 GT PUSH2 0x7EA JUMPI JUMPDEST POP POP POP POP POP SWAP1 POP SWAP2 SWAP1 POP JUMP JUMPDEST PUSH1 0x1 SLOAD PUSH1 0x40 MLOAD PUSH4 0xC3C5A547 PUSH1 0xE0 SHL DUP2 MSTORE CALLER PUSH1 0x4 DUP3 ADD MSTORE PUSH1 0x0 SWAP2 PUSH1 0x1 PUSH1 0x1 PUSH1 0xA0 SHL SUB AND SWAP1 PUSH4 0xC3C5A547 SWAP1 PUSH1 0x24 ADD PUSH1 0x20 PUSH1 0x40 MLOAD DUP1 DUP4 SUB DUP2 DUP7 GAS STATICCALL ISZERO DUP1 ISZERO PUSH2 0x853 JUMPI RETURNDATASIZE PUSH1 0x0 DUP1 RETURNDATACOPY RETURNDATASIZE PUSH1 0x0 REVERT JUMPDEST POP POP POP POP PUSH1 0x40 MLOAD RETURNDATASIZE PUSH1 0x1F NOT PUSH1 0x1F DUP3 ADD AND DUP3 ADD DUP1 PUSH1 0x40 MSTORE POP DUP2 ADD SWAP1 PUSH2 0x877 SWAP2 SWAP1 PUSH2 0x1676 JUMP JUMPDEST PUSH2 0x8BC JUMPI PUSH1 0x40 MLOAD PUSH3 0x461BCD PUSH1 0xE5 SHL DUP2 MSTORE PUSH1 0x20 PUSH1 0x4 DUP3 ADD MSTORE PUSH1 0x16 PUSH1 0x24 DUP3 ADD MSTORE PUSH22 0x2737BA103932B3B4B9BA32B932B21031B4BA34BD32B7 PUSH1 0x51 SHL PUSH1 0x44 DUP3 ADD MSTORE PUSH1 0x64 ADD PUSH2 0x514 JUMP JUMPDEST PUSH2 0x8C4 PUSH2 0xFED JUMP JUMPDEST PUSH1 0x0 DUP7 MLOAD GT PUSH2 0x906 JUMPI PUSH1 0x40 MLOAD PUSH3 0x461BCD PUSH1 0xE5 SHL DUP2 MSTORE PUSH1 0x20 PUSH1 0x4 DUP3 ADD MSTORE PUSH1 0xE PUSH1 0x24 DUP3 ADD MSTORE PUSH14 0x151A5D1B19481C995C5D5A5C9959 PUSH1 0x92 SHL PUSH1 0x44 DUP3 ADD MSTORE PUSH1 0x64 ADD PUSH2 0x514 JUMP JUMPDEST PUSH1 0x0 DUP6 MLOAD GT PUSH2 0x94E JUMPI PUSH1 0x40 MLOAD PUSH3 0x461BCD PUSH1 0xE5 SHL DUP2 MSTORE PUSH1 0x20 PUSH1 0x4 DUP3 ADD MSTORE PUSH1 0x14 PUSH1 0x24 DUP3 ADD MSTORE PUSH20 0x11195CD8DC9A5C1D1A5BDB881C995C5D5A5C9959 PUSH1 0x62 SHL PUSH1 0x44 DUP3 ADD MSTORE PUSH1 0x64 ADD PUSH2 0x514 JUMP JUMPDEST PUSH1 0x63 NOT DUP3 PUSH1 0x0 SIGNEXTEND SLT ISZERO DUP1 ISZERO PUSH2 0x967 JUMPI POP PUSH1 0x64 DUP3 PUSH1 0x0 SIGNEXTEND SGT ISZERO JUMPDEST PUSH2 0x9B3 JUMPI PUSH1 0x40 MLOAD PUSH3 0x461BCD PUSH1 0xE5 SHL DUP2 MSTORE PUSH1 0x20 PUSH1 0x4 DUP3 ADD MSTORE PUSH1 0x17 PUSH1 0x24 DUP3 ADD MSTORE PUSH32 0x496E76616C69642073656E74696D656E742073636F7265000000000000000000 PUSH1 0x44 DUP3 ADD MSTORE PUSH1 0x64 ADD PUSH2 0x514 JUMP JUMPDEST PUSH1 0x6 DUP1 SLOAD PUSH1 0x0 SWAP2 DUP3 PUSH2 0x9C4 DUP4 PUSH2 0x1698 JUMP JUMPDEST SWAP2 SWAP1 POP SSTORE SWAP1 POP PUSH1 0x40 MLOAD DUP1 PUSH2 0x1C0 ADD PUSH1 0x40 MSTORE DUP1 DUP3 DUP2 MSTORE PUSH1 0x20 ADD CALLER PUSH1 0x1 PUSH1 0x1 PUSH1 0xA0 SHL SUB AND DUP2 MSTORE PUSH1 0x20 ADD DUP9 DUP2 MSTORE PUSH1 0x20 ADD DUP8 DUP2 MSTORE PUSH1 0x20 ADD DUP7 DUP2 MSTORE PUSH1 0x20 ADD DUP6 PUSH1 0x3 DUP2 GT ISZERO PUSH2 0xA0F JUMPI PUSH2 0xA0F PUSH2 0x10A5 JUMP JUMPDEST DUP2 MSTORE PUSH1 0x20 ADD PUSH1 0x0 DUP2 MSTORE PUSH1 0x0 PUSH1 0x20 DUP1 DUP4 ADD DUP3 SWAP1 MSTORE PUSH1 0x40 DUP1 MLOAD DUP1 DUP4 ADD DUP3 MSTORE DUP4 DUP2 MSTORE DUP2 DUP6 ADD MSTORE TIMESTAMP PUSH1 0x60 DUP6 ADD DUP2 SWAP1 MSTORE PUSH1 0x80 DUP6 ADD MSTORE PUSH1 0xA0 DUP5 ADD DUP4 SWAP1 MSTORE DUP8 DUP4 SIGNEXTEND PUSH1 0xC0 DUP6 ADD MSTORE PUSH1 0x1 PUSH1 0xE0 SWAP1 SWAP5 ADD DUP5 SWAP1 MSTORE DUP6 DUP4 MSTORE PUSH1 0x2 DUP1 DUP4 MSTORE SWAP3 DUP2 SWAP1 KECCAK256 DUP6 MLOAD DUP2 SSTORE SWAP2 DUP6 ADD MLOAD SWAP4 DUP3 ADD DUP1 SLOAD PUSH1 0x1 PUSH1 0x1 PUSH1 0xA0 SHL SUB NOT AND PUSH1 0x1 PUSH1 0x1 PUSH1 0xA0 SHL SUB SWAP1 SWAP6 AND SWAP5 SWAP1 SWAP5 OR SWAP1 SWAP4 SSTORE SWAP2 DUP4 ADD MLOAD SWAP1 DUP3 ADD SWAP1 PUSH2 0xA9F SWAP1 DUP3 PUSH2 0x1581 JUMP JUMPDEST POP PUSH1 0x60 DUP3 ADD MLOAD PUSH1 0x3 DUP3 ADD SWAP1 PUSH2 0xAB4 SWAP1 DUP3 PUSH2 0x1581 JUMP JUMPDEST POP PUSH1 0x80 DUP3 ADD MLOAD PUSH1 0x4 DUP3 ADD SWAP1 PUSH2 0xAC9 SWAP1 DUP3 PUSH2 0x1581 JUMP JUMPDEST POP PUSH1 0xA0 DUP3 ADD MLOAD PUSH1 0x5 DUP3 ADD DUP1 SLOAD PUSH1 0xFF NOT AND PUSH1 0x1 DUP4 PUSH1 0x3 DUP2 GT ISZERO PUSH2 0xAED JUMPI PUSH2 0xAED PUSH2 0x10A5 JUMP JUMPDEST MUL OR SWAP1 SSTORE POP PUSH1 0xC0 DUP3 ADD MLOAD PUSH1 0x5 DUP3 ADD DUP1 SLOAD PUSH2 0xFF00 NOT AND PUSH2 0x100 DUP4 PUSH1 0x4 DUP2 GT ISZERO PUSH2 0xB17 JUMPI PUSH2 0xB17 PUSH2 0x10A5 JUMP JUMPDEST MUL OR SWAP1 SSTORE POP PUSH1 0xE0 DUP3 ADD MLOAD PUSH1 0x5 DUP3 ADD DUP1 SLOAD PUSH1 0x1 PUSH1 0x1 PUSH1 0xA0 SHL SUB SWAP1 SWAP3 AND PUSH3 0x10000 MUL PUSH3 0x10000 PUSH1 0x1 PUSH1 0xB0 SHL SUB NOT SWAP1 SWAP3 AND SWAP2 SWAP1 SWAP2 OR SWAP1 SSTORE PUSH2 0x100 DUP3 ADD MLOAD PUSH1 0x6 DUP3 ADD SWAP1 PUSH2 0xB60 SWAP1 DUP3 PUSH2 0x1581 JUMP JUMPDEST POP PUSH2 0x120 DUP3 ADD MLOAD PUSH1 0x7 DUP3 ADD SSTORE PUSH2 0x140 DUP3 ADD MLOAD PUSH1 0x8 DUP3 ADD SSTORE PUSH2 0x160 DUP3 ADD MLOAD PUSH1 0x9 DUP3 ADD SSTORE PUSH2 0x180 DUP3 ADD MLOAD PUSH1 0xA SWAP1 SWAP2 ADD DUP1 SLOAD PUSH2 0x1A0 SWAP1 SWAP4 ADD MLOAD ISZERO ISZERO PUSH2 0x100 MUL PUSH2 0xFFFF NOT SWAP1 SWAP4 AND PUSH1 0xFF SWAP1 SWAP3 AND SWAP2 SWAP1 SWAP2 OR SWAP2 SWAP1 SWAP2 OR SWAP1 SSTORE CALLER PUSH1 0x0 DUP2 DUP2 MSTORE PUSH1 0x3 PUSH1 0x20 SWAP1 DUP2 MSTORE PUSH1 0x40 DUP1 DUP4 KECCAK256 DUP1 SLOAD PUSH1 0x1 DUP2 ADD DUP3 SSTORE SWAP1 DUP5 MSTORE SWAP2 SWAP1 SWAP3 KECCAK256 ADD DUP4 SWAP1 SSTORE MLOAD DUP3 SWAP1 PUSH32 0x647AF056B4D98B84E2632934AF1A3335014C0ADA2144E944AAFA26A6C3255C67 SWAP1 PUSH2 0xC09 SWAP1 DUP12 SWAP1 TIMESTAMP SWAP1 PUSH2 0x1641 JUMP JUMPDEST PUSH1 0x40 MLOAD DUP1 SWAP2 SUB SWAP1 LOG3 SWAP1 POP PUSH2 0xC1D PUSH1 0x1 PUSH1 0x0 SSTORE JUMP JUMPDEST SWAP6 SWAP5 POP POP POP POP POP JUMP JUMPDEST CALLER PUSH1 0x0 SWAP1 DUP2 MSTORE PUSH1 0x5 PUSH1 0x20 MSTORE PUSH1 0x40 SWAP1 KECCAK256 SLOAD PUSH1 0xFF AND PUSH2 0xC55 JUMPI PUSH1 0x40 MLOAD PUSH3 0x461BCD PUSH1 0xE5 SHL DUP2 MSTORE PUSH1 0x4 ADD PUSH2 0x514 SWAP1 PUSH2 0x14D4 JUMP JUMPDEST PUSH2 0xC5D PUSH2 0xFED JUMP JUMPDEST PUSH1 0x0 DUP3 DUP2 MSTORE PUSH1 0x2 PUSH1 0x20 MSTORE PUSH1 0x40 SWAP1 KECCAK256 PUSH1 0xA ADD SLOAD PUSH2 0x100 SWAP1 DIV PUSH1 0xFF AND PUSH2 0xC93 JUMPI PUSH1 0x40 MLOAD PUSH3 0x461BCD PUSH1 0xE5 SHL DUP2 MSTORE PUSH1 0x4 ADD PUSH2 0x514 SWAP1 PUSH2 0x1504 JUMP JUMPDEST PUSH1 0x0 DUP3 DUP2 MSTORE PUSH1 0x2 PUSH1 0x20 MSTORE PUSH1 0x40 SWAP1 KECCAK256 PUSH1 0x5 ADD SLOAD PUSH3 0x10000 SWAP1 DIV PUSH1 0x1 PUSH1 0x1 PUSH1 0xA0 SHL SUB AND CALLER EQ PUSH2 0xCF9 JUMPI PUSH1 0x40 MLOAD PUSH3 0x461BCD PUSH1 0xE5 SHL DUP2 MSTORE PUSH1 0x20 PUSH1 0x4 DUP3 ADD MSTORE PUSH1 0x14 PUSH1 0x24 DUP3 ADD MSTORE PUSH20 0x2737BA1030B9B9B4B3B732B21037B33334B1B2B9 PUSH1 0x61 SHL PUSH1 0x44 DUP3 ADD MSTORE PUSH1 0x64 ADD PUSH2 0x514 JUMP JUMPDEST PUSH1 0x0 DUP3 DUP2 MSTORE PUSH1 0x2 PUSH1 0x20 MSTORE PUSH1 0x40 SWAP1 KECCAK256 PUSH1 0x5 ADD DUP1 SLOAD DUP3 SWAP2 SWAP1 PUSH2 0xFF00 NOT AND PUSH2 0x100 DUP4 PUSH1 0x4 DUP2 GT ISZERO PUSH2 0xD29 JUMPI PUSH2 0xD29 PUSH2 0x10A5 JUMP JUMPDEST MUL OR SWAP1 SSTORE POP PUSH1 0x0 DUP3 DUP2 MSTORE PUSH1 0x2 PUSH1 0x20 MSTORE PUSH1 0x40 SWAP1 DUP2 SWAP1 KECCAK256 TIMESTAMP PUSH1 0x8 SWAP1 SWAP2 ADD DUP2 SWAP1 SSTORE SWAP1 MLOAD DUP4 SWAP2 PUSH32 0x7F6D45B6EA45F6B312E3ED660D7370A2E6AE87EB63DA70B4A9570FF468D87D19 SWAP2 PUSH2 0x686 SWAP2 DUP6 SWAP2 PUSH2 0x16BF JUMP JUMPDEST CALLER PUSH1 0x0 SWAP1 DUP2 MSTORE PUSH1 0x5 PUSH1 0x20 MSTORE PUSH1 0x40 SWAP1 KECCAK256 SLOAD PUSH1 0xFF AND PUSH2 0xDA7 JUMPI PUSH1 0x40 MLOAD PUSH3 0x461BCD PUSH1 0xE5 SHL DUP2 MSTORE PUSH1 0x4 ADD PUSH2 0x514 SWAP1 PUSH2 0x14D4 JUMP JUMPDEST PUSH2 0xDAF PUSH2 0xFED JUMP JUMPDEST PUSH1 0x0 DUP3 DUP2 MSTORE PUSH1 0x2 PUSH1 0x20 MSTORE PUSH1 0x40 SWAP1 KECCAK256 PUSH1 0xA ADD SLOAD PUSH2 0x100 SWAP1 DIV PUSH1 0xFF AND PUSH2 0xDE5 JUMPI PUSH1 0x40 MLOAD PUSH3 0x461BCD PUSH1 0xE5 SHL DUP2 MSTORE PUSH1 0x4 ADD PUSH2 0x514 SWAP1 PUSH2 0x1504 JUMP JUMPDEST PUSH1 0x0 DUP1 DUP4 DUP2 MSTORE PUSH1 0x2 PUSH1 0x20 MSTORE PUSH1 0x40 SWAP1 KECCAK256 PUSH1 0x5 ADD SLOAD PUSH2 0x100 SWAP1 DIV PUSH1 0xFF AND PUSH1 0x4 DUP2 GT ISZERO PUSH2 0xE11 JUMPI PUSH2 0xE11 PUSH2 0x10A5 JUMP JUMPDEST EQ PUSH2 0xE53 JUMPI PUSH1 0x40 MLOAD PUSH3 0x461BCD PUSH1 0xE5 SHL DUP2 MSTORE PUSH1 0x20 PUSH1 0x4 DUP3 ADD MSTORE PUSH1 0x12 PUSH1 0x24 DUP3 ADD MSTORE PUSH18 0x23B934B2BB30B731B2903737BA1037B832B7 PUSH1 0x71 SHL PUSH1 0x44 DUP3 ADD MSTORE PUSH1 0x64 ADD PUSH2 0x514 JUMP JUMPDEST PUSH1 0x1 PUSH1 0x1 PUSH1 0xA0 SHL SUB DUP2 AND PUSH1 0x0 SWAP1 DUP2 MSTORE PUSH1 0x5 PUSH1 0x20 MSTORE PUSH1 0x40 SWAP1 KECCAK256 SLOAD PUSH1 0xFF AND PUSH2 0xEB4 JUMPI PUSH1 0x40 MLOAD PUSH3 0x461BCD PUSH1 0xE5 SHL DUP2 MSTORE PUSH1 0x20 PUSH1 0x4 DUP3 ADD MSTORE PUSH1 0x16 PUSH1 0x24 DUP3 ADD MSTORE PUSH22 0x13D9999A58D95C881B9BDD08185D5D1A1BDC9A5E9959 PUSH1 0x52 SHL PUSH1 0x44 DUP3 ADD MSTORE PUSH1 0x64 ADD PUSH2 0x514 JUMP JUMPDEST PUSH1 0x0 DUP3 DUP2 MSTORE PUSH1 0x2 PUSH1 0x20 SWAP1 DUP2 MSTORE PUSH1 0x40 DUP1 DUP4 KECCAK256 PUSH1 0x5 DUP2 ADD DUP1 SLOAD PUSH2 0x100 PUSH1 0x1 PUSH1 0xB0 SHL SUB NOT AND PUSH3 0x10000 PUSH1 0x1 PUSH1 0x1 PUSH1 0xA0 SHL SUB DUP9 AND SWAP1 DUP2 MUL PUSH2 0xFF00 NOT AND SWAP2 SWAP1 SWAP2 OR PUSH2 0x100 OR SWAP1 SWAP2 SSTORE TIMESTAMP PUSH1 0x8 SWAP1 SWAP3 ADD DUP3 SWAP1 SSTORE DUP1 DUP6 MSTORE PUSH1 0x4 DUP5 MSTORE DUP3 DUP6 KECCAK256 DUP1 SLOAD PUSH1 0x1 DUP2 ADD DUP3 SSTORE SWAP1 DUP7 MSTORE SWAP5 DUP5 SWAP1 KECCAK256 SWAP1 SWAP5 ADD DUP7 SWAP1 SSTORE DUP2 MLOAD SWAP1 DUP2 MSTORE SWAP1 MLOAD DUP6 SWAP3 PUSH32 0x4279819884F1B203DCFF5E39DD54F6E2935D200ACF1FFCC57838428264CD7E27 SWAP3 DUP3 SWAP1 SUB ADD SWAP1 LOG3 DUP2 PUSH32 0x7F6D45B6EA45F6B312E3ED660D7370A2E6AE87EB63DA70B4A9570FF468D87D19 PUSH1 0x1 TIMESTAMP PUSH1 0x40 MLOAD PUSH2 0x686 SWAP3 SWAP2 SWAP1 PUSH2 0x16BF JUMP JUMPDEST PUSH1 0x1 PUSH1 0x1 PUSH1 0xA0 SHL SUB DUP2 AND PUSH1 0x0 SWAP1 DUP2 MSTORE PUSH1 0x3 PUSH1 0x20 SWAP1 DUP2 MSTORE PUSH1 0x40 SWAP2 DUP3 SWAP1 KECCAK256 DUP1 SLOAD DUP4 MLOAD DUP2 DUP5 MUL DUP2 ADD DUP5 ADD SWAP1 SWAP5 MSTORE DUP1 DUP5 MSTORE PUSH1 0x60 SWAP4 SWAP3 DUP4 ADD DUP3 DUP3 DUP1 ISZERO PUSH2 0x7FE JUMPI PUSH1 0x20 MUL DUP3 ADD SWAP2 SWAP1 PUSH1 0x0 MSTORE PUSH1 0x20 PUSH1 0x0 KECCAK256 SWAP1 DUP2 SLOAD DUP2 MSTORE PUSH1 0x20 ADD SWAP1 PUSH1 0x1 ADD SWAP1 DUP1 DUP4 GT PUSH2 0x7EA JUMPI POP POP POP POP POP SWAP1 POP SWAP2 SWAP1 POP JUMP JUMPDEST PUSH1 0x2 PUSH1 0x0 SLOAD SUB PUSH2 0x103F JUMPI PUSH1 0x40 MLOAD PUSH3 0x461BCD PUSH1 0xE5 SHL DUP2 MSTORE PUSH1 0x20 PUSH1 0x4 DUP3 ADD MSTORE PUSH1 0x1F PUSH1 0x24 DUP3 ADD MSTORE PUSH32 0x5265656E7472616E637947756172643A207265656E7472616E742063616C6C00 PUSH1 0x44 DUP3 ADD MSTORE PUSH1 0x64 ADD PUSH2 0x514 JUMP JUMPDEST PUSH1 0x2 PUSH1 0x0 SSTORE JUMP JUMPDEST PUSH1 0x0 PUSH1 0x20 DUP3 DUP5 SUB SLT ISZERO PUSH2 0x1058 JUMPI PUSH1 0x0 DUP1 REVERT JUMPDEST POP CALLDATALOAD SWAP2 SWAP1 POP JUMP JUMPDEST PUSH1 0x0 DUP2 MLOAD DUP1 DUP5 MSTORE PUSH1 0x0 JUMPDEST DUP2 DUP2 LT ISZERO PUSH2 0x1085 JUMPI PUSH1 0x20 DUP2 DUP6 ADD DUP2 ADD MLOAD DUP7 DUP4 ADD DUP3 ADD MSTORE ADD PUSH2 0x1069 JUMP JUMPDEST POP PUSH1 0x0 PUSH1 0x20 DUP3 DUP7 ADD ADD MSTORE PUSH1 0x20 PUSH1 0x1F NOT PUSH1 0x1F DUP4 ADD AND DUP6 ADD ADD SWAP2 POP POP SWAP3 SWAP2 POP POP JUMP JUMPDEST PUSH4 0x4E487B71 PUSH1 0xE0 SHL PUSH1 0x0 MSTORE PUSH1 0x21 PUSH1 0x4 MSTORE PUSH1 0x24 PUSH1 0x0 REVERT JUMPDEST PUSH1 0x4 DUP2 LT PUSH2 0x10CB JUMPI PUSH2 0x10CB PUSH2 0x10A5 JUMP JUMPDEST SWAP1 MSTORE JUMP JUMPDEST PUSH1 0x5 DUP2 LT PUSH2 0x10CB JUMPI PUSH2 0x10CB PUSH2 0x10A5 JUMP JUMPDEST DUP15 DUP2 MSTORE PUSH1 0x1 PUSH1 0x1 PUSH1 0xA0 SHL SUB DUP15 AND PUSH1 0x20 DUP3 ADD MSTORE PUSH2 0x1C0 PUSH1 0x40 DUP3 ADD MSTORE PUSH1 0x0 PUSH2 0x1109 PUSH2 0x1C0 DUP4 ADD DUP16 PUSH2 0x105F JUMP JUMPDEST DUP3 DUP2 SUB PUSH1 0x60 DUP5 ADD MSTORE PUSH2 0x111B DUP2 DUP16 PUSH2 0x105F JUMP JUMPDEST SWAP1 POP DUP3 DUP2 SUB PUSH1 0x80 DUP5 ADD MSTORE PUSH2 0x112F DUP2 DUP15 PUSH2 0x105F JUMP JUMPDEST SWAP1 POP PUSH2 0x113E PUSH1 0xA0 DUP5 ADD DUP14 PUSH2 0x10BB JUMP JUMPDEST PUSH2 0x114B PUSH1 0xC0 DUP5 ADD DUP13 PUSH2 0x10CF JUMP JUMPDEST PUSH1 0x1 PUSH1 0x1 PUSH1 0xA0 SHL SUB DUP11 AND PUSH1 0xE0 DUP5 ADD MSTORE DUP3 DUP2 SUB PUSH2 0x100 DUP5 ADD MSTORE PUSH2 0x116D DUP2 DUP11 PUSH2 0x105F JUMP JUMPDEST SWAP2 POP POP DUP7 PUSH2 0x120 DUP4 ADD MSTORE DUP6 PUSH2 0x140 DUP4 ADD MSTORE DUP5 PUSH2 0x160 DUP4 ADD MSTORE PUSH2 0x1195 PUSH2 0x180 DUP4 ADD DUP6 PUSH1 0x0 SIGNEXTEND SWAP1 MSTORE JUMP JUMPDEST DUP3 ISZERO ISZERO PUSH2 0x1A0 DUP4 ADD MSTORE SWAP16 SWAP15 POP POP POP POP POP POP POP POP POP POP POP POP POP POP POP JUMP JUMPDEST PUSH4 0x4E487B71 PUSH1 0xE0 SHL PUSH1 0x0 MSTORE PUSH1 0x41 PUSH1 0x4 MSTORE PUSH1 0x24 PUSH1 0x0 REVERT JUMPDEST PUSH1 0x0 DUP3 PUSH1 0x1F DUP4 ADD SLT PUSH2 0x11D8 JUMPI PUSH1 0x0 DUP1 REVERT JUMPDEST DUP2 CALLDATALOAD PUSH8 0xFFFFFFFFFFFFFFFF DUP1 DUP3 GT ISZERO PUSH2 0x11F3 JUMPI PUSH2 0x11F3 PUSH2 0x11B1 JUMP JUMPDEST PUSH1 0x40 MLOAD PUSH1 0x1F DUP4 ADD PUSH1 0x1F NOT SWAP1 DUP2 AND PUSH1 0x3F ADD AND DUP2 ADD SWAP1 DUP3 DUP3 GT DUP2 DUP4 LT OR ISZERO PUSH2 0x121B JUMPI PUSH2 0x121B PUSH2 0x11B1 JUMP JUMPDEST DUP2 PUSH1 0x40 MSTORE DUP4 DUP2 MSTORE DUP7 PUSH1 0x20 DUP6 DUP9 ADD ADD GT ISZERO PUSH2 0x1234 JUMPI PUSH1 0x0 DUP1 REVERT JUMPDEST DUP4 PUSH1 0x20 DUP8 ADD PUSH1 0x20 DUP4 ADD CALLDATACOPY PUSH1 0x0 PUSH1 0x20 DUP6 DUP4 ADD ADD MSTORE DUP1 SWAP5 POP POP POP POP POP SWAP3 SWAP2 POP POP JUMP JUMPDEST PUSH1 0x0 DUP1 PUSH1 0x40 DUP4 DUP6 SUB SLT ISZERO PUSH2 0x1267 JUMPI PUSH1 0x0 DUP1 REVERT JUMPDEST DUP3 CALLDATALOAD SWAP2 POP PUSH1 0x20 DUP4 ADD CALLDATALOAD PUSH8 0xFFFFFFFFFFFFFFFF DUP2 GT ISZERO PUSH2 0x1285 JUMPI PUSH1 0x0 DUP1 REVERT JUMPDEST PUSH2 0x1291 DUP6 DUP3 DUP7 ADD PUSH2 0x11C7 JUMP JUMPDEST SWAP2 POP POP SWAP3 POP SWAP3 SWAP1 POP JUMP JUMPDEST DUP1 CALLDATALOAD PUSH1 0x1 PUSH1 0x1 PUSH1 0xA0 SHL SUB DUP2 AND DUP2 EQ PUSH2 0x12B2 JUMPI PUSH1 0x0 DUP1 REVERT JUMPDEST SWAP2 SWAP1 POP JUMP JUMPDEST PUSH1 0x0 DUP1 PUSH1 0x40 DUP4 DUP6 SUB SLT ISZERO PUSH2 0x12CA JUMPI PUSH1 0x0 DUP1 REVERT JUMPDEST PUSH2 0x12D3 DUP4 PUSH2 0x129B JUMP JUMPDEST SWAP5 PUSH1 0x20 SWAP4 SWAP1 SWAP4 ADD CALLDATALOAD SWAP4 POP POP POP JUMP JUMPDEST PUSH1 0x0 DUP1 PUSH1 0x40 DUP4 DUP6 SUB SLT ISZERO PUSH2 0x12F4 JUMPI PUSH1 0x0 DUP1 REVERT JUMPDEST PUSH2 0x12FD DUP4 PUSH2 0x129B JUMP JUMPDEST SWAP2 POP PUSH1 0x20 DUP4 ADD CALLDATALOAD PUSH8 0xFFFFFFFFFFFFFFFF DUP2 GT ISZERO PUSH2 0x1285 JUMPI PUSH1 0x0 DUP1 REVERT JUMPDEST PUSH1 0x0 PUSH1 0x20 DUP3 DUP5 SUB SLT ISZERO PUSH2 0x132B JUMPI PUSH1 0x0 DUP1 REVERT JUMPDEST PUSH2 0x1334 DUP3 PUSH2 0x129B JUMP JUMPDEST SWAP4 SWAP3 POP POP POP JUMP JUMPDEST PUSH1 0x20 DUP1 DUP3 MSTORE DUP3 MLOAD DUP3 DUP3 ADD DUP2 SWAP1 MSTORE PUSH1 0x0 SWAP2 SWAP1 DUP5 DUP3 ADD SWAP1 PUSH1 0x40 DUP6 ADD SWAP1 DUP5 JUMPDEST DUP2 DUP2 LT ISZERO PUSH2 0x1373 JUMPI DUP4 MLOAD DUP4 MSTORE SWAP3 DUP5 ADD SWAP3 SWAP2 DUP5 ADD SWAP2 PUSH1 0x1 ADD PUSH2 0x1357 JUMP JUMPDEST POP SWAP1 SWAP7 SWAP6 POP POP POP POP POP POP JUMP JUMPDEST PUSH1 0x0 DUP1 PUSH1 0x0 DUP1 PUSH1 0x0 PUSH1 0xA0 DUP7 DUP9 SUB SLT ISZERO PUSH2 0x1397 JUMPI PUSH1 0x0 DUP1 REVERT JUMPDEST DUP6 CALLDATALOAD PUSH8 0xFFFFFFFFFFFFFFFF DUP1 DUP3 GT ISZERO PUSH2 0x13AF JUMPI PUSH1 0x0 DUP1 REVERT JUMPDEST PUSH2 0x13BB DUP10 DUP4 DUP11 ADD PUSH2 0x11C7 JUMP JUMPDEST SWAP7 POP PUSH1 0x20 DUP9 ADD CALLDATALOAD SWAP2 POP DUP1 DUP3 GT ISZERO PUSH2 0x13D1 JUMPI PUSH1 0x0 DUP1 REVERT JUMPDEST PUSH2 0x13DD DUP10 DUP4 DUP11 ADD PUSH2 0x11C7 JUMP JUMPDEST SWAP6 POP PUSH1 0x40 DUP9 ADD CALLDATALOAD SWAP2 POP DUP1 DUP3 GT ISZERO PUSH2 0x13F3 JUMPI PUSH1 0x0 DUP1 REVERT JUMPDEST POP PUSH2 0x1400 DUP9 DUP3 DUP10 ADD PUSH2 0x11C7 JUMP JUMPDEST SWAP4 POP POP PUSH1 0x60 DUP7 ADD CALLDATALOAD PUSH1 0x4 DUP2 LT PUSH2 0x1415 JUMPI PUSH1 0x0 DUP1 REVERT JUMPDEST SWAP2 POP PUSH1 0x80 DUP7 ADD CALLDATALOAD PUSH1 0x0 DUP2 SWAP1 SIGNEXTEND DUP2 EQ PUSH2 0x142C JUMPI PUSH1 0x0 DUP1 REVERT JUMPDEST DUP1 SWAP2 POP POP SWAP3 SWAP6 POP SWAP3 SWAP6 SWAP1 SWAP4 POP JUMP JUMPDEST PUSH1 0x0 DUP1 PUSH1 0x40 DUP4 DUP6 SUB SLT ISZERO PUSH2 0x144D JUMPI PUSH1 0x0 DUP1 REVERT JUMPDEST DUP3 CALLDATALOAD SWAP2 POP PUSH1 0x20 DUP4 ADD CALLDATALOAD PUSH1 0x5 DUP2 LT PUSH2 0x1463 JUMPI PUSH1 0x0 DUP1 REVERT JUMPDEST DUP1 SWAP2 POP POP SWAP3 POP SWAP3 SWAP1 POP JUMP JUMPDEST PUSH1 0x0 DUP1 PUSH1 0x40 DUP4 DUP6 SUB SLT ISZERO PUSH2 0x1481 JUMPI PUSH1 0x0 DUP1 REVERT JUMPDEST DUP3 CALLDATALOAD SWAP2 POP PUSH2 0x1491 PUSH1 0x20 DUP5 ADD PUSH2 0x129B JUMP JUMPDEST SWAP1 POP SWAP3 POP SWAP3 SWAP1 POP JUMP JUMPDEST PUSH1 0x1 DUP2 DUP2 SHR SWAP1 DUP3 AND DUP1 PUSH2 0x14AE JUMPI PUSH1 0x7F DUP3 AND SWAP2 POP JUMPDEST PUSH1 0x20 DUP3 LT DUP2 SUB PUSH2 0x14CE JUMPI PUSH4 0x4E487B71 PUSH1 0xE0 SHL PUSH1 0x0 MSTORE PUSH1 0x22 PUSH1 0x4 MSTORE PUSH1 0x24 PUSH1 0x0 REVERT JUMPDEST POP SWAP2 SWAP1 POP JUMP JUMPDEST PUSH1 0x20 DUP1 DUP3 MSTORE PUSH1 0x16 SWAP1 DUP3 ADD MSTORE PUSH22 0x2737BA1030BABA3437B934BD32B21037B33334B1B2B9 PUSH1 0x51 SHL PUSH1 0x40 DUP3 ADD MSTORE PUSH1 0x60 ADD SWAP1 JUMP JUMPDEST PUSH1 0x20 DUP1 DUP3 MSTORE PUSH1 0x14 SWAP1 DUP3 ADD MSTORE PUSH20 0x4772696576616E6365206E6F7420616374697665 PUSH1 0x60 SHL PUSH1 0x40 DUP3 ADD MSTORE PUSH1 0x60 ADD SWAP1 JUMP JUMPDEST PUSH1 0x1F DUP3 GT ISZERO PUSH2 0x157C JUMPI PUSH1 0x0 DUP2 DUP2 MSTORE PUSH1 0x20 DUP2 KECCAK256 PUSH1 0x1F DUP6 ADD PUSH1 0x5 SHR DUP2 ADD PUSH1 0x20 DUP7 LT ISZERO PUSH2 0x1559 JUMPI POP DUP1 JUMPDEST PUSH1 0x1F DUP6 ADD PUSH1 0x5 SHR DUP3 ADD SWAP2 POP JUMPDEST DUP2 DUP2 LT ISZERO PUSH2 0x1578 JUMPI DUP3 DUP2 SSTORE PUSH1 0x1 ADD PUSH2 0x1565 JUMP JUMPDEST POP POP POP JUMPDEST POP POP POP JUMP JUMPDEST DUP2 MLOAD PUSH8 0xFFFFFFFFFFFFFFFF DUP2 GT ISZERO PUSH2 0x159B JUMPI PUSH2 0x159B PUSH2 0x11B1 JUMP JUMPDEST PUSH2 0x15AF DUP2 PUSH2 0x15A9 DUP5 SLOAD PUSH2 0x149A JUMP JUMPDEST DUP5 PUSH2 0x1532 JUMP JUMPDEST PUSH1 0x20 DUP1 PUSH1 0x1F DUP4 GT PUSH1 0x1 DUP2 EQ PUSH2 0x15E4 JUMPI PUSH1 0x0 DUP5 ISZERO PUSH2 0x15CC JUMPI POP DUP6 DUP4 ADD MLOAD JUMPDEST PUSH1 0x0 NOT PUSH1 0x3 DUP7 SWAP1 SHL SHR NOT AND PUSH1 0x1 DUP6 SWAP1 SHL OR DUP6 SSTORE PUSH2 0x1578 JUMP JUMPDEST PUSH1 0x0 DUP6 DUP2 MSTORE PUSH1 0x20 DUP2 KECCAK256 PUSH1 0x1F NOT DUP7 AND SWAP2 JUMPDEST DUP3 DUP2 LT ISZERO PUSH2 0x1613 JUMPI DUP9 DUP7 ADD MLOAD DUP3 SSTORE SWAP5 DUP5 ADD SWAP5 PUSH1 0x1 SWAP1 SWAP2 ADD SWAP1 DUP5 ADD PUSH2 0x15F4 JUMP JUMPDEST POP DUP6 DUP3 LT ISZERO PUSH2 0x1631 JUMPI DUP8 DUP6 ADD MLOAD PUSH1 0x0 NOT PUSH1 0x3 DUP9 SWAP1 SHL PUSH1 0xF8 AND SHR NOT AND DUP2 SSTORE JUMPDEST POP POP POP POP POP PUSH1 0x1 SWAP1 DUP2 SHL ADD SWAP1 SSTORE POP JUMP JUMPDEST PUSH1 0x40 DUP2 MSTORE PUSH1 0x0 PUSH2 0x1654 PUSH1 0x40 DUP4 ADD DUP6 PUSH2 0x105F JUMP JUMPDEST SWAP1 POP DUP3 PUSH1 0x20 DUP4 ADD MSTORE SWAP4 SWAP3 POP POP POP JUMP JUMPDEST PUSH1 0x20 DUP2 MSTORE PUSH1 0x0 PUSH2 0x1334 PUSH1 0x20 DUP4 ADD DUP5 PUSH2 0x105F JUMP JUMPDEST PUSH1 0x0 PUSH1 0x20 DUP3 DUP5 SUB SLT ISZERO PUSH2 0x1688 JUMPI PUSH1 0x0 DUP1 REVERT JUMPDEST DUP2 MLOAD DUP1 ISZERO ISZERO DUP2 EQ PUSH2 0x1334 JUMPI PUSH1 0x0 DUP1 REVERT JUMPDEST PUSH1 0x0 PUSH1 0x1 DUP3 ADD PUSH2 0x16B8 JUMPI PUSH4 0x4E487B71 PUSH1 0xE0 SHL PUSH1 0x0 MSTORE PUSH1 0x11 PUSH1 0x4 MSTORE PUSH1 0x24 PUSH1 0x0 REVERT JUMPDEST POP PUSH1 0x1 ADD SWAP1 JUMP JUMPDEST PUSH1 0x40 DUP2 ADD PUSH2 0x16CD DUP3 DUP6 PUSH2 0x10CF JUMP JUMPDEST DUP3 PUSH1 0x20 DUP4 ADD MSTORE SWAP4 SWAP3 POP POP POP JUMP INVALID LOG2 PUSH5 0x6970667358 0x22 SLT KECCAK256 PUSH11 0x202E869C2290B37DA9703E 0xD5 0xD4 SELFBALANCE PUSH27 0xADE92495C02E8A895A783E5433C0627264736F6C63430008130033 "},"methodIdentifiers":{"assignGrievance(uint256,address)":"be4d7853","authorizeOfficer(address,string)":"3aa49ed9","authorizedOfficers(address)":"4a7b7677","citizenGrievances(address,uint256)":"37ce555e","citizenRegistry()":"386ca89d","getCitizenGrievances(address)":"e9a8735e","getOfficerGrievances(address)":"493c95ab","grievances(uint256)":"356f1d75","nextGrievanceId()":"0963e583","officerGrievances(address,uint256)":"3d014b6d","resolveGrievance(uint256,string)":"36734f81","submitGrievance(string,string,string,uint8,int8)":"651a39dd","updateGrievanceStatus(uint256,uint8)":"a59612ab"}}}}}