{
  "_format": "hh-sol-artifact-1",
  "contractName": "GrievanceSystem",
  "sourceName": "contracts/GrievanceSystem.sol",
  "abi": [
    {
      "inputs": [],
      "stateMutability": "nonpayable",
      "type": "constructor"
    },
    {
      "inputs": [
        {
          "internalType": "address",
          "name": "owner",
          "type": "address"
        }
      ],
      "name": "OwnableInvalidOwner",
      "type": "error"
    },
    {
      "inputs": [
        {
          "internalType": "address",
          "name": "account",
          "type": "address"
        }
      ],
      "name": "OwnableUnauthorizedAccount",
      "type": "error"
    },
    {
      "inputs": [],
      "name": "ReentrancyGuardReentrantCall",
      "type": "error"
    },
    {
      "anonymous": false,
      "inputs": [
        {
          "indexed": true,
          "internalType": "uint256",
          "name": "grievanceId",
          "type": "uint256"
        },
        {
          "indexed": true,
          "internalType": "address",
          "name": "author",
          "type": "address"
        },
        {
          "indexed": false,
          "internalType": "string",
          "name": "content",
          "type": "string"
        },
        {
          "indexed": false,
          "internalType": "bool",
          "name": "isOfficial",
          "type": "bool"
        },
        {
          "indexed": false,
          "internalType": "uint256",
          "name": "timestamp",
          "type": "uint256"
        }
      ],
      "name": "CommentAdded",
      "type": "event"
    },
    {
      "anonymous": false,
      "inputs": [
        {
          "indexed": true,
          "internalType": "uint256",
          "name": "grievanceId",
          "type": "uint256"
        },
        {
          "indexed": true,
          "internalType": "address",
          "name": "officer",
          "type": "address"
        },
        {
          "indexed": false,
          "internalType": "uint256",
          "name": "timestamp",
          "type": "uint256"
        }
      ],
      "name": "GrievanceAssigned",
      "type": "event"
    },
    {
      "anonymous": false,
      "inputs": [
        {
          "indexed": true,
          "internalType": "uint256",
          "name": "grievanceId",
          "type": "uint256"
        },
        {
          "indexed": true,
          "internalType": "address",
          "name": "officer",
          "type": "address"
        },
        {
          "indexed": false,
          "internalType": "string",
          "name": "resolution",
          "type": "string"
        },
        {
          "indexed": false,
          "internalType": "uint256",
          "name": "timestamp",
          "type": "uint256"
        }
      ],
      "name": "GrievanceResolved",
      "type": "event"
    },
    {
      "anonymous": false,
      "inputs": [
        {
          "indexed": true,
          "internalType": "uint256",
          "name": "grievanceId",
          "type": "uint256"
        },
        {
          "indexed": false,
          "internalType": "enum GrievanceSystem.Status",
          "name": "oldStatus",
          "type": "uint8"
        },
        {
          "indexed": false,
          "internalType": "enum GrievanceSystem.Status",
          "name": "newStatus",
          "type": "uint8"
        },
        {
          "indexed": false,
          "internalType": "uint256",
          "name": "timestamp",
          "type": "uint256"
        }
      ],
      "name": "GrievanceStatusUpdated",
      "type": "event"
    },
    {
      "anonymous": false,
      "inputs": [
        {
          "indexed": true,
          "internalType": "uint256",
          "name": "grievanceId",
          "type": "uint256"
        },
        {
          "indexed": true,
          "internalType": "address",
          "name": "citizen",
          "type": "address"
        },
        {
          "indexed": false,
          "internalType": "enum GrievanceSystem.Category",
          "name": "category",
          "type": "uint8"
        },
        {
          "indexed": false,
          "internalType": "enum GrievanceSystem.Priority",
          "name": "priority",
          "type": "uint8"
        },
        {
          "indexed": false,
          "internalType": "uint256",
          "name": "timestamp",
          "type": "uint256"
        }
      ],
      "name": "GrievanceSubmitted",
      "type": "event"
    },
    {
      "anonymous": false,
      "inputs": [
        {
          "indexed": true,
          "internalType": "address",
          "name": "officer",
          "type": "address"
        },
        {
          "indexed": false,
          "internalType": "uint256",
          "name": "timestamp",
          "type": "uint256"
        }
      ],
      "name": "OfficerAdded",
      "type": "event"
    },
    {
      "anonymous": false,
      "inputs": [
        {
          "indexed": true,
          "internalType": "address",
          "name": "officer",
          "type": "address"
        },
        {
          "indexed": false,
          "internalType": "uint256",
          "name": "timestamp",
          "type": "uint256"
        }
      ],
      "name": "OfficerRemoved",
      "type": "event"
    },
    {
      "anonymous": false,
      "inputs": [
        {
          "indexed": true,
          "internalType": "address",
          "name": "previousOwner",
          "type": "address"
        },
        {
          "indexed": true,
          "internalType": "address",
          "name": "newOwner",
          "type": "address"
        }
      ],
      "name": "OwnershipTransferred",
      "type": "event"
    },
    {
      "inputs": [
        {
          "internalType": "uint256",
          "name": "_grievanceId",
          "type": "uint256"
        },
        {
          "internalType": "string",
          "name": "_content",
          "type": "string"
        }
      ],
      "name": "addComment",
      "outputs": [],
      "stateMutability": "nonpayable",
      "type": "function"
    },
    {
      "inputs": [
        {
          "internalType": "address",
          "name": "_officer",
          "type": "address"
        }
      ],
      "name": "addOfficer",
      "outputs": [],
      "stateMutability": "nonpayable",
      "type": "function"
    },
    {
      "inputs": [
        {
          "internalType": "uint256",
          "name": "_grievanceId",
          "type": "uint256"
        },
        {
          "internalType": "address",
          "name": "_officer",
          "type": "address"
        }
      ],
      "name": "assignGrievance",
      "outputs": [],
      "stateMutability": "nonpayable",
      "type": "function"
    },
    {
      "inputs": [
        {
          "internalType": "enum GrievanceSystem.Category",
          "name": "",
          "type": "uint8"
        }
      ],
      "name": "categoryOfficers",
      "outputs": [
        {
          "internalType": "address",
          "name": "",
          "type": "address"
        }
      ],
      "stateMutability": "view",
      "type": "function"
    },
    {
      "inputs": [
        {
          "internalType": "address",
          "name": "",
          "type": "address"
        },
        {
          "internalType": "uint256",
          "name": "",
          "type": "uint256"
        }
      ],
      "name": "citizenGrievances",
      "outputs": [
        {
          "internalType": "uint256",
          "name": "",
          "type": "uint256"
        }
      ],
      "stateMutability": "view",
      "type": "function"
    },
    {
      "inputs": [
        {
          "internalType": "address",
          "name": "_citizen",
          "type": "address"
        }
      ],
      "name": "getCitizenGrievances",
      "outputs": [
        {
          "internalType": "uint256[]",
          "name": "",
          "type": "uint256[]"
        }
      ],
      "stateMutability": "view",
      "type": "function"
    },
    {
      "inputs": [
        {
          "internalType": "uint256",
          "name": "_grievanceId",
          "type": "uint256"
        }
      ],
      "name": "getGrievance",
      "outputs": [
        {
          "components": [
            {
              "internalType": "uint256",
              "name": "id",
              "type": "uint256"
            },
            {
              "internalType": "address",
              "name": "citizen",
              "type": "address"
            },
            {
              "internalType": "string",
              "name": "title",
              "type": "string"
            },
            {
              "internalType": "string",
              "name": "description",
              "type": "string"
            },
            {
              "internalType": "enum GrievanceSystem.Category",
              "name": "category",
              "type": "uint8"
            },
            {
              "internalType": "enum GrievanceSystem.Priority",
              "name": "priority",
              "type": "uint8"
            },
            {
              "internalType": "enum GrievanceSystem.Status",
              "name": "status",
              "type": "uint8"
            },
            {
              "internalType": "uint256",
              "name": "submitDate",
              "type": "uint256"
            },
            {
              "internalType": "uint256",
              "name": "resolvedDate",
              "type": "uint256"
            },
            {
              "internalType": "address",
              "name": "assignedOfficer",
              "type": "address"
            },
            {
              "internalType": "string",
              "name": "resolution",
              "type": "string"
            },
            {
              "internalType": "uint256",
              "name": "satisfactionRating",
              "type": "uint256"
            },
            {
              "internalType": "string[]",
              "name": "comments",
              "type": "string[]"
            },
            {
              "internalType": "string",
              "name": "location",
              "type": "string"
            },
            {
              "internalType": "string[]",
              "name": "attachments",
              "type": "string[]"
            }
          ],
          "internalType": "struct GrievanceSystem.Grievance",
          "name": "",
          "type": "tuple"
        }
      ],
      "stateMutability": "view",
      "type": "function"
    },
    {
      "inputs": [
        {
          "internalType": "uint256",
          "name": "_grievanceId",
          "type": "uint256"
        }
      ],
      "name": "getGrievanceComments",
      "outputs": [
        {
          "components": [
            {
              "internalType": "address",
              "name": "author",
              "type": "address"
            },
            {
              "internalType": "string",
              "name": "content",
              "type": "string"
            },
            {
              "internalType": "uint256",
              "name": "timestamp",
              "type": "uint256"
            },
            {
              "internalType": "bool",
              "name": "isOfficial",
              "type": "bool"
            }
          ],
          "internalType": "struct GrievanceSystem.Comment[]",
          "name": "",
          "type": "tuple[]"
        }
      ],
      "stateMutability": "view",
      "type": "function"
    },
    {
      "inputs": [
        {
          "internalType": "enum GrievanceSystem.Status",
          "name": "_status",
          "type": "uint8"
        }
      ],
      "name": "getGrievancesByStatus",
      "outputs": [
        {
          "internalType": "uint256[]",
          "name": "",
          "type": "uint256[]"
        }
      ],
      "stateMutability": "view",
      "type": "function"
    },
    {
      "inputs": [
        {
          "internalType": "address",
          "name": "_officer",
          "type": "address"
        }
      ],
      "name": "getOfficerGrievances",
      "outputs": [
        {
          "internalType": "uint256[]",
          "name": "",
          "type": "uint256[]"
        }
      ],
      "stateMutability": "view",
      "type": "function"
    },
    {
      "inputs": [
        {
          "internalType": "uint256",
          "name": "",
          "type": "uint256"
        },
        {
          "internalType": "uint256",
          "name": "",
          "type": "uint256"
        }
      ],
      "name": "grievanceComments",
      "outputs": [
        {
          "internalType": "address",
          "name": "author",
          "type": "address"
        },
        {
          "internalType": "string",
          "name": "content",
          "type": "string"
        },
        {
          "internalType": "uint256",
          "name": "timestamp",
          "type": "uint256"
        },
        {
          "internalType": "bool",
          "name": "isOfficial",
          "type": "bool"
        }
      ],
      "stateMutability": "view",
      "type": "function"
    },
    {
      "inputs": [
        {
          "internalType": "uint256",
          "name": "",
          "type": "uint256"
        }
      ],
      "name": "grievances",
      "outputs": [
        {
          "internalType": "uint256",
          "name": "id",
          "type": "uint256"
        },
        {
          "internalType": "address",
          "name": "citizen",
          "type": "address"
        },
        {
          "internalType": "string",
          "name": "title",
          "type": "string"
        },
        {
          "internalType": "string",
          "name": "description",
          "type": "string"
        },
        {
          "internalType": "enum GrievanceSystem.Category",
          "name": "category",
          "type": "uint8"
        },
        {
          "internalType": "enum GrievanceSystem.Priority",
          "name": "priority",
          "type": "uint8"
        },
        {
          "internalType": "enum GrievanceSystem.Status",
          "name": "status",
          "type": "uint8"
        },
        {
          "internalType": "uint256",
          "name": "submitDate",
          "type": "uint256"
        },
        {
          "internalType": "uint256",
          "name": "resolvedDate",
          "type": "uint256"
        },
        {
          "internalType": "address",
          "name": "assignedOfficer",
          "type": "address"
        },
        {
          "internalType": "string",
          "name": "resolution",
          "type": "string"
        },
        {
          "internalType": "uint256",
          "name": "satisfactionRating",
          "type": "uint256"
        },
        {
          "internalType": "string",
          "name": "location",
          "type": "string"
        }
      ],
      "stateMutability": "view",
      "type": "function"
    },
    {
      "inputs": [
        {
          "internalType": "address",
          "name": "",
          "type": "address"
        },
        {
          "internalType": "uint256",
          "name": "",
          "type": "uint256"
        }
      ],
      "name": "officerGrievances",
      "outputs": [
        {
          "internalType": "uint256",
          "name": "",
          "type": "uint256"
        }
      ],
      "stateMutability": "view",
      "type": "function"
    },
    {
      "inputs": [
        {
          "internalType": "address",
          "name": "",
          "type": "address"
        }
      ],
      "name": "officers",
      "outputs": [
        {
          "internalType": "bool",
          "name": "",
          "type": "bool"
        }
      ],
      "stateMutability": "view",
      "type": "function"
    },
    {
      "inputs": [],
      "name": "owner",
      "outputs": [
        {
          "internalType": "address",
          "name": "",
          "type": "address"
        }
      ],
      "stateMutability": "view",
      "type": "function"
    },
    {
      "inputs": [
        {
          "internalType": "uint256",
          "name": "_grievanceId",
          "type": "uint256"
        },
        {
          "internalType": "uint256",
          "name": "_rating",
          "type": "uint256"
        }
      ],
      "name": "rateSatisfaction",
      "outputs": [],
      "stateMutability": "nonpayable",
      "type": "function"
    },
    {
      "inputs": [
        {
          "internalType": "address",
          "name": "_officer",
          "type": "address"
        }
      ],
      "name": "removeOfficer",
      "outputs": [],
      "stateMutability": "nonpayable",
      "type": "function"
    },
    {
      "inputs": [],
      "name": "renounceOwnership",
      "outputs": [],
      "stateMutability": "nonpayable",
      "type": "function"
    },
    {
      "inputs": [
        {
          "internalType": "uint256",
          "name": "_grievanceId",
          "type": "uint256"
        },
        {
          "internalType": "string",
          "name": "_resolution",
          "type": "string"
        }
      ],
      "name": "resolveGrievance",
      "outputs": [],
      "stateMutability": "nonpayable",
      "type": "function"
    },
    {
      "inputs": [
        {
          "internalType": "enum GrievanceSystem.Category",
          "name": "_category",
          "type": "uint8"
        },
        {
          "internalType": "address",
          "name": "_officer",
          "type": "address"
        }
      ],
      "name": "setCategoryOfficer",
      "outputs": [],
      "stateMutability": "nonpayable",
      "type": "function"
    },
    {
      "inputs": [
        {
          "internalType": "string",
          "name": "_title",
          "type": "string"
        },
        {
          "internalType": "string",
          "name": "_description",
          "type": "string"
        },
        {
          "internalType": "enum GrievanceSystem.Category",
          "name": "_category",
          "type": "uint8"
        },
        {
          "internalType": "enum GrievanceSystem.Priority",
          "name": "_priority",
          "type": "uint8"
        },
        {
          "internalType": "string",
          "name": "_location",
          "type": "string"
        },
        {
          "internalType": "string[]",
          "name": "_attachments",
          "type": "string[]"
        }
      ],
      "name": "submitGrievance",
      "outputs": [
        {
          "internalType": "uint256",
          "name": "",
          "type": "uint256"
        }
      ],
      "stateMutability": "nonpayable",
      "type": "function"
    },
    {
      "inputs": [],
      "name": "totalGrievances",
      "outputs": [
        {
          "internalType": "uint256",
          "name": "",
          "type": "uint256"
        }
      ],
      "stateMutability": "view",
      "type": "function"
    },
    {
      "inputs": [
        {
          "internalType": "address",
          "name": "newOwner",
          "type": "address"
        }
      ],
      "name": "transferOwnership",
      "outputs": [],
      "stateMutability": "nonpayable",
      "type": "function"
    },
    {
      "inputs": [
        {
          "internalType": "uint256",
          "name": "_grievanceId",
          "type": "uint256"
        },
        {
          "internalType": "enum GrievanceSystem.Status",
          "name": "_newStatus",
          "type": "uint8"
        }
      ],
      "name": "updateGrievanceStatus",
      "outputs": [],
      "stateMutability": "nonpayable",
      "type": "function"
    }
  ],
  "bytecode": "0x608060405260016008553480156200001657600080fd5b5033806200003e57604051631e4fbdf760e01b81526000600482015260240160405180910390fd5b62000049816200006f565b506001808055336000908152600660205260409020805460ff19169091179055620000bf565b600080546001600160a01b038381166001600160a01b0319831681178455604051919092169283917f8be0079c531659141344cd1fd0a4f28419497f9722a3daafe3b4186f6b6457e09190a35050565b613e1480620000cf6000396000f3fe608060405234801561001057600080fd5b50600436106101585760003560e01c806360fb8c71116100c3578063aa7e56831161007c578063aa7e568314610359578063be4d78531461036c578063c6aa8a371461037f578063d9803cb214610388578063e9a8735e1461039b578063f2fde38b146103ae57600080fd5b806360fb8c71146102e7578063715018a6146102fa578063719a0f8c146103025780638da5cb5b146103155780639537088314610326578063a59612ab1461034657600080fd5b806336734f811161011557806336734f811461022957806337ce555e1461023c5780633d014b6d1461025d578063493c95ab146102705780635160e5be1461028357806353e7a6bc146102a657600080fd5b8063084866dd1461015d5780630b710b651461019557806314ec1c5e146101aa57806319821777146101ca57806325349a74146101ea578063356f1d75146101fd575b600080fd5b61018061016b36600461332f565b60066020526000908152604090205460ff1681565b60405190151581526020015b60405180910390f35b6101a86101a3366004613360565b6103c1565b005b6101bd6101b83660046133a2565b610486565b60405161018c91906133bd565b6101dd6101d8366004613401565b610607565b60405161018c9190613460565b6101a86101f83660046134f8565b610cfc565b61021061020b366004613401565b610e93565b60405161018c9d9c9b9a99989796959493929190613564565b6101a86102373660046136e7565b611134565b61024f61024a36600461372e565b611314565b60405190815260200161018c565b61024f61026b36600461372e565b611345565b6101bd61027e36600461332f565b611361565b6102966102913660046134f8565b6113cd565b60405161018c9493929190613758565b6102cf6102b4366004613794565b6007602052600090815260409020546001600160a01b031681565b6040516001600160a01b03909116815260200161018c565b61024f6102f536600461385d565b6114ad565b6101a86118cb565b6101a861031036600461332f565b6118df565b6000546001600160a01b03166102cf565b610339610334366004613401565b6119ff565b60405161018c919061397c565b6101a8610354366004613ada565b6124db565b6101a86103673660046136e7565b61263e565b6101a861037a366004613afd565b612d47565b61024f60095481565b6101a861039636600461332f565b612e22565b6101bd6103a936600461332f565b612f25565b6101a86103bc36600461332f565b612f8f565b6103c9612fcd565b6001600160a01b03811660009081526006602052604090205460ff166104285760405162461bcd60e51b815260206004820152600f60248201526e24b73b30b634b21037b33334b1b2b960891b60448201526064015b60405180910390fd5b806007600084600881111561043f5761043f61351a565b60088111156104505761045061351a565b815260200190815260200160002060006101000a8154816001600160a01b0302191690836001600160a01b031602179055505050565b6060600060095467ffffffffffffffff8111156104a5576104a5613630565b6040519080825280602002602001820160405280156104ce578160200160208202803683370190505b509050600060015b600854811015610562578460048111156104f2576104f261351a565b600082815260026020526040902060049081015462010000900460ff169081111561051f5761051f61351a565b03610550578083838151811061053757610537613b20565b60209081029190910101528161054c81613b36565b9250505b8061055a81613b36565b9150506104d6565b5060008167ffffffffffffffff81111561057e5761057e613630565b6040519080825280602002602001820160405280156105a7578160200160208202803683370190505b50905060005b828110156105fe578381815181106105c7576105c7613b20565b60200260200101518282815181106105e1576105e1613b20565b6020908102919091010152806105f681613b36565b9150506105ad565b50949350505050565b600081815260026020526040812054606091839190036106395760405162461bcd60e51b815260040161041f90613b5d565b600083815260026020818152604080842081516101e0810183528154815260018201546001600160a01b0316938101939093529283018054889594928401919061068290613b94565b80601f01602080910402602001604051908101604052809291908181526020018280546106ae90613b94565b80156106fb5780601f106106d0576101008083540402835291602001916106fb565b820191906000526020600020905b8154815290600101906020018083116106de57829003601f168201915b5050505050815260200160038201805461071490613b94565b80601f016020809104026020016040519081016040528092919081815260200182805461074090613b94565b801561078d5780601f106107625761010080835404028352916020019161078d565b820191906000526020600020905b81548152906001019060200180831161077057829003601f168201915b5050509183525050600482015460209091019060ff1660088111156107b4576107b461351a565b60088111156107c5576107c561351a565b81526020016004820160019054906101000a900460ff1660038111156107ed576107ed61351a565b60038111156107fe576107fe61351a565b81526020016004820160029054906101000a900460ff1660048111156108265761082661351a565b60048111156108375761083761351a565b8152600582015460208201526006820154604082015260078201546001600160a01b0316606082015260088201805460809092019161087590613b94565b80601f01602080910402602001604051908101604052809291908181526020018280546108a190613b94565b80156108ee5780601f106108c3576101008083540402835291602001916108ee565b820191906000526020600020905b8154815290600101906020018083116108d157829003601f168201915b5050505050815260200160098201548152602001600a8201805480602002602001604051908101604052809291908181526020016000905b828210156109d257838290600052602060002001805461094590613b94565b80601f016020809104026020016040519081016040528092919081815260200182805461097190613b94565b80156109be5780601f10610993576101008083540402835291602001916109be565b820191906000526020600020905b8154815290600101906020018083116109a157829003601f168201915b505050505081526020019060010190610926565b505050508152602001600b820180546109ea90613b94565b80601f0160208091040260200160405190810160405280929190818152602001828054610a1690613b94565b8015610a635780601f10610a3857610100808354040283529160200191610a63565b820191906000526020600020905b815481529060010190602001808311610a4657829003601f168201915b50505050508152602001600c8201805480602002602001604051908101604052809291908181526020016000905b82821015610b3d578382906000526020600020018054610ab090613b94565b80601f0160208091040260200160405190810160405280929190818152602001828054610adc90613b94565b8015610b295780601f10610afe57610100808354040283529160200191610b29565b820191906000526020600020905b815481529060010190602001808311610b0c57829003601f168201915b505050505081526020019060010190610a91565b5050505081525050905080602001516001600160a01b0316336001600160a01b03161480610b8157508061012001516001600160a01b0316336001600160a01b0316145b80610b9b57503360009081526006602052604090205460ff165b80610bb057506000546001600160a01b031633145b610bcc5760405162461bcd60e51b815260040161041f90613bce565b600085815260036020908152604080832080548251818502810185019093528083529193909284015b82821015610cee57600084815260209081902060408051608081019091526004850290910180546001600160a01b031682526001810180549293919291840191610c3e90613b94565b80601f0160208091040260200160405190810160405280929190818152602001828054610c6a90613b94565b8015610cb75780601f10610c8c57610100808354040283529160200191610cb7565b820191906000526020600020905b815481529060010190602001808311610c9a57829003601f168201915b5050509183525050600282015460208083019190915260039092015460ff1615156040909101529082526001929092019101610bf5565b505050509350505050919050565b600082815260026020526040812054839103610d2a5760405162461bcd60e51b815260040161041f90613b5d565b60018210158015610d3c575060058211155b610d7d5760405162461bcd60e51b8152602060048201526012602482015271526174696e67206d75737420626520312d3560701b604482015260640161041f565b600083815260026020526040902060018101546001600160a01b03163314610ddf5760405162461bcd60e51b81526020600482015260156024820152744f6e6c7920636974697a656e2063616e207261746560581b604482015260640161041f565b600260048281015462010000900460ff1690811115610e0057610e0061351a565b14610e465760405162461bcd60e51b815260206004820152601660248201527511dc9a595d985b98d9481b9bdd081c995cdbdb1d995960521b604482015260640161041f565b600981015415610e885760405162461bcd60e51b815260206004820152600d60248201526c105b1c9958591e481c985d1959609a1b604482015260640161041f565b600901919091555050565b600260208190526000918252604090912080546001820154928201805491936001600160a01b03169291610ec690613b94565b80601f0160208091040260200160405190810160405280929190818152602001828054610ef290613b94565b8015610f3f5780601f10610f1457610100808354040283529160200191610f3f565b820191906000526020600020905b815481529060010190602001808311610f2257829003601f168201915b505050505090806003018054610f5490613b94565b80601f0160208091040260200160405190810160405280929190818152602001828054610f8090613b94565b8015610fcd5780601f10610fa257610100808354040283529160200191610fcd565b820191906000526020600020905b815481529060010190602001808311610fb057829003601f168201915b505050506004830154600584015460068501546007860154600887018054969760ff808716986101008804821698506201000090970416956001600160a01b039093169290919061101d90613b94565b80601f016020809104026020016040519081016040528092919081815260200182805461104990613b94565b80156110965780601f1061106b57610100808354040283529160200191611096565b820191906000526020600020905b81548152906001019060200180831161107957829003601f168201915b50505050509080600901549080600b0180546110b190613b94565b80601f01602080910402602001604051908101604052809291908181526020018280546110dd90613b94565b801561112a5780601f106110ff5761010080835404028352916020019161112a565b820191906000526020600020905b81548152906001019060200180831161110d57829003601f168201915b505050505090508d565b3360009081526006602052604090205460ff168061115c57506000546001600160a01b031633145b6111785760405162461bcd60e51b815260040161041f90613c15565b6000828152600260205260408120548391036111a65760405162461bcd60e51b815260040161041f90613b5d565b60008251116111ed5760405162461bcd60e51b815260206004820152601360248201527214995cdbdb1d5d1a5bdb881c995c5d5a5c9959606a1b604482015260640161041f565b6000838152600260205260409020600160048281015462010000900460ff169081111561121c5761121c61351a565b146112695760405162461bcd60e51b815260206004820152601960248201527f4772696576616e6365206e6f7420696e2070726f677265737300000000000000604482015260640161041f565b60048101805462ff00001916620200001790556008810161128a8482613c93565b504260068201819055604051339186917fc02ca1c9196600fd2f6f3465907bd1a77ca842998b21c69b660f2506eea09a88916112c891889190613d53565b60405180910390a3837fb6a5db3724e697cda50a6f3e5ae7e78f99deac708d0e8a6a8bc982c6d9a98480600160024260405161130693929190613d75565b60405180910390a250505050565b6004602052816000526040600020818154811061133057600080fd5b90600052602060002001600091509150505481565b6005602052816000526040600020818154811061133057600080fd5b6001600160a01b0381166000908152600560209081526040918290208054835181840281018401909452808452606093928301828280156113c157602002820191906000526020600020905b8154815260200190600101908083116113ad575b50505050509050919050565b600360205281600052604060002081815481106113e957600080fd5b6000918252602090912060049091020180546001820180546001600160a01b03909216945091925061141a90613b94565b80601f016020809104026020016040519081016040528092919081815260200182805461144690613b94565b80156114935780601f1061146857610100808354040283529160200191611493565b820191906000526020600020905b81548152906001019060200180831161147657829003601f168201915b50505050600283015460039093015491929160ff16905084565b60006114b7612ffa565b60008751116114f95760405162461bcd60e51b815260206004820152600e60248201526d151a5d1b19481c995c5d5a5c995960921b604482015260640161041f565b60008651116115415760405162461bcd60e51b815260206004820152601460248201527311195cd8dc9a5c1d1a5bdb881c995c5d5a5c995960621b604482015260640161041f565b600880546000918261155283613b36565b919050559050604051806101e00160405280828152602001336001600160a01b031681526020018981526020018881526020018760088111156115975761159761351a565b81526020018660038111156115ae576115ae61351a565b8152602001600081526020014281526020016000815260200160006001600160a01b0316815260200160405180602001604052806000815250815260200160008152602001600067ffffffffffffffff81111561160d5761160d613630565b60405190808252806020026020018201604052801561164057816020015b606081526020019060019003908161162b5790505b50815260208082018790526040918201869052600084815260028083529083902084518155918401516001830180546001600160a01b0319166001600160a01b0390921691909117905591830151909182019061169d9082613c93565b50606082015160038201906116b29082613c93565b50608082015160048201805460ff191660018360088111156116d6576116d661351a565b021790555060a082015160048201805461ff0019166101008360038111156117005761170061351a565b021790555060c08201518160040160026101000a81548160ff0219169083600481111561172f5761172f61351a565b021790555060e0820151600582015561010082015160068201556101208201516007820180546001600160a01b0319166001600160a01b0390921691909117905561014082015160088201906117859082613c93565b50610160820151600982015561018082015180516117ad91600a8401916020909101906131bd565b506101a0820151600b8201906117c39082613c93565b506101c082015180516117e091600c8401916020909101906131bd565b505033600090815260046020908152604082208054600181018255908352908220018390556009805492509061181583613b36565b91905055506000600760008860088111156118325761183261351a565b60088111156118435761184361351a565b81526020810191909152604001600020546001600160a01b03169050801561186f5761186f8282613024565b336001600160a01b0316827fe494f5acec9d9535eaadf57976caa2c77c6e783a2da1f96fa9f5512bfdce00128989426040516118ad93929190613d9e565b60405180910390a35090506118c160018055565b9695505050505050565b6118d3612fcd565b6118dd600061316d565b565b6118e7612fcd565b6001600160a01b03811660009081526006602052604090205460ff166119405760405162461bcd60e51b815260206004820152600e60248201526d2737ba1030b71037b33334b1b2b960911b604482015260640161041f565b6000546001600160a01b03166001600160a01b0316816001600160a01b0316036119a25760405162461bcd60e51b815260206004820152601360248201527221b0b73737ba103932b6b7bb329037bbb732b960691b604482015260640161041f565b6001600160a01b03811660008181526006602052604090819020805460ff19169055517fcb2cd18331fd1d0b58d658b185a3c834c9c610033eaabca5f26591563868b549906119f49042815260200190565b60405180910390a250565b611a07613213565b600082815260026020526040812054839103611a355760405162461bcd60e51b815260040161041f90613b5d565b600083815260026020818152604080842081516101e0810183528154815260018201546001600160a01b03169381019390935292830180548895949284019190611a7e90613b94565b80601f0160208091040260200160405190810160405280929190818152602001828054611aaa90613b94565b8015611af75780601f10611acc57610100808354040283529160200191611af7565b820191906000526020600020905b815481529060010190602001808311611ada57829003601f168201915b50505050508152602001600382018054611b1090613b94565b80601f0160208091040260200160405190810160405280929190818152602001828054611b3c90613b94565b8015611b895780601f10611b5e57610100808354040283529160200191611b89565b820191906000526020600020905b815481529060010190602001808311611b6c57829003601f168201915b5050509183525050600482015460209091019060ff166008811115611bb057611bb061351a565b6008811115611bc157611bc161351a565b81526020016004820160019054906101000a900460ff166003811115611be957611be961351a565b6003811115611bfa57611bfa61351a565b81526020016004820160029054906101000a900460ff166004811115611c2257611c2261351a565b6004811115611c3357611c3361351a565b8152600582015460208201526006820154604082015260078201546001600160a01b03166060820152600882018054608090920191611c7190613b94565b80601f0160208091040260200160405190810160405280929190818152602001828054611c9d90613b94565b8015611cea5780601f10611cbf57610100808354040283529160200191611cea565b820191906000526020600020905b815481529060010190602001808311611ccd57829003601f168201915b5050505050815260200160098201548152602001600a8201805480602002602001604051908101604052809291908181526020016000905b82821015611dce578382906000526020600020018054611d4190613b94565b80601f0160208091040260200160405190810160405280929190818152602001828054611d6d90613b94565b8015611dba5780601f10611d8f57610100808354040283529160200191611dba565b820191906000526020600020905b815481529060010190602001808311611d9d57829003601f168201915b505050505081526020019060010190611d22565b505050508152602001600b82018054611de690613b94565b80601f0160208091040260200160405190810160405280929190818152602001828054611e1290613b94565b8015611e5f5780601f10611e3457610100808354040283529160200191611e5f565b820191906000526020600020905b815481529060010190602001808311611e4257829003601f168201915b50505050508152602001600c8201805480602002602001604051908101604052809291908181526020016000905b82821015611f39578382906000526020600020018054611eac90613b94565b80601f0160208091040260200160405190810160405280929190818152602001828054611ed890613b94565b8015611f255780601f10611efa57610100808354040283529160200191611f25565b820191906000526020600020905b815481529060010190602001808311611f0857829003601f168201915b505050505081526020019060010190611e8d565b5050505081525050905080602001516001600160a01b0316336001600160a01b03161480611f7d57508061012001516001600160a01b0316336001600160a01b0316145b80611f9757503360009081526006602052604090205460ff165b80611fac57506000546001600160a01b031633145b611fc85760405162461bcd60e51b815260040161041f90613bce565b60008581526002602081815260409283902083516101e0810185528154815260018201546001600160a01b0316928101929092529182018054919384019161200f90613b94565b80601f016020809104026020016040519081016040528092919081815260200182805461203b90613b94565b80156120885780601f1061205d57610100808354040283529160200191612088565b820191906000526020600020905b81548152906001019060200180831161206b57829003601f168201915b505050505081526020016003820180546120a190613b94565b80601f01602080910402602001604051908101604052809291908181526020018280546120cd90613b94565b801561211a5780601f106120ef5761010080835404028352916020019161211a565b820191906000526020600020905b8154815290600101906020018083116120fd57829003601f168201915b5050509183525050600482015460209091019060ff1660088111156121415761214161351a565b60088111156121525761215261351a565b81526020016004820160019054906101000a900460ff16600381111561217a5761217a61351a565b600381111561218b5761218b61351a565b81526020016004820160029054906101000a900460ff1660048111156121b3576121b361351a565b60048111156121c4576121c461351a565b8152600582015460208201526006820154604082015260078201546001600160a01b0316606082015260088201805460809092019161220290613b94565b80601f016020809104026020016040519081016040528092919081815260200182805461222e90613b94565b801561227b5780601f106122505761010080835404028352916020019161227b565b820191906000526020600020905b81548152906001019060200180831161225e57829003601f168201915b5050505050815260200160098201548152602001600a8201805480602002602001604051908101604052809291908181526020016000905b8282101561235f5783829060005260206000200180546122d290613b94565b80601f01602080910402602001604051908101604052809291908181526020018280546122fe90613b94565b801561234b5780601f106123205761010080835404028352916020019161234b565b820191906000526020600020905b81548152906001019060200180831161232e57829003601f168201915b5050505050815260200190600101906122b3565b505050508152602001600b8201805461237790613b94565b80601f01602080910402602001604051908101604052809291908181526020018280546123a390613b94565b80156123f05780601f106123c5576101008083540402835291602001916123f0565b820191906000526020600020905b8154815290600101906020018083116123d357829003601f168201915b50505050508152602001600c8201805480602002602001604051908101604052809291908181526020016000905b828210156124ca57838290600052602060002001805461243d90613b94565b80601f016020809104026020016040519081016040528092919081815260200182805461246990613b94565b80156124b65780601f1061248b576101008083540402835291602001916124b6565b820191906000526020600020905b81548152906001019060200180831161249957829003601f168201915b50505050508152602001906001019061241e565b505050915250909695505050505050565b3360009081526006602052604090205460ff168061250357506000546001600160a01b031633145b61251f5760405162461bcd60e51b815260040161041f90613c15565b60008281526002602052604081205483910361254d5760405162461bcd60e51b815260040161041f90613b5d565b600083815260026020526040902060048082015462010000900460ff1690849081111561257c5761257c61351a565b81600481111561258e5761258e61351a565b036125d05760405162461bcd60e51b815260206004820152601260248201527114dd185d1d5cc8185b1c9958591e481cd95d60721b604482015260640161041f565b838260040160026101000a81548160ff021916908360048111156125f6576125f661351a565b0217905550847fb6a5db3724e697cda50a6f3e5ae7e78f99deac708d0e8a6a8bc982c6d9a9848082864260405161262f93929190613d75565b60405180910390a25050505050565b60008281526002602052604081205483910361266c5760405162461bcd60e51b815260040161041f90613b5d565b600083815260026020818152604080842081516101e0810183528154815260018201546001600160a01b031693810193909352928301805488959492840191906126b590613b94565b80601f01602080910402602001604051908101604052809291908181526020018280546126e190613b94565b801561272e5780601f106127035761010080835404028352916020019161272e565b820191906000526020600020905b81548152906001019060200180831161271157829003601f168201915b5050505050815260200160038201805461274790613b94565b80601f016020809104026020016040519081016040528092919081815260200182805461277390613b94565b80156127c05780601f10612795576101008083540402835291602001916127c0565b820191906000526020600020905b8154815290600101906020018083116127a357829003601f168201915b5050509183525050600482015460209091019060ff1660088111156127e7576127e761351a565b60088111156127f8576127f861351a565b81526020016004820160019054906101000a900460ff1660038111156128205761282061351a565b60038111156128315761283161351a565b81526020016004820160029054906101000a900460ff1660048111156128595761285961351a565b600481111561286a5761286a61351a565b8152600582015460208201526006820154604082015260078201546001600160a01b031660608201526008820180546080909201916128a890613b94565b80601f01602080910402602001604051908101604052809291908181526020018280546128d490613b94565b80156129215780601f106128f657610100808354040283529160200191612921565b820191906000526020600020905b81548152906001019060200180831161290457829003601f168201915b5050505050815260200160098201548152602001600a8201805480602002602001604051908101604052809291908181526020016000905b82821015612a0557838290600052602060002001805461297890613b94565b80601f01602080910402602001604051908101604052809291908181526020018280546129a490613b94565b80156129f15780601f106129c6576101008083540402835291602001916129f1565b820191906000526020600020905b8154815290600101906020018083116129d457829003601f168201915b505050505081526020019060010190612959565b505050508152602001600b82018054612a1d90613b94565b80601f0160208091040260200160405190810160405280929190818152602001828054612a4990613b94565b8015612a965780601f10612a6b57610100808354040283529160200191612a96565b820191906000526020600020905b815481529060010190602001808311612a7957829003601f168201915b50505050508152602001600c8201805480602002602001604051908101604052809291908181526020016000905b82821015612b70578382906000526020600020018054612ae390613b94565b80601f0160208091040260200160405190810160405280929190818152602001828054612b0f90613b94565b8015612b5c5780601f10612b3157610100808354040283529160200191612b5c565b820191906000526020600020905b815481529060010190602001808311612b3f57829003601f168201915b505050505081526020019060010190612ac4565b5050505081525050905080602001516001600160a01b0316336001600160a01b03161480612bb457508061012001516001600160a01b0316336001600160a01b0316145b80612bce57503360009081526006602052604090205460ff165b80612be357506000546001600160a01b031633145b612bff5760405162461bcd60e51b815260040161041f90613bce565b6000845111612c505760405162461bcd60e51b815260206004820152601860248201527f436f6d6d656e7420636f6e74656e742072657175697265640000000000000000604482015260640161041f565b336000818152600660209081526040808320548984526003835281842082516080810184529586528584018a8152429387019390935260ff909116801515606087015281546001808201845592865293909420855160049094020180546001600160a01b0319166001600160a01b03909416939093178355905192939290820190612cdb9082613c93565b5060408281015160028301556060909201516003909101805460ff191691151591909117905551339087907fc3252f1c84f493255329acb5c33b1f0ebd1266377336c90f224b81aaf57242c190612d3790899086904290613db9565b60405180910390a3505050505050565b3360009081526006602052604090205460ff1680612d6f57506000546001600160a01b031633145b612d8b5760405162461bcd60e51b815260040161041f90613c15565b600082815260026020526040812054839103612db95760405162461bcd60e51b815260040161041f90613b5d565b6001600160a01b03821660009081526006602052604090205460ff16612e135760405162461bcd60e51b815260206004820152600f60248201526e24b73b30b634b21037b33334b1b2b960891b604482015260640161041f565b612e1d8383613024565b505050565b612e2a612fcd565b6001600160a01b038116612e725760405162461bcd60e51b815260206004820152600f60248201526e496e76616c6964206164647265737360881b604482015260640161041f565b6001600160a01b03811660009081526006602052604090205460ff1615612ed05760405162461bcd60e51b815260206004820152601260248201527120b63932b0b23c9030b71037b33334b1b2b960711b604482015260640161041f565b6001600160a01b03811660008181526006602052604090819020805460ff19166001179055517fe7726dc64ce9fd0f32f46c512887fe2408441078afb6de8073b7de3a2f07c1d6906119f49042815260200190565b6001600160a01b0381166000908152600460209081526040918290208054835181840281018401909452808452606093928301828280156113c157602002820191906000526020600020908154815260200190600101908083116113ad5750505050509050919050565b612f97612fcd565b6001600160a01b038116612fc157604051631e4fbdf760e01b81526000600482015260240161041f565b612fca8161316d565b50565b6000546001600160a01b031633146118dd5760405163118cdaa760e01b815233600482015260240161041f565b60026001540361301d57604051633ee5aeb560e01b815260040160405180910390fd5b6002600155565b60008281526002602052604081209060048281015462010000900460ff16908111156130525761305261351a565b1461309f5760405162461bcd60e51b815260206004820152601a60248201527f4772696576616e636520616c72656164792061737369676e6564000000000000604482015260640161041f565b6007810180546001600160a01b0319166001600160a01b03841690811790915560048201805462ff00001916620100001790556000818152600560209081526040808320805460018101825590845292829020909201869055905142815285917f4279819884f1b203dcff5e39dd54f6e2935d200acf1ffcc57838428264cd7e27910160405180910390a3827fb6a5db3724e697cda50a6f3e5ae7e78f99deac708d0e8a6a8bc982c6d9a98480600060014260405161316093929190613d75565b60405180910390a2505050565b600080546001600160a01b038381166001600160a01b0319831681178455604051919092169283917f8be0079c531659141344cd1fd0a4f28419497f9722a3daafe3b4186f6b6457e09190a35050565b828054828255906000526020600020908101928215613203579160200282015b8281111561320357825182906131f39082613c93565b50916020019190600101906131dd565b5061320f9291506132ac565b5090565b604051806101e001604052806000815260200160006001600160a01b031681526020016060815260200160608152602001600060088111156132575761325761351a565b81526020016000815260200160008152602001600081526020016000815260200160006001600160a01b0316815260200160608152602001600081526020016060815260200160608152602001606081525090565b8082111561320f5760006132c082826132c9565b506001016132ac565b5080546132d590613b94565b6000825580601f106132e5575050565b601f016020900490600052602060002090810190612fca91905b8082111561320f57600081556001016132ff565b80356001600160a01b038116811461332a57600080fd5b919050565b60006020828403121561334157600080fd5b61334a82613313565b9392505050565b80356009811061332a57600080fd5b6000806040838503121561337357600080fd5b61337c83613351565b915061338a60208401613313565b90509250929050565b80356005811061332a57600080fd5b6000602082840312156133b457600080fd5b61334a82613393565b6020808252825182820181905260009190848201906040850190845b818110156133f5578351835292840192918401916001016133d9565b50909695505050505050565b60006020828403121561341357600080fd5b5035919050565b6000815180845260005b8181101561344057602081850181015186830182015201613424565b506000602082860101526020601f19601f83011685010191505092915050565b60006020808301818452808551808352604092508286019150828160051b87010184880160005b838110156134ea57888303603f19018552815180516001600160a01b03168452878101516080898601819052906134c08287018261341a565b838a0151878b01526060938401511515939096019290925250509386019390860190600101613487565b509098975050505050505050565b6000806040838503121561350b57600080fd5b50508035926020909101359150565b634e487b7160e01b600052602160045260246000fd5b600981106135405761354061351a565b9052565b600481106135405761354061351a565b600581106135405761354061351a565b8d81526001600160a01b038d1660208201526101a06040820152600061358e6101a083018e61341a565b82810360608401526135a0818e61341a565b90506135af608084018d613530565b6135bc60a084018c613544565b6135c960c084018b613554565b8860e0840152876101008401526135ec6101208401886001600160a01b03169052565b8281036101408401526135ff818761341a565b90508461016084015282810361018084015261361b818561341a565b9150509e9d5050505050505050505050505050565b634e487b7160e01b600052604160045260246000fd5b604051601f8201601f1916810167ffffffffffffffff8111828210171561366f5761366f613630565b604052919050565b600082601f83011261368857600080fd5b813567ffffffffffffffff8111156136a2576136a2613630565b6136b5601f8201601f1916602001613646565b8181528460208386010111156136ca57600080fd5b816020850160208301376000918101602001919091529392505050565b600080604083850312156136fa57600080fd5b82359150602083013567ffffffffffffffff81111561371857600080fd5b61372485828601613677565b9150509250929050565b6000806040838503121561374157600080fd5b61374a83613313565b946020939093013593505050565b6001600160a01b038516815260806020820181905260009061377c9083018661341a565b60408301949094525090151560609091015292915050565b6000602082840312156137a657600080fd5b61334a82613351565b80356004811061332a57600080fd5b600082601f8301126137cf57600080fd5b8135602067ffffffffffffffff808311156137ec576137ec613630565b8260051b6137fb838201613646565b938452858101830193838101908886111561381557600080fd5b84880192505b85831015613851578235848111156138335760008081fd5b6138418a87838c0101613677565b835250918401919084019061381b565b98975050505050505050565b60008060008060008060c0878903121561387657600080fd5b863567ffffffffffffffff8082111561388e57600080fd5b61389a8a838b01613677565b975060208901359150808211156138b057600080fd5b6138bc8a838b01613677565b96506138ca60408a01613351565b95506138d860608a016137af565b945060808901359150808211156138ee57600080fd5b6138fa8a838b01613677565b935060a089013591508082111561391057600080fd5b5061391d89828a016137be565b9150509295509295509295565b6000815180845260208085019450848260051b860182860160005b8581101561396f57838303895261395d83835161341a565b98850198925090840190600101613945565b5090979650505050505050565b6020815281516020820152600060208301516139a360408401826001600160a01b03169052565b5060408301516101e08060608501526139c061020085018361341a565b91506060850151601f19808685030160808701526139de848361341a565b9350608087015191506139f460a0870183613530565b60a08701519150613a0860c0870183613544565b60c08701519150613a1c60e0870183613554565b60e087015161010087810191909152870151610120808801919091528701519150610140613a54818801846001600160a01b03169052565b80880151925050610160818786030181880152613a71858461341a565b9450808801519250506101808281880152808801519250506101a0818786030181880152613a9f858461392a565b9450808801519250506101c0818786030181880152613abe858461341a565b9088015187820390920184880152935090506118c1838261392a565b60008060408385031215613aed57600080fd5b8235915061338a60208401613393565b60008060408385031215613b1057600080fd5b8235915061338a60208401613313565b634e487b7160e01b600052603260045260246000fd5b600060018201613b5657634e487b7160e01b600052601160045260246000fd5b5060010190565b60208082526018908201527f4772696576616e636520646f6573206e6f742065786973740000000000000000604082015260600190565b600181811c90821680613ba857607f821691505b602082108103613bc857634e487b7160e01b600052602260045260246000fd5b50919050565b60208082526027908201527f4e6f7420617574686f72697a656420746f206163636573732074686973206772604082015266696576616e636560c81b606082015260800190565b6020808252601690820152752737ba1030baba3437b934bd32b21037b33334b1b2b960511b604082015260600190565b601f821115612e1d57600081815260208120601f850160051c81016020861015613c6c5750805b601f850160051c820191505b81811015613c8b57828155600101613c78565b505050505050565b815167ffffffffffffffff811115613cad57613cad613630565b613cc181613cbb8454613b94565b84613c45565b602080601f831160018114613cf65760008415613cde5750858301515b600019600386901b1c1916600185901b178555613c8b565b600085815260208120601f198616915b82811015613d2557888601518255948401946001909101908401613d06565b5085821015613d435787850151600019600388901b60f8161c191681555b5050505050600190811b01905550565b604081526000613d66604083018561341a565b90508260208301529392505050565b60608101613d838286613554565b613d906020830185613554565b826040830152949350505050565b60608101613dac8286613530565b613d906020830185613544565b606081526000613dcc606083018661341a565b9315156020830152506040015291905056fea264697066735822122011c8f16da5afa5f4048fd6de36cfe0fcd6cde4b7513d6362acfba812c70fbdc064736f6c63430008140033",
  "linkReferences": {},
  "deployedLinkReferences": {}
}