{
  "_format": "hh-sol-artifact-1",
  "contractName": "DocumentRegistry",
  "sourceName": "contracts/DocumentRegistry.sol",
  "abi": [
    {
      "inputs": [],
      "stateMutability": "nonpayable",
      "type": "constructor"
    },
    {
      "inputs": [
        {
          "internalType": "address",
          "name": "owner",
          "type": "address"
        }
      ],
      "name": "OwnableInvalidOwner",
      "type": "error"
    },
    {
      "inputs": [
        {
          "internalType": "address",
          "name": "account",
          "type": "address"
        }
      ],
      "name": "OwnableUnauthorizedAccount",
      "type": "error"
    },
    {
      "inputs": [],
      "name": "ReentrancyGuardReentrantCall",
      "type": "error"
    },
    {
      "anonymous": false,
      "inputs": [
        {
          "indexed": true,
          "internalType": "uint256",
          "name": "documentId",
          "type": "uint256"
        },
        {
          "indexed": true,
          "internalType": "address",
          "name": "verifier",
          "type": "address"
        },
        {
          "indexed": false,
          "internalType": "string",
          "name": "reason",
          "type": "string"
        },
        {
          "indexed": false,
          "internalType": "uint256",
          "name": "timestamp",
          "type": "uint256"
        }
      ],
      "name": "DocumentRejected",
      "type": "event"
    },
    {
      "anonymous": false,
      "inputs": [
        {
          "indexed": true,
          "internalType": "uint256",
          "name": "documentId",
          "type": "uint256"
        },
        {
          "indexed": true,
          "internalType": "address",
          "name": "owner",
          "type": "address"
        },
        {
          "indexed": false,
          "internalType": "enum DocumentRegistry.DocumentType",
          "name": "docType",
          "type": "uint8"
        },
        {
          "indexed": false,
          "internalType": "string",
          "name": "documentHash",
          "type": "string"
        },
        {
          "indexed": false,
          "internalType": "uint256",
          "name": "timestamp",
          "type": "uint256"
        }
      ],
      "name": "DocumentUploaded",
      "type": "event"
    },
    {
      "anonymous": false,
      "inputs": [
        {
          "indexed": true,
          "internalType": "uint256",
          "name": "documentId",
          "type": "uint256"
        },
        {
          "indexed": true,
          "internalType": "address",
          "name": "verifier",
          "type": "address"
        },
        {
          "indexed": false,
          "internalType": "uint256",
          "name": "timestamp",
          "type": "uint256"
        }
      ],
      "name": "DocumentVerified",
      "type": "event"
    },
    {
      "anonymous": false,
      "inputs": [
        {
          "indexed": true,
          "internalType": "address",
          "name": "previousOwner",
          "type": "address"
        },
        {
          "indexed": true,
          "internalType": "address",
          "name": "newOwner",
          "type": "address"
        }
      ],
      "name": "OwnershipTransferred",
      "type": "event"
    },
    {
      "anonymous": false,
      "inputs": [
        {
          "indexed": true,
          "internalType": "address",
          "name": "verifier",
          "type": "address"
        },
        {
          "indexed": false,
          "internalType": "uint256",
          "name": "timestamp",
          "type": "uint256"
        }
      ],
      "name": "VerifierAdded",
      "type": "event"
    },
    {
      "anonymous": false,
      "inputs": [
        {
          "indexed": true,
          "internalType": "address",
          "name": "verifier",
          "type": "address"
        },
        {
          "indexed": false,
          "internalType": "uint256",
          "name": "timestamp",
          "type": "uint256"
        }
      ],
      "name": "VerifierRemoved",
      "type": "event"
    },
    {
      "inputs": [
        {
          "internalType": "address",
          "name": "_verifier",
          "type": "address"
        }
      ],
      "name": "addVerifier",
      "outputs": [],
      "stateMutability": "nonpayable",
      "type": "function"
    },
    {
      "inputs": [
        {
          "internalType": "uint256",
          "name": "",
          "type": "uint256"
        }
      ],
      "name": "documents",
      "outputs": [
        {
          "internalType": "uint256",
          "name": "id",
          "type": "uint256"
        },
        {
          "internalType": "address",
          "name": "owner",
          "type": "address"
        },
        {
          "internalType": "string",
          "name": "documentHash",
          "type": "string"
        },
        {
          "internalType": "enum DocumentRegistry.DocumentType",
          "name": "docType",
          "type": "uint8"
        },
        {
          "internalType": "enum DocumentRegistry.DocumentStatus",
          "name": "status",
          "type": "uint8"
        },
        {
          "internalType": "string",
          "name": "metadata",
          "type": "string"
        },
        {
          "internalType": "uint256",
          "name": "uploadDate",
          "type": "uint256"
        },
        {
          "internalType": "uint256",
          "name": "verificationDate",
          "type": "uint256"
        },
        {
          "internalType": "address",
          "name": "verifier",
          "type": "address"
        },
        {
          "internalType": "string",
          "name": "rejectionReason",
          "type": "string"
        },
        {
          "internalType": "uint256",
          "name": "expiryDate",
          "type": "uint256"
        }
      ],
      "stateMutability": "view",
      "type": "function"
    },
    {
      "inputs": [
        {
          "internalType": "uint256",
          "name": "_documentId",
          "type": "uint256"
        }
      ],
      "name": "getDocument",
      "outputs": [
        {
          "components": [
            {
              "internalType": "uint256",
              "name": "id",
              "type": "uint256"
            },
            {
              "internalType": "address",
              "name": "owner",
              "type": "address"
            },
            {
              "internalType": "string",
              "name": "documentHash",
              "type": "string"
            },
            {
              "internalType": "enum DocumentRegistry.DocumentType",
              "name": "docType",
              "type": "uint8"
            },
            {
              "internalType": "enum DocumentRegistry.DocumentStatus",
              "name": "status",
              "type": "uint8"
            },
            {
              "internalType": "string",
              "name": "metadata",
              "type": "string"
            },
            {
              "internalType": "uint256",
              "name": "uploadDate",
              "type": "uint256"
            },
            {
              "internalType": "uint256",
              "name": "verificationDate",
              "type": "uint256"
            },
            {
              "internalType": "address",
              "name": "verifier",
              "type": "address"
            },
            {
              "internalType": "string",
              "name": "rejectionReason",
              "type": "string"
            },
            {
              "internalType": "uint256",
              "name": "expiryDate",
              "type": "uint256"
            }
          ],
          "internalType": "struct DocumentRegistry.Document",
          "name": "",
          "type": "tuple"
        }
      ],
      "stateMutability": "view",
      "type": "function"
    },
    {
      "inputs": [
        {
          "internalType": "enum DocumentRegistry.DocumentStatus",
          "name": "_status",
          "type": "uint8"
        }
      ],
      "name": "getDocumentsByStatus",
      "outputs": [
        {
          "internalType": "uint256[]",
          "name": "",
          "type": "uint256[]"
        }
      ],
      "stateMutability": "view",
      "type": "function"
    },
    {
      "inputs": [
        {
          "internalType": "address",
          "name": "_user",
          "type": "address"
        }
      ],
      "name": "getUserDocuments",
      "outputs": [
        {
          "internalType": "uint256[]",
          "name": "",
          "type": "uint256[]"
        }
      ],
      "stateMutability": "view",
      "type": "function"
    },
    {
      "inputs": [
        {
          "internalType": "uint256",
          "name": "_documentId",
          "type": "uint256"
        }
      ],
      "name": "isDocumentVerified",
      "outputs": [
        {
          "internalType": "bool",
          "name": "",
          "type": "bool"
        }
      ],
      "stateMutability": "view",
      "type": "function"
    },
    {
      "inputs": [
        {
          "internalType": "uint256[]",
          "name": "_documentIds",
          "type": "uint256[]"
        }
      ],
      "name": "markExpiredDocuments",
      "outputs": [],
      "stateMutability": "nonpayable",
      "type": "function"
    },
    {
      "inputs": [],
      "name": "owner",
      "outputs": [
        {
          "internalType": "address",
          "name": "",
          "type": "address"
        }
      ],
      "stateMutability": "view",
      "type": "function"
    },
    {
      "inputs": [
        {
          "internalType": "uint256",
          "name": "_documentId",
          "type": "uint256"
        },
        {
          "internalType": "string",
          "name": "_reason",
          "type": "string"
        }
      ],
      "name": "rejectDocument",
      "outputs": [],
      "stateMutability": "nonpayable",
      "type": "function"
    },
    {
      "inputs": [
        {
          "internalType": "address",
          "name": "_verifier",
          "type": "address"
        }
      ],
      "name": "removeVerifier",
      "outputs": [],
      "stateMutability": "nonpayable",
      "type": "function"
    },
    {
      "inputs": [],
      "name": "renounceOwnership",
      "outputs": [],
      "stateMutability": "nonpayable",
      "type": "function"
    },
    {
      "inputs": [],
      "name": "totalDocuments",
      "outputs": [
        {
          "internalType": "uint256",
          "name": "",
          "type": "uint256"
        }
      ],
      "stateMutability": "view",
      "type": "function"
    },
    {
      "inputs": [
        {
          "internalType": "address",
          "name": "newOwner",
          "type": "address"
        }
      ],
      "name": "transferOwnership",
      "outputs": [],
      "stateMutability": "nonpayable",
      "type": "function"
    },
    {
      "inputs": [
        {
          "internalType": "string",
          "name": "_documentHash",
          "type": "string"
        },
        {
          "internalType": "enum DocumentRegistry.DocumentType",
          "name": "_docType",
          "type": "uint8"
        },
        {
          "internalType": "string",
          "name": "_metadata",
          "type": "string"
        },
        {
          "internalType": "uint256",
          "name": "_expiryDate",
          "type": "uint256"
        }
      ],
      "name": "uploadDocument",
      "outputs": [
        {
          "internalType": "uint256",
          "name": "",
          "type": "uint256"
        }
      ],
      "stateMutability": "nonpayable",
      "type": "function"
    },
    {
      "inputs": [
        {
          "internalType": "address",
          "name": "",
          "type": "address"
        },
        {
          "internalType": "uint256",
          "name": "",
          "type": "uint256"
        }
      ],
      "name": "userDocuments",
      "outputs": [
        {
          "internalType": "uint256",
          "name": "",
          "type": "uint256"
        }
      ],
      "stateMutability": "view",
      "type": "function"
    },
    {
      "inputs": [
        {
          "internalType": "address",
          "name": "",
          "type": "address"
        }
      ],
      "name": "verifiers",
      "outputs": [
        {
          "internalType": "bool",
          "name": "",
          "type": "bool"
        }
      ],
      "stateMutability": "view",
      "type": "function"
    },
    {
      "inputs": [
        {
          "internalType": "uint256",
          "name": "_documentId",
          "type": "uint256"
        }
      ],
      "name": "verifyDocument",
      "outputs": [],
      "stateMutability": "nonpayable",
      "type": "function"
    }
  ],
  "bytecode": "0x6080604052600160065534801561001557600080fd5b50338061003c57604051631e4fbdf760e01b81526000600482015260240160405180910390fd5b6100458161006a565b506001808055336000908152600460205260409020805460ff191690911790556100ba565b600080546001600160a01b038381166001600160a01b0319831681178455604051919092169283917f8be0079c531659141344cd1fd0a4f28419497f9722a3daafe3b4186f6b6457e09190a35050565b611d0c806100c96000396000f3fe608060405234801561001057600080fd5b506004361061010b5760003560e01c80638da5cb5b116100a2578063c2ed2b0511610071578063c2ed2b051461023a578063ca2dfd0a14610264578063f1675bef14610277578063f2fde38b1461028a578063fba3bb1b1461029d57600080fd5b80638da5cb5b146101e65780639000b3d61461020157806390a4b16214610214578063afd14b041461022757600080fd5b8063577a1b92116100de578063577a1b92146101855780636c824487146101985780636dda61d9146101cb578063715018a6146101de57600080fd5b80631dc7ba23146101105780633f9b250a1461013957806341cd155514610159578063553181ec1461016e575b600080fd5b61012361011e366004611547565b6102b0565b604051610130919061156f565b60405180910390f35b61014c6101473660046115b3565b610430565b6040516101309190611656565b61016c6101673660046117ff565b610706565b005b61017760075481565b604051908152602001610130565b610177610193366004611862565b6108c1565b6101bb6101a636600461188c565b60046020526000908152604090205460ff1681565b6040519015158152602001610130565b61016c6101d93660046115b3565b6108f2565b61016c610a98565b6000546040516001600160a01b039091168152602001610130565b61016c61020f36600461188c565b610aac565b61012361022236600461188c565b610bba565b6101776102353660046118a7565b610c26565b61024d6102483660046115b3565b610fa2565b6040516101309b9a9998979695949392919061192b565b61016c61027236600461188c565b6111b0565b6101bb6102853660046115b3565b6112c5565b61016c61029836600461188c565b61132a565b61016c6102ab3660046119ca565b611368565b6060600060075467ffffffffffffffff8111156102cf576102cf611748565b6040519080825280602002602001820160405280156102f8578160200160208202803683370190505b509050600060015b60065481101561038b5784600381111561031c5761031c61161c565b6000828152600260205260409020600390810154610100900460ff16908111156103485761034861161c565b03610379578083838151811061036057610360611a70565b60209081029190910101528161037581611a86565b9250505b8061038381611a86565b915050610300565b5060008167ffffffffffffffff8111156103a7576103a7611748565b6040519080825280602002602001820160405280156103d0578160200160208202803683370190505b50905060005b82811015610427578381815181106103f0576103f0611a70565b602002602001015182828151811061040a5761040a611a70565b60209081029190910101528061041f81611a86565b9150506103d6565b50949350505050565b6104386114ca565b60008281526002602052604081205483910361046f5760405162461bcd60e51b815260040161046690611aad565b60405180910390fd5b6000838152600260208181526040928390208351610160810185528154815260018201546001600160a01b031692810192909252918201805491938401916104b690611ae4565b80601f01602080910402602001604051908101604052809291908181526020018280546104e290611ae4565b801561052f5780601f106105045761010080835404028352916020019161052f565b820191906000526020600020905b81548152906001019060200180831161051257829003601f168201915b5050509183525050600382015460209091019060ff1660068111156105565761055661161c565b60068111156105675761056761161c565b81526020016003820160019054906101000a900460ff16600381111561058f5761058f61161c565b60038111156105a0576105a061161c565b81526020016004820180546105b490611ae4565b80601f01602080910402602001604051908101604052809291908181526020018280546105e090611ae4565b801561062d5780601f106106025761010080835404028352916020019161062d565b820191906000526020600020905b81548152906001019060200180831161061057829003601f168201915b5050509183525050600582015460208201526006820154604082015260078201546001600160a01b0316606082015260088201805460809092019161067190611ae4565b80601f016020809104026020016040519081016040528092919081815260200182805461069d90611ae4565b80156106ea5780601f106106bf576101008083540402835291602001916106ea565b820191906000526020600020905b8154815290600101906020018083116106cd57829003601f168201915b5050505050815260200160098201548152505091505b50919050565b3360009081526004602052604090205460ff168061072e57506000546001600160a01b031633145b6107745760405162461bcd60e51b81526020600482015260176024820152762737ba1030baba3437b934bd32b2103b32b934b334b2b960491b6044820152606401610466565b6000828152600260205260408120548391036107a25760405162461bcd60e51b815260040161046690611aad565b60008251116107f35760405162461bcd60e51b815260206004820152601960248201527f52656a656374696f6e20726561736f6e207265717569726564000000000000006044820152606401610466565b600083815260026020526040812090600382810154610100900460ff16908111156108205761082061161c565b1461083d5760405162461bcd60e51b815260040161046690611b18565b60038101805461ff0019166102001790554260068201556007810180546001600160a01b03191633179055600881016108768482611ba8565b50336001600160a01b0316847f5bca33f54e5f174d11b6589bf4b8de2241d58272b0c6fc0e11b16a0a0553a9fc85426040516108b3929190611c68565b60405180910390a350505050565b600360205281600052604060002081815481106108dd57600080fd5b90600052602060002001600091509150505481565b3360009081526004602052604090205460ff168061091a57506000546001600160a01b031633145b6109605760405162461bcd60e51b81526020600482015260176024820152762737ba1030baba3437b934bd32b2103b32b934b334b2b960491b6044820152606401610466565b60008181526002602052604081205482910361098e5760405162461bcd60e51b815260040161046690611aad565b600082815260026020526040812090600382810154610100900460ff16908111156109bb576109bb61161c565b146109d85760405162461bcd60e51b815260040161046690611b18565b600981015415806109ec5750428160090154115b610a2b5760405162461bcd60e51b815260206004820152601060248201526f111bd8dd5b595b9d08195e1c1a5c995960821b6044820152606401610466565b60038101805461010061ff001990911617905542600682018190556007820180546001600160a01b031916339081179091556040519182529084907f7df1277108657fb930b6318924cf1b9e47877ed293ca27b5763cfa6268901c889060200160405180910390a3505050565b610aa0611423565b610aaa6000611450565b565b610ab4611423565b6001600160a01b038116610afc5760405162461bcd60e51b815260206004820152600f60248201526e496e76616c6964206164647265737360881b6044820152606401610466565b6001600160a01b03811660009081526004602052604090205460ff1615610b5a5760405162461bcd60e51b815260206004820152601260248201527120b63932b0b23c9030903b32b934b334b2b960711b6044820152606401610466565b6001600160a01b03811660008181526004602052604090819020805460ff19166001179055517fe0af945fa32f33b1ac2e98b37cf8768d434dec2f25accd97306a26ef6a77775090610baf9042815260200190565b60405180910390a250565b6001600160a01b038116600090815260036020908152604091829020805483518184028101840190945280845260609392830182828015610c1a57602002820191906000526020600020905b815481526020019060010190808311610c06575b50505050509050919050565b6000610c306114a0565b6000855111610c7a5760405162461bcd60e51b8152602060048201526016602482015275111bd8dd5b595b9d081a185cda081c995c5d5a5c995960521b6044820152606401610466565b600585604051610c8a9190611c8a565b9081526040519081900360200190205460ff1615610cea5760405162461bcd60e51b815260206004820152601760248201527f446f63756d656e7420616c7265616479206578697374730000000000000000006044820152606401610466565b811580610cf657504282115b610d385760405162461bcd60e51b8152602060048201526013602482015272496e76616c696420657870697279206461746560681b6044820152606401610466565b6006805460009182610d4983611a86565b919050559050604051806101600160405280828152602001336001600160a01b03168152602001878152602001866006811115610d8857610d8861161c565b815260200160008152602080820187905242604080840191909152600060608401819052608084018190528151808401835281815260a085015260c090930187905284835260028083529281902084518155918401516001830180546001600160a01b0319166001600160a01b039092169190911790558301519091820190610e119082611ba8565b50606082015160038201805460ff19166001836006811115610e3557610e3561161c565b021790555060808201518160030160016101000a81548160ff02191690836003811115610e6457610e6461161c565b021790555060a08201516004820190610e7d9082611ba8565b5060c0820151600582015560e082015160068201556101008201516007820180546001600160a01b0319166001600160a01b039092169190911790556101208201516008820190610ece9082611ba8565b5061014091909101516009909101553360009081526003602090815260408083208054600181810183559185529290932090910183905551600590610f14908990611c8a565b908152604051908190036020019020805491151560ff1990921691909117905560078054906000610f4483611a86565b9190505550336001600160a01b0316817ffb89f103656f874eaa62c95cd2f8d3abd1732de9d4e64cdd0623c3e737c101d1878942604051610f8793929190611ca6565b60405180910390a39050610f9a60018055565b949350505050565b600260208190526000918252604090912080546001820154928201805491936001600160a01b03169291610fd590611ae4565b80601f016020809104026020016040519081016040528092919081815260200182805461100190611ae4565b801561104e5780601f106110235761010080835404028352916020019161104e565b820191906000526020600020905b81548152906001019060200180831161103157829003601f168201915b505050506003830154600484018054939460ff808416956101009094041693509161107890611ae4565b80601f01602080910402602001604051908101604052809291908181526020018280546110a490611ae4565b80156110f15780601f106110c6576101008083540402835291602001916110f1565b820191906000526020600020905b8154815290600101906020018083116110d457829003601f168201915b505050600584015460068501546007860154600887018054969793969295506001600160a01b0390911693509061112790611ae4565b80601f016020809104026020016040519081016040528092919081815260200182805461115390611ae4565b80156111a05780601f10611175576101008083540402835291602001916111a0565b820191906000526020600020905b81548152906001019060200180831161118357829003601f168201915b505050505090806009015490508b565b6111b8611423565b6001600160a01b03811660009081526004602052604090205460ff166112115760405162461bcd60e51b815260206004820152600e60248201526d2737ba1030903b32b934b334b2b960911b6044820152606401610466565b6000546001600160a01b03166001600160a01b0316816001600160a01b0316036112735760405162461bcd60e51b815260206004820152601360248201527221b0b73737ba103932b6b7bb329037bbb732b960691b6044820152606401610466565b6001600160a01b03811660008181526004602052604090819020805460ff19169055517f577461bde9fd030eb8b2941145223af9676a2dfae0f7c7d2456d7be21573a11890610baf9042815260200190565b600081815260026020526040812054829082036112f45760405162461bcd60e51b815260040161046690611aad565b60016000848152600260205260409020600390810154610100900460ff16908111156113225761132261161c565b149392505050565b611332611423565b6001600160a01b03811661135c57604051631e4fbdf760e01b815260006004820152602401610466565b61136581611450565b50565b60005b815181101561141f57600082828151811061138857611388611a70565b602090810291909101810151600081815260029092526040909120805491925090158015906113ba5750600981015415155b80156113ca575042816009015411155b80156113f357506001600382810154610100900460ff16908111156113f1576113f161161c565b145b1561140a5760038101805461ff0019166103001790555b5050808061141790611a86565b91505061136b565b5050565b6000546001600160a01b03163314610aaa5760405163118cdaa760e01b8152336004820152602401610466565b600080546001600160a01b038381166001600160a01b0319831681178455604051919092169283917f8be0079c531659141344cd1fd0a4f28419497f9722a3daafe3b4186f6b6457e09190a35050565b6002600154036114c357604051633ee5aeb560e01b815260040160405180910390fd5b6002600155565b6040518061016001604052806000815260200160006001600160a01b0316815260200160608152602001600060068111156115075761150761161c565b81526020016000815260200160608152602001600081526020016000815260200160006001600160a01b0316815260200160608152602001600081525090565b60006020828403121561155957600080fd5b81356004811061156857600080fd5b9392505050565b6020808252825182820181905260009190848201906040850190845b818110156115a75783518352928401929184019160010161158b565b50909695505050505050565b6000602082840312156115c557600080fd5b5035919050565b60005b838110156115e75781810151838201526020016115cf565b50506000910152565b600081518084526116088160208601602086016115cc565b601f01601f19169290920160200192915050565b634e487b7160e01b600052602160045260246000fd5b600781106116425761164261161c565b9052565b600481106116425761164261161c565b60208152815160208201526000602083015161167d60408401826001600160a01b03169052565b50604083015161016080606085015261169a6101808501836115f0565b915060608501516116ae6080860182611632565b5060808501516116c160a0860182611646565b5060a0850151601f19808685030160c08701526116de84836115f0565b935060c087015160e087015260e08701519150610100828188015280880151925050610120611717818801846001600160a01b03169052565b8088015192505061014081878603018188015261173485846115f0565b970151959092019490945250929392505050565b634e487b7160e01b600052604160045260246000fd5b604051601f8201601f1916810167ffffffffffffffff8111828210171561178757611787611748565b604052919050565b600082601f8301126117a057600080fd5b813567ffffffffffffffff8111156117ba576117ba611748565b6117cd601f8201601f191660200161175e565b8181528460208386010111156117e257600080fd5b816020850160208301376000918101602001919091529392505050565b6000806040838503121561181257600080fd5b82359150602083013567ffffffffffffffff81111561183057600080fd5b61183c8582860161178f565b9150509250929050565b80356001600160a01b038116811461185d57600080fd5b919050565b6000806040838503121561187557600080fd5b61187e83611846565b946020939093013593505050565b60006020828403121561189e57600080fd5b61156882611846565b600080600080608085870312156118bd57600080fd5b843567ffffffffffffffff808211156118d557600080fd5b6118e18883890161178f565b955060208701359150600782106118f757600080fd5b9093506040860135908082111561190d57600080fd5b5061191a8782880161178f565b949793965093946060013593505050565b8b81526001600160a01b038b81166020830152610160604083018190526000916119578483018e6115f0565b9150611966606085018d611632565b611973608085018c611646565b83820360a0850152611985828b6115f0565b91508860c08501528760e0850152808716610100850152508281036101208401526119b081866115f0565b915050826101408301529c9b505050505050505050505050565b600060208083850312156119dd57600080fd5b823567ffffffffffffffff808211156119f557600080fd5b818501915085601f830112611a0957600080fd5b813581811115611a1b57611a1b611748565b8060051b9150611a2c84830161175e565b8181529183018401918481019088841115611a4657600080fd5b938501935b83851015611a6457843582529385019390850190611a4b565b98975050505050505050565b634e487b7160e01b600052603260045260246000fd5b600060018201611aa657634e487b7160e01b600052601160045260246000fd5b5060010190565b60208082526017908201527f446f63756d656e7420646f6573206e6f74206578697374000000000000000000604082015260600190565b600181811c90821680611af857607f821691505b60208210810361070057634e487b7160e01b600052602260045260246000fd5b60208082526021908201527f446f63756d656e74206e6f742070656e64696e6720766572696669636174696f6040820152603760f91b606082015260800190565b601f821115611ba357600081815260208120601f850160051c81016020861015611b805750805b601f850160051c820191505b81811015611b9f57828155600101611b8c565b5050505b505050565b815167ffffffffffffffff811115611bc257611bc2611748565b611bd681611bd08454611ae4565b84611b59565b602080601f831160018114611c0b5760008415611bf35750858301515b600019600386901b1c1916600185901b178555611b9f565b600085815260208120601f198616915b82811015611c3a57888601518255948401946001909101908401611c1b565b5085821015611c585787850151600019600388901b60f8161c191681555b5050505050600190811b01905550565b604081526000611c7b60408301856115f0565b90508260208301529392505050565b60008251611c9c8184602087016115cc565b9190910192915050565b611cb08185611632565b606060208201526000611cc660608301856115f0565b905082604083015294935050505056fea264697066735822122028072595ef3177582738ffcab61e52015ebc6277e127d97d61d2e01bb79f730964736f6c63430008140033",
  "linkReferences": {},
  "deployedLinkReferences": {}
}