{
  "_format": "hh-sol-artifact-1",
  "contractName": "DocumentRegistry",
  "sourceName": "contracts/DocumentRegistry.sol",
  "abi": [
    {
      "inputs": [
        {
          "internalType": "address",
          "name": "_citizenRegistryAddress",
          "type": "address"
        }
      ],
      "stateMutability": "nonpayable",
      "type": "constructor"
    },
    {
      "anonymous": false,
      "inputs": [
        {
          "indexed": true,
          "internalType": "bytes32",
          "name": "documentId",
          "type": "bytes32"
        },
        {
          "indexed": true,
          "internalType": "address",
          "name": "verifier",
          "type": "address"
        },
        {
          "indexed": false,
          "internalType": "string",
          "name": "reason",
          "type": "string"
        },
        {
          "indexed": false,
          "internalType": "uint256",
          "name": "timestamp",
          "type": "uint256"
        }
      ],
      "name": "DocumentRejected",
      "type": "event"
    },
    {
      "anonymous": false,
      "inputs": [
        {
          "indexed": true,
          "internalType": "bytes32",
          "name": "documentId",
          "type": "bytes32"
        },
        {
          "indexed": true,
          "internalType": "address",
          "name": "owner",
          "type": "address"
        },
        {
          "indexed": false,
          "internalType": "enum DocumentRegistry.DocumentType",
          "name": "docType",
          "type": "uint8"
        },
        {
          "indexed": false,
          "internalType": "uint256",
          "name": "timestamp",
          "type": "uint256"
        }
      ],
      "name": "DocumentUploaded",
      "type": "event"
    },
    {
      "anonymous": false,
      "inputs": [
        {
          "indexed": true,
          "internalType": "bytes32",
          "name": "documentId",
          "type": "bytes32"
        },
        {
          "indexed": true,
          "internalType": "address",
          "name": "verifier",
          "type": "address"
        },
        {
          "indexed": false,
          "internalType": "uint256",
          "name": "timestamp",
          "type": "uint256"
        }
      ],
      "name": "DocumentVerified",
      "type": "event"
    },
    {
      "anonymous": false,
      "inputs": [
        {
          "indexed": true,
          "internalType": "address",
          "name": "issuer",
          "type": "address"
        },
        {
          "indexed": false,
          "internalType": "string",
          "name": "organization",
          "type": "string"
        }
      ],
      "name": "IssuerAuthorized",
      "type": "event"
    },
    {
      "anonymous": false,
      "inputs": [
        {
          "indexed": true,
          "internalType": "address",
          "name": "issuer",
          "type": "address"
        }
      ],
      "name": "IssuerRevoked",
      "type": "event"
    },
    {
      "inputs": [
        {
          "internalType": "address",
          "name": "_issuer",
          "type": "address"
        },
        {
          "internalType": "string",
          "name": "_organization",
          "type": "string"
        }
      ],
      "name": "authorizeIssuer",
      "outputs": [],
      "stateMutability": "nonpayable",
      "type": "function"
    },
    {
      "inputs": [
        {
          "internalType": "address",
          "name": "",
          "type": "address"
        }
      ],
      "name": "authorizedIssuers",
      "outputs": [
        {
          "internalType": "bool",
          "name": "",
          "type": "bool"
        }
      ],
      "stateMutability": "view",
      "type": "function"
    },
    {
      "inputs": [
        {
          "internalType": "address",
          "name": "",
          "type": "address"
        },
        {
          "internalType": "uint256",
          "name": "",
          "type": "uint256"
        }
      ],
      "name": "citizenDocuments",
      "outputs": [
        {
          "internalType": "bytes32",
          "name": "",
          "type": "bytes32"
        }
      ],
      "stateMutability": "view",
      "type": "function"
    },
    {
      "inputs": [],
      "name": "citizenRegistry",
      "outputs": [
        {
          "internalType": "contract CitizenRegistry",
          "name": "",
          "type": "address"
        }
      ],
      "stateMutability": "view",
      "type": "function"
    },
    {
      "inputs": [
        {
          "internalType": "bytes32",
          "name": "",
          "type": "bytes32"
        }
      ],
      "name": "documents",
      "outputs": [
        {
          "internalType": "bytes32",
          "name": "documentId",
          "type": "bytes32"
        },
        {
          "internalType": "address",
          "name": "owner",
          "type": "address"
        },
        {
          "internalType": "address",
          "name": "issuer",
          "type": "address"
        },
        {
          "internalType": "enum DocumentRegistry.DocumentType",
          "name": "docType",
          "type": "uint8"
        },
        {
          "internalType": "string",
          "name": "ipfsHash",
          "type": "string"
        },
        {
          "internalType": "string",
          "name": "metadataHash",
          "type": "string"
        },
        {
          "internalType": "enum DocumentRegistry.DocumentStatus",
          "name": "status",
          "type": "uint8"
        },
        {
          "internalType": "uint256",
          "name": "issuedDate",
          "type": "uint256"
        },
        {
          "internalType": "uint256",
          "name": "expiryDate",
          "type": "uint256"
        },
        {
          "internalType": "uint256",
          "name": "uploadDate",
          "type": "uint256"
        },
        {
          "internalType": "bool",
          "name": "isActive",
          "type": "bool"
        }
      ],
      "stateMutability": "view",
      "type": "function"
    },
    {
      "inputs": [
        {
          "internalType": "address",
          "name": "_citizen",
          "type": "address"
        }
      ],
      "name": "getCitizenDocuments",
      "outputs": [
        {
          "internalType": "bytes32[]",
          "name": "",
          "type": "bytes32[]"
        }
      ],
      "stateMutability": "view",
      "type": "function"
    },
    {
      "inputs": [
        {
          "internalType": "bytes32",
          "name": "_documentId",
          "type": "bytes32"
        }
      ],
      "name": "getDocument",
      "outputs": [
        {
          "internalType": "address",
          "name": "owner",
          "type": "address"
        },
        {
          "internalType": "address",
          "name": "issuer",
          "type": "address"
        },
        {
          "internalType": "enum DocumentRegistry.DocumentType",
          "name": "docType",
          "type": "uint8"
        },
        {
          "internalType": "string",
          "name": "ipfsHash",
          "type": "string"
        },
        {
          "internalType": "enum DocumentRegistry.DocumentStatus",
          "name": "status",
          "type": "uint8"
        },
        {
          "internalType": "uint256",
          "name": "issuedDate",
          "type": "uint256"
        },
        {
          "internalType": "uint256",
          "name": "expiryDate",
          "type": "uint256"
        },
        {
          "internalType": "bool",
          "name": "isActive",
          "type": "bool"
        }
      ],
      "stateMutability": "view",
      "type": "function"
    },
    {
      "inputs": [
        {
          "internalType": "bytes32",
          "name": "_documentId",
          "type": "bytes32"
        },
        {
          "internalType": "string",
          "name": "_reason",
          "type": "string"
        }
      ],
      "name": "rejectDocument",
      "outputs": [],
      "stateMutability": "nonpayable",
      "type": "function"
    },
    {
      "inputs": [
        {
          "internalType": "enum DocumentRegistry.DocumentType",
          "name": "_docType",
          "type": "uint8"
        },
        {
          "internalType": "string",
          "name": "_ipfsHash",
          "type": "string"
        },
        {
          "internalType": "string",
          "name": "_metadataHash",
          "type": "string"
        },
        {
          "internalType": "uint256",
          "name": "_expiryDate",
          "type": "uint256"
        }
      ],
      "name": "uploadDocument",
      "outputs": [
        {
          "internalType": "bytes32",
          "name": "",
          "type": "bytes32"
        }
      ],
      "stateMutability": "nonpayable",
      "type": "function"
    },
    {
      "inputs": [
        {
          "internalType": "bytes32",
          "name": "_documentId",
          "type": "bytes32"
        }
      ],
      "name": "verifyDocument",
      "outputs": [],
      "stateMutability": "nonpayable",
      "type": "function"
    }
  ],
  "bytecode": "0x608060405234801561001057600080fd5b5060405161149338038061149383398101604081905261002f91610059565b6001600081905580546001600160a01b0319166001600160a01b0392909216919091179055610089565b60006020828403121561006b57600080fd5b81516001600160a01b038116811461008257600080fd5b9392505050565b6113fb806100986000396000f3fe608060405234801561001057600080fd5b506004361061009e5760003560e01c8063ab111c8a11610066578063ab111c8a14610157578063b10d6b411461016a578063f2539c7c14610191578063f731fa0f146101a4578063fe35089f146101d757600080fd5b80632b2805db146100a3578063386ca89d146100d65780634ffd591c146101015780637ac3a018146101215780637f8d3a3c14610142575b600080fd5b6100b66100b1366004610dc6565b6101ea565b6040516100cd9b9a99989796959493929190610e69565b60405180910390f35b6001546100e9906001600160a01b031681565b6040516001600160a01b0390911681526020016100cd565b61011461010f366004610f14565b61036d565b6040516100cd9190610f36565b61013461012f366004610f7a565b6103d9565b6040519081526020016100cd565b610155610150366004611047565b61040a565b005b610134610165366004611095565b6104bd565b61017d610178366004610dc6565b6107e1565b6040516100cd989796959493929190611117565b61015561019f366004611180565b610a44565b6101c76101b2366004610f14565b60046020526000908152604090205460ff1681565b60405190151581526020016100cd565b6101556101e5366004610dc6565b610bce565b6002602081905260009182526040909120805460018201549282015460038301805492946001600160a01b039081169490831693600160a01b90930460ff1692909190610236906111b1565b80601f0160208091040260200160405190810160405280929190818152602001828054610262906111b1565b80156102af5780601f10610284576101008083540402835291602001916102af565b820191906000526020600020905b81548152906001019060200180831161029257829003601f168201915b5050505050908060040180546102c4906111b1565b80601f01602080910402602001604051908101604052809291908181526020018280546102f0906111b1565b801561033d5780601f106103125761010080835404028352916020019161033d565b820191906000526020600020905b81548152906001019060200180831161032057829003601f168201915b5050506005840154600685015460078601546008870154600990970154959660ff9384169692955090935091168b565b6001600160a01b0381166000908152600360209081526040918290208054835181840281018401909452808452606093928301828280156103cd57602002820191906000526020600020905b8154815260200190600101908083116103b9575b50505050509050919050565b600360205281600052604060002081815481106103f557600080fd5b90600052602060002001600091509150505481565b6001600160a01b03821661045e5760405162461bcd60e51b8152602060048201526016602482015275496e76616c696420697373756572206164647265737360501b60448201526064015b60405180910390fd5b6001600160a01b03821660008181526004602052604090819020805460ff19166001179055517f4a1726c837046486d7e0af20814f9e585c72cfaa1c46e87414677bc7baab9be2906104b19084906111eb565b60405180910390a25050565b60015460405163c3c5a54760e01b81523360048201526000916001600160a01b03169063c3c5a54790602401602060405180830381865afa158015610506573d6000803e3d6000fd5b505050506040513d601f19601f8201168201806040525081019061052a91906111fe565b61056f5760405162461bcd60e51b81526020600482015260166024820152752737ba103932b3b4b9ba32b932b21031b4ba34bd32b760511b6044820152606401610455565b610577610d6d565b60008451116105bd5760405162461bcd60e51b815260206004820152601260248201527112541194c81a185cda081c995c5d5a5c995960721b6044820152606401610455565b6000338686426040516020016105d69493929190611220565b604051602081830303815290604052805190602001209050604051806101600160405280828152602001336001600160a01b0316815260200160006001600160a01b0316815260200187600681111561063157610631610ddf565b815260208082018890526040808301889052600060608085018290526080850182905260a085018990524260c0860152600160e0909501859052868252600280855291839020865181559386015194840180546001600160a01b03199081166001600160a01b03978816179091559286015191840180549384169290951691821785558501519293916001600160a81b03191617600160a01b8360068111156106dc576106dc610ddf565b0217905550608082015160038201906106f590826112c8565b5060a0820151600482019061070a90826112c8565b5060c082015160058201805460ff1916600183600381111561072e5761072e610ddf565b021790555060e0820151600682015561010082015160078201556101208201516008820155610140909101516009909101805460ff1916911515919091179055336000818152600360209081526040808320805460018101825590845291909220018390555182907f7b9c7335cb07ab56387ad7a81e84666b07ddb42caa8410ce38ac811737b37170906107c5908a904290611388565b60405180910390a390506107d96001600055565b949350505050565b60008181526002602081815260408084208151610160810183528154815260018201546001600160a01b03908116948201949094529381015492831691840191909152839283926060928492839283928392839290919088830190600160a01b900460ff16600681111561085757610857610ddf565b600681111561086857610868610ddf565b815260200160038201805461087c906111b1565b80601f01602080910402602001604051908101604052809291908181526020018280546108a8906111b1565b80156108f55780601f106108ca576101008083540402835291602001916108f5565b820191906000526020600020905b8154815290600101906020018083116108d857829003601f168201915b5050505050815260200160048201805461090e906111b1565b80601f016020809104026020016040519081016040528092919081815260200182805461093a906111b1565b80156109875780601f1061095c57610100808354040283529160200191610987565b820191906000526020600020905b81548152906001019060200180831161096a57829003601f168201915b5050509183525050600582015460209091019060ff1660038111156109ae576109ae610ddf565b60038111156109bf576109bf610ddf565b81526020016006820154815260200160078201548152602001600882015481526020016009820160009054906101000a900460ff161515151581525050905080602001518160400151826060015183608001518460c001518560e001518661010001518761014001519850985098509850985098509850985050919395975091939597565b3360009081526004602052604090205460ff16610a9b5760405162461bcd60e51b81526020600482015260156024820152742737ba1030baba3437b934bd32b21034b9b9bab2b960591b6044820152606401610455565b610aa3610d6d565b60008281526002602052604090206009015460ff16610afa5760405162461bcd60e51b8152602060048201526013602482015272446f63756d656e74206e6f742061637469766560681b6044820152606401610455565b60008281526002602052604081206005015460ff166003811115610b2057610b20610ddf565b14610b645760405162461bcd60e51b8152602060048201526014602482015273446f63756d656e74206e6f742070656e64696e6760601b6044820152606401610455565b600082815260026020819052604091829020600501805460ff1916909117905551339083907f456ea72a1ae7d01251116fc1f136eab3708d34d0d45afce4db01df5ff00511f690610bb890859042906113a3565b60405180910390a3610bca6001600055565b5050565b3360009081526004602052604090205460ff16610c255760405162461bcd60e51b81526020600482015260156024820152742737ba1030baba3437b934bd32b21034b9b9bab2b960591b6044820152606401610455565b610c2d610d6d565b60008181526002602052604090206009015460ff16610c845760405162461bcd60e51b8152602060048201526013602482015272446f63756d656e74206e6f742061637469766560681b6044820152606401610455565b60008181526002602052604081206005015460ff166003811115610caa57610caa610ddf565b14610cee5760405162461bcd60e51b8152602060048201526014602482015273446f63756d656e74206e6f742070656e64696e6760601b6044820152606401610455565b60008181526002602081815260409283902060058101805460ff1916600117905591820180546001600160a01b03191633908117909155426006909301839055925191825283917fd2e2c7816326189dcc69e034828acc6b5e35016c2327497c62adee4d7aaf1532910160405180910390a3610d6a6001600055565b50565b600260005403610dbf5760405162461bcd60e51b815260206004820152601f60248201527f5265656e7472616e637947756172643a207265656e7472616e742063616c6c006044820152606401610455565b6002600055565b600060208284031215610dd857600080fd5b5035919050565b634e487b7160e01b600052602160045260246000fd5b60078110610e0557610e05610ddf565b9052565b60005b83811015610e24578181015183820152602001610e0c565b50506000910152565b60008151808452610e45816020860160208601610e09565b601f01601f19169290920160200192915050565b60048110610e0557610e05610ddf565b8b81526001600160a01b038b811660208301528a1660408201526000610160610e95606084018c610df5565b806080840152610ea78184018b610e2d565b905082810360a0840152610ebb818a610e2d565b915050610ecb60c0830188610e59565b8560e083015284610100830152836101208301528215156101408301529c9b505050505050505050505050565b80356001600160a01b0381168114610f0f57600080fd5b919050565b600060208284031215610f2657600080fd5b610f2f82610ef8565b9392505050565b6020808252825182820181905260009190848201906040850190845b81811015610f6e57835183529284019291840191600101610f52565b50909695505050505050565b60008060408385031215610f8d57600080fd5b610f9683610ef8565b946020939093013593505050565b634e487b7160e01b600052604160045260246000fd5b600082601f830112610fcb57600080fd5b813567ffffffffffffffff80821115610fe657610fe6610fa4565b604051601f8301601f19908116603f0116810190828211818310171561100e5761100e610fa4565b8160405283815286602085880101111561102757600080fd5b836020870160208301376000602085830101528094505050505092915050565b6000806040838503121561105a57600080fd5b61106383610ef8565b9150602083013567ffffffffffffffff81111561107f57600080fd5b61108b85828601610fba565b9150509250929050565b600080600080608085870312156110ab57600080fd5b8435600781106110ba57600080fd5b9350602085013567ffffffffffffffff808211156110d757600080fd5b6110e388838901610fba565b945060408701359150808211156110f957600080fd5b5061110687828801610fba565b949793965093946060013593505050565b6001600160a01b03898116825288166020820152600061010061113d604084018a610df5565b80606084015261114f81840189610e2d565b91505061115f6080830187610e59565b8460a08301528360c083015282151560e08301529998505050505050505050565b6000806040838503121561119357600080fd5b82359150602083013567ffffffffffffffff81111561107f57600080fd5b600181811c908216806111c557607f821691505b6020821081036111e557634e487b7160e01b600052602260045260246000fd5b50919050565b602081526000610f2f6020830184610e2d565b60006020828403121561121057600080fd5b81518015158114610f2f57600080fd5b6bffffffffffffffffffffffff198560601b16815260006007851061124757611247610ddf565b8460f81b60148301528351611263816015850160208801610e09565b6015920191820192909252603501949350505050565b601f8211156112c357600081815260208120601f850160051c810160208610156112a05750805b601f850160051c820191505b818110156112bf578281556001016112ac565b5050505b505050565b815167ffffffffffffffff8111156112e2576112e2610fa4565b6112f6816112f084546111b1565b84611279565b602080601f83116001811461132b57600084156113135750858301515b600019600386901b1c1916600185901b1785556112bf565b600085815260208120601f198616915b8281101561135a5788860151825594840194600190910190840161133b565b50858210156113785787850151600019600388901b60f8161c191681555b5050505050600190811b01905550565b604081016113968285610df5565b8260208301529392505050565b6040815260006113b66040830185610e2d565b9050826020830152939250505056fea264697066735822122078a219635f0c1f35f142d76de0bd3d318927698802856abb0375fad5d5a20bf864736f6c63430008130033",
  "linkReferences": {},
  "deployedLinkReferences": {}
}