{
  "_format": "hh-sol-artifact-1",
  "contractName": "CitizenRegistry",
  "sourceName": "contracts/CitizenRegistry.sol",
  "abi": [
    {
      "inputs": [],
      "stateMutability": "nonpayable",
      "type": "constructor"
    },
    {
      "inputs": [
        {
          "internalType": "address",
          "name": "owner",
          "type": "address"
        }
      ],
      "name": "OwnableInvalidOwner",
      "type": "error"
    },
    {
      "inputs": [
        {
          "internalType": "address",
          "name": "account",
          "type": "address"
        }
      ],
      "name": "OwnableUnauthorizedAccount",
      "type": "error"
    },
    {
      "inputs": [],
      "name": "ReentrancyGuardReentrantCall",
      "type": "error"
    },
    {
      "anonymous": false,
      "inputs": [
        {
          "indexed": true,
          "internalType": "address",
          "name": "citizenAddress",
          "type": "address"
        },
        {
          "indexed": false,
          "internalType": "string",
          "name": "name",
          "type": "string"
        },
        {
          "indexed": false,
          "internalType": "uint256",
          "name": "timestamp",
          "type": "uint256"
        }
      ],
      "name": "CitizenRegistered",
      "type": "event"
    },
    {
      "anonymous": false,
      "inputs": [
        {
          "indexed": true,
          "internalType": "address",
          "name": "citizenAddress",
          "type": "address"
        },
        {
          "indexed": true,
          "internalType": "address",
          "name": "verifier",
          "type": "address"
        },
        {
          "indexed": false,
          "internalType": "uint256",
          "name": "timestamp",
          "type": "uint256"
        }
      ],
      "name": "CitizenVerified",
      "type": "event"
    },
    {
      "anonymous": false,
      "inputs": [
        {
          "indexed": true,
          "internalType": "address",
          "name": "previousOwner",
          "type": "address"
        },
        {
          "indexed": true,
          "internalType": "address",
          "name": "newOwner",
          "type": "address"
        }
      ],
      "name": "OwnershipTransferred",
      "type": "event"
    },
    {
      "anonymous": false,
      "inputs": [
        {
          "indexed": true,
          "internalType": "address",
          "name": "verifier",
          "type": "address"
        },
        {
          "indexed": false,
          "internalType": "uint256",
          "name": "timestamp",
          "type": "uint256"
        }
      ],
      "name": "VerifierAdded",
      "type": "event"
    },
    {
      "anonymous": false,
      "inputs": [
        {
          "indexed": true,
          "internalType": "address",
          "name": "verifier",
          "type": "address"
        },
        {
          "indexed": false,
          "internalType": "uint256",
          "name": "timestamp",
          "type": "uint256"
        }
      ],
      "name": "VerifierRemoved",
      "type": "event"
    },
    {
      "inputs": [
        {
          "internalType": "address",
          "name": "_verifier",
          "type": "address"
        }
      ],
      "name": "addVerifier",
      "outputs": [],
      "stateMutability": "nonpayable",
      "type": "function"
    },
    {
      "inputs": [
        {
          "internalType": "uint256",
          "name": "",
          "type": "uint256"
        }
      ],
      "name": "citizenAddresses",
      "outputs": [
        {
          "internalType": "address",
          "name": "",
          "type": "address"
        }
      ],
      "stateMutability": "view",
      "type": "function"
    },
    {
      "inputs": [
        {
          "internalType": "address",
          "name": "",
          "type": "address"
        }
      ],
      "name": "citizens",
      "outputs": [
        {
          "internalType": "string",
          "name": "aadharHash",
          "type": "string"
        },
        {
          "internalType": "string",
          "name": "name",
          "type": "string"
        },
        {
          "internalType": "string",
          "name": "email",
          "type": "string"
        },
        {
          "internalType": "string",
          "name": "phone",
          "type": "string"
        },
        {
          "internalType": "bool",
          "name": "isVerified",
          "type": "bool"
        },
        {
          "internalType": "uint256",
          "name": "registrationDate",
          "type": "uint256"
        },
        {
          "internalType": "address",
          "name": "walletAddress",
          "type": "address"
        }
      ],
      "stateMutability": "view",
      "type": "function"
    },
    {
      "inputs": [
        {
          "internalType": "address",
          "name": "_citizenAddress",
          "type": "address"
        }
      ],
      "name": "getCitizen",
      "outputs": [
        {
          "components": [
            {
              "internalType": "string",
              "name": "aadharHash",
              "type": "string"
            },
            {
              "internalType": "string",
              "name": "name",
              "type": "string"
            },
            {
              "internalType": "string",
              "name": "email",
              "type": "string"
            },
            {
              "internalType": "string",
              "name": "phone",
              "type": "string"
            },
            {
              "internalType": "bool",
              "name": "isVerified",
              "type": "bool"
            },
            {
              "internalType": "uint256",
              "name": "registrationDate",
              "type": "uint256"
            },
            {
              "internalType": "address",
              "name": "walletAddress",
              "type": "address"
            }
          ],
          "internalType": "struct CitizenRegistry.Citizen",
          "name": "",
          "type": "tuple"
        }
      ],
      "stateMutability": "view",
      "type": "function"
    },
    {
      "inputs": [
        {
          "internalType": "string",
          "name": "_aadharHash",
          "type": "string"
        }
      ],
      "name": "getCitizenByAadhar",
      "outputs": [
        {
          "internalType": "address",
          "name": "",
          "type": "address"
        }
      ],
      "stateMutability": "view",
      "type": "function"
    },
    {
      "inputs": [],
      "name": "getTotalCitizens",
      "outputs": [
        {
          "internalType": "uint256",
          "name": "",
          "type": "uint256"
        }
      ],
      "stateMutability": "view",
      "type": "function"
    },
    {
      "inputs": [
        {
          "internalType": "address",
          "name": "_citizenAddress",
          "type": "address"
        }
      ],
      "name": "isCitizenRegistered",
      "outputs": [
        {
          "internalType": "bool",
          "name": "",
          "type": "bool"
        }
      ],
      "stateMutability": "view",
      "type": "function"
    },
    {
      "inputs": [],
      "name": "owner",
      "outputs": [
        {
          "internalType": "address",
          "name": "",
          "type": "address"
        }
      ],
      "stateMutability": "view",
      "type": "function"
    },
    {
      "inputs": [
        {
          "internalType": "string",
          "name": "_aadharHash",
          "type": "string"
        },
        {
          "internalType": "string",
          "name": "_name",
          "type": "string"
        },
        {
          "internalType": "string",
          "name": "_email",
          "type": "string"
        },
        {
          "internalType": "string",
          "name": "_phone",
          "type": "string"
        }
      ],
      "name": "registerCitizen",
      "outputs": [],
      "stateMutability": "nonpayable",
      "type": "function"
    },
    {
      "inputs": [
        {
          "internalType": "address",
          "name": "_verifier",
          "type": "address"
        }
      ],
      "name": "removeVerifier",
      "outputs": [],
      "stateMutability": "nonpayable",
      "type": "function"
    },
    {
      "inputs": [],
      "name": "renounceOwnership",
      "outputs": [],
      "stateMutability": "nonpayable",
      "type": "function"
    },
    {
      "inputs": [
        {
          "internalType": "address",
          "name": "newOwner",
          "type": "address"
        }
      ],
      "name": "transferOwnership",
      "outputs": [],
      "stateMutability": "nonpayable",
      "type": "function"
    },
    {
      "inputs": [
        {
          "internalType": "string",
          "name": "_name",
          "type": "string"
        },
        {
          "internalType": "string",
          "name": "_email",
          "type": "string"
        },
        {
          "internalType": "string",
          "name": "_phone",
          "type": "string"
        }
      ],
      "name": "updateProfile",
      "outputs": [],
      "stateMutability": "nonpayable",
      "type": "function"
    },
    {
      "inputs": [
        {
          "internalType": "address",
          "name": "",
          "type": "address"
        }
      ],
      "name": "verifiers",
      "outputs": [
        {
          "internalType": "bool",
          "name": "",
          "type": "bool"
        }
      ],
      "stateMutability": "view",
      "type": "function"
    },
    {
      "inputs": [
        {
          "internalType": "address",
          "name": "_citizenAddress",
          "type": "address"
        }
      ],
      "name": "verifyCitizen",
      "outputs": [],
      "stateMutability": "nonpayable",
      "type": "function"
    }
  ],
  "bytecode": "0x608060405234801561001057600080fd5b50338061003757604051631e4fbdf760e01b81526000600482015260240160405180910390fd5b61004081610065565b506001808055336000908152600460205260409020805460ff191690911790556100b5565b600080546001600160a01b038381166001600160a01b0319831681178455604051919092169283917f8be0079c531659141344cd1fd0a4f28419497f9722a3daafe3b4186f6b6457e09190a35050565b6116cd806100c46000396000f3fe608060405234801561001057600080fd5b50600436106100f55760003560e01c80637af33f2e11610097578063c2411dab11610066578063c2411dab146101fb578063ca2dfd0a1461021b578063d4f910a71461022e578063f2fde38b1461025457600080fd5b80637af33f2e146101995780638da5cb5b146101c45780639000b3d6146101d55780639db51d82146101e857600080fd5b8063308cdc39116100d3578063308cdc391461014857806364f0a39f1461015b5780636c8244871461016e578063715018a61461019157600080fd5b80631105a5eb146100fa5780631e4c93581461010f5780632e3b326814610125575b600080fd5b61010d6101083660046111b8565b610267565b005b6005546040519081526020015b60405180910390f35b610138610133366004611240565b61032d565b604051901515815260200161011c565b61010d610156366004611240565b61035d565b61010d610169366004611270565b6104ea565b61013861017c366004611240565b60046020526000908152604090205460ff1681565b61010d610804565b6101ac6101a736600461131d565b610818565b6040516001600160a01b03909116815260200161011c565b6000546001600160a01b03166101ac565b61010d6101e3366004611240565b610842565b6101ac6101f6366004611336565b610950565b61020e610209366004611240565b610981565b60405161011c91906113c3565b61010d610229366004611240565b610cb2565b61024161023c366004611240565b610dc7565b60405161011c9796959493929190611474565b61010d610262366004611240565b611030565b3360008181526002602052604081208054610281906114ea565b9050116102a95760405162461bcd60e51b81526004016102a09061151e565b60405180910390fd5b60008451116102ea5760405162461bcd60e51b815260206004820152600d60248201526c13985b59481c995c5d5a5c9959609a1b60448201526064016102a0565b336000908152600260205260409020600181016103078682611599565b50600281016103168582611599565b50600381016103258482611599565b505050505050565b6001600160a01b03811660009081526002602052604081208054829190610353906114ea565b9050119050919050565b3360009081526004602052604090205460ff168061038557506000546001600160a01b031633145b6103d15760405162461bcd60e51b815260206004820152601760248201527f4e6f7420617574686f72697a656420766572696669657200000000000000000060448201526064016102a0565b6001600160a01b03811660009081526002602052604081208054839291906103f8906114ea565b9050116104175760405162461bcd60e51b81526004016102a09061151e565b6001600160a01b03821660009081526002602052604090206004015460ff16156104835760405162461bcd60e51b815260206004820152601860248201527f436974697a656e20616c7265616479207665726966696564000000000000000060448201526064016102a0565b6001600160a01b03821660008181526002602052604090819020600401805460ff19166001179055513391907f444796c7f0646b3525d67b6a35126418a5d4ed3f672dbeb2f815a18a88253a2c906104de9042815260200190565b60405180910390a35050565b6104f261106e565b600084511161053a5760405162461bcd60e51b81526020600482015260146024820152731058591a185c881a185cda081c995c5d5a5c995960621b60448201526064016102a0565b600083511161057b5760405162461bcd60e51b815260206004820152600d60248201526c13985b59481c995c5d5a5c9959609a1b60448201526064016102a0565b3360009081526002602052604090208054610595906114ea565b1590506105e45760405162461bcd60e51b815260206004820152601a60248201527f436974697a656e20616c7265616479207265676973746572656400000000000060448201526064016102a0565b60006001600160a01b03166003856040516105ff9190611659565b908152604051908190036020019020546001600160a01b0316146106655760405162461bcd60e51b815260206004820152601960248201527f41616468617220616c726561647920726567697374657265640000000000000060448201526064016102a0565b6040805160e0810182528581526020808201869052818301859052606082018490526000608083018190524260a08401523360c084018190528152600290915291909120815181906106b79082611599565b50602082015160018201906106cc9082611599565b50604082015160028201906106e19082611599565b50606082015160038201906106f69082611599565b50608082015160048201805460ff191691151591909117905560a0820151600582015560c090910151600690910180546001600160a01b0319166001600160a01b039092169190911790556040513390600390610754908790611659565b90815260405190819003602001812080546001600160a01b03939093166001600160a01b0319938416179055600580546001810182556000919091527f036b6384b5eca791c62761152d0c79bb0604c104a5fb6f4eb0703f3154bb3db0018054909216339081179092557f754530224c6d5f086f90f1ddc12ad49176b37c5ec426819ac61035f9427fd2df906107ed9086904290611675565b60405180910390a26107fe60018055565b50505050565b61080c611098565b61081660006110c5565b565b6005818154811061082857600080fd5b6000918252602090912001546001600160a01b0316905081565b61084a611098565b6001600160a01b0381166108925760405162461bcd60e51b815260206004820152600f60248201526e496e76616c6964206164647265737360881b60448201526064016102a0565b6001600160a01b03811660009081526004602052604090205460ff16156108f05760405162461bcd60e51b815260206004820152601260248201527120b63932b0b23c9030903b32b934b334b2b960711b60448201526064016102a0565b6001600160a01b03811660008181526004602052604090819020805460ff19166001179055517fe0af945fa32f33b1ac2e98b37cf8768d434dec2f25accd97306a26ef6a777750906109459042815260200190565b60405180910390a250565b60006003826040516109629190611659565b908152604051908190036020019020546001600160a01b031692915050565b6109cc6040518060e00160405280606081526020016060815260200160608152602001606081526020016000151581526020016000815260200160006001600160a01b031681525090565b6001600160a01b03821660009081526002602052604081208054849291906109f3906114ea565b905011610a125760405162461bcd60e51b81526004016102a09061151e565b6001600160a01b03831660009081526002602052604090819020815160e08101909252805482908290610a44906114ea565b80601f0160208091040260200160405190810160405280929190818152602001828054610a70906114ea565b8015610abd5780601f10610a9257610100808354040283529160200191610abd565b820191906000526020600020905b815481529060010190602001808311610aa057829003601f168201915b50505050508152602001600182018054610ad6906114ea565b80601f0160208091040260200160405190810160405280929190818152602001828054610b02906114ea565b8015610b4f5780601f10610b2457610100808354040283529160200191610b4f565b820191906000526020600020905b815481529060010190602001808311610b3257829003601f168201915b50505050508152602001600282018054610b68906114ea565b80601f0160208091040260200160405190810160405280929190818152602001828054610b94906114ea565b8015610be15780601f10610bb657610100808354040283529160200191610be1565b820191906000526020600020905b815481529060010190602001808311610bc457829003601f168201915b50505050508152602001600382018054610bfa906114ea565b80601f0160208091040260200160405190810160405280929190818152602001828054610c26906114ea565b8015610c735780601f10610c4857610100808354040283529160200191610c73565b820191906000526020600020905b815481529060010190602001808311610c5657829003601f168201915b5050509183525050600482015460ff1615156020820152600582015460408201526006909101546001600160a01b031660609091015291505b50919050565b610cba611098565b6001600160a01b03811660009081526004602052604090205460ff16610d135760405162461bcd60e51b815260206004820152600e60248201526d2737ba1030903b32b934b334b2b960911b60448201526064016102a0565b6000546001600160a01b03166001600160a01b0316816001600160a01b031603610d755760405162461bcd60e51b815260206004820152601360248201527221b0b73737ba103932b6b7bb329037bbb732b960691b60448201526064016102a0565b6001600160a01b03811660008181526004602052604090819020805460ff19169055517f577461bde9fd030eb8b2941145223af9676a2dfae0f7c7d2456d7be21573a118906109459042815260200190565b600260205260009081526040902080548190610de2906114ea565b80601f0160208091040260200160405190810160405280929190818152602001828054610e0e906114ea565b8015610e5b5780601f10610e3057610100808354040283529160200191610e5b565b820191906000526020600020905b815481529060010190602001808311610e3e57829003601f168201915b505050505090806001018054610e70906114ea565b80601f0160208091040260200160405190810160405280929190818152602001828054610e9c906114ea565b8015610ee95780601f10610ebe57610100808354040283529160200191610ee9565b820191906000526020600020905b815481529060010190602001808311610ecc57829003601f168201915b505050505090806002018054610efe906114ea565b80601f0160208091040260200160405190810160405280929190818152602001828054610f2a906114ea565b8015610f775780601f10610f4c57610100808354040283529160200191610f77565b820191906000526020600020905b815481529060010190602001808311610f5a57829003601f168201915b505050505090806003018054610f8c906114ea565b80601f0160208091040260200160405190810160405280929190818152602001828054610fb8906114ea565b80156110055780601f10610fda57610100808354040283529160200191611005565b820191906000526020600020905b815481529060010190602001808311610fe857829003601f168201915b5050505060048301546005840154600690940154929360ff909116929091506001600160a01b031687565b611038611098565b6001600160a01b03811661106257604051631e4fbdf760e01b8152600060048201526024016102a0565b61106b816110c5565b50565b60026001540361109157604051633ee5aeb560e01b815260040160405180910390fd5b6002600155565b6000546001600160a01b031633146108165760405163118cdaa760e01b81523360048201526024016102a0565b600080546001600160a01b038381166001600160a01b0319831681178455604051919092169283917f8be0079c531659141344cd1fd0a4f28419497f9722a3daafe3b4186f6b6457e09190a35050565b634e487b7160e01b600052604160045260246000fd5b600082601f83011261113c57600080fd5b813567ffffffffffffffff8082111561115757611157611115565b604051601f8301601f19908116603f0116810190828211818310171561117f5761117f611115565b8160405283815286602085880101111561119857600080fd5b836020870160208301376000602085830101528094505050505092915050565b6000806000606084860312156111cd57600080fd5b833567ffffffffffffffff808211156111e557600080fd5b6111f18783880161112b565b9450602086013591508082111561120757600080fd5b6112138783880161112b565b9350604086013591508082111561122957600080fd5b506112368682870161112b565b9150509250925092565b60006020828403121561125257600080fd5b81356001600160a01b038116811461126957600080fd5b9392505050565b6000806000806080858703121561128657600080fd5b843567ffffffffffffffff8082111561129e57600080fd5b6112aa8883890161112b565b955060208701359150808211156112c057600080fd5b6112cc8883890161112b565b945060408701359150808211156112e257600080fd5b6112ee8883890161112b565b9350606087013591508082111561130457600080fd5b506113118782880161112b565b91505092959194509250565b60006020828403121561132f57600080fd5b5035919050565b60006020828403121561134857600080fd5b813567ffffffffffffffff81111561135f57600080fd5b61136b8482850161112b565b949350505050565b60005b8381101561138e578181015183820152602001611376565b50506000910152565b600081518084526113af816020860160208601611373565b601f01601f19169290920160200192915050565b602081526000825160e060208401526113e0610100840182611397565b90506020840151601f19808584030160408601526113fe8383611397565b9250604086015191508085840301606086015261141b8383611397565b92506060860151915080858403016080860152506114398282611397565b9150506080840151151560a084015260a084015160c084015260c084015161146c60e08501826001600160a01b03169052565b509392505050565b60e08152600061148760e083018a611397565b8281036020840152611499818a611397565b905082810360408401526114ad8189611397565b905082810360608401526114c18188611397565b9515156080840152505060a08101929092526001600160a01b031660c090910152949350505050565b600181811c908216806114fe57607f821691505b602082108103610cac57634e487b7160e01b600052602260045260246000fd5b60208082526016908201527510da5d1a5e995b881b9bdd081c9959da5cdd195c995960521b604082015260600190565b601f82111561159457600081815260208120601f850160051c810160208610156115755750805b601f850160051c820191505b8181101561032557828155600101611581565b505050565b815167ffffffffffffffff8111156115b3576115b3611115565b6115c7816115c184546114ea565b8461154e565b602080601f8311600181146115fc57600084156115e45750858301515b600019600386901b1c1916600185901b178555610325565b600085815260208120601f198616915b8281101561162b5788860151825594840194600190910190840161160c565b50858210156116495787850151600019600388901b60f8161c191681555b5050505050600190811b01905550565b6000825161166b818460208701611373565b9190910192915050565b6040815260006116886040830185611397565b9050826020830152939250505056fea2646970667358221220c01ae76f5aa5d32e1e17158f71d5e83ce4e09312a22e7889d53ca65ffb5790f764736f6c63430008140033",
  "linkReferences": {},
  "deployedLinkReferences": {}
}